:100513003D3D52616E67652046696E6465723D3D7F
:1005230000303132333435363738392E2D4D446966
:100533007374616E63653A3030302E30636D002121
:100543002121204F7574206F662072616E676500EC
:1006740001086401146E020A0000040C000000006A
:08068400C10004100000000099
:0C059200E4FDFC7F381206A57F057E000A
:10059E00D3EF9400EE940040147D727C00ED1D703C
:0D05AE00011CED4C70F7EF1F70E61E80E39E
:0105BB00221D
:100655007F0112066CC2B67F0112066CC2B47F011F
:0706650012066CC2B47F0114
:07066C007E0A00DEFDDFF94C
:010673002264
:08000300D2A6E4F580C2A6229A
:100632007580FFC2B57F0112066CD2B67F01120629
:100642006C120661D2B47F0112066CE58020E7F1DC
:03065200AF802254
:1006BC00AD071206328D80D2B5120655D2B47F0129
:0306CC0002066CB7
:1006A500AB07ED4C60031206328B80C2B5120655BE
:0706B500D2B47F0102066CC4
:1005BC00E4F5801205931205921205927D017C00E0
:1005CC007F381206A57F081206A57F011206A57FAB
:0905DC00061206A57F0C0206A51B
:0705E50090052493FB7D014A
:1005EC00AE07AA0353050153060FED600343064003
:1005FC00430680AF067D017C001206A5AF02020601
:01060C00BC31
:080553007A057B317D01E4FF14
:08055B008D158A168B17A90704
:10056300E4F51853150153010FE5172518F582E437
:100573003516F583E493FBD394194012E9D3940F12
:0E05830050E7AF01AD151205EC05180980DB3D
:010591002247
:03000B00020018D8
:03001800D20032E1
:0A000E00D2A17F0212066CC2A122EB
:0906CF00C292D293D296C2972286
:0906D800D292C293C296D297227D
:0906E100C296C297C292C2932294
:0906EA00D292C293D296C297226B
:03001B0002060DCD
:10060D00C0E0C0D00509E509B4FF07C295C29475D5
:10061D000900E508B50902D294E514B50902D29591
:05062D00D0D0D0E03246
:10068D0020B0FD12059A20B0F730B0FDC2A37FC88F
:08069D007E0012059ED2A3228B
:1002D000AF8CEFFEAD8A7C00E42DF50BEC3EF50A09
:1002E000E4F58CF58AAC0AAD0B1201297B777AE034
:1002F000793C783E12001E1201628F0F8E0E8D0D1A
:100300008C0CE47F587E1BFDFCAB0FAA0EA90DA838
:100310000CC31202BF500330000DC2007A057B42AD
:100320007D01E4FF02055BE47BE87A03F9F8AF0F97
:10033000AE0EAD0DAC0C12021F8F10E47BE87A03F9
:10034000F9F8AF0FAE0EAD0DAC0C12021FAC00AD44
:1003500001AE02AF03E47B64FAF9F812021F8F11B9
:10036000E47B64FAF9F8AF0FAE0EAD0DAC0C1202DF
:100370001FAC00AD01AE02AF03E47B0AFAF9F8123C
:10038000021F8F12E47B0AFAF9F8AF0FAE0EAD0D23
:10039000AC0C12021FAF038F13120553E5107F0937
:1003A0001205E5E51193FB7D017F0A1205ECE512CC
:1003B00093FB7D017F0B1205EC90052EE493FB7DF2
:0E03C000017F0C1205ECE5137F0D1205E522FE
:10045A00E47F907E01FDFCAB0FAA0EA90DA80CC388
:10046A001202BF504BC2A31206E11206D87F647E65
:10047A000012059E1206EA7F5A7E0012059E120697
:10048A00E17F647E0012059E12000E30A0FDD28C20
:10049A0020A0FDC28C1202D0E47F187E01FDFCABC5
:1004AA000FAA0EA90DA80CC31202BF40C7D2A322DD
:0404BA001206CF2235
:1004BE001200031205BC12059A7A057B13E4FDFFA8
:1004CE0012055B12055312068D7FE87E0312059E00
:1004DE00438920438901758DDC758BDCE4F58CF541
:1004EE008AD2ABD2A9D28ED2AF12000E30A0FDD2DC
:1004FE008C20A0FDC28C1202D012045A7F417E00C5
:05050E0012059E80E4CF
:10001E00EC4D6011E8497017ED33EC3304600DE4DC
:10002E00FCFFFEFD22E933E8330470F80201CE1224
:10003E00019958046009E4CC248150062850090225
:10004E0001D82840030201D5C0E0EB4A7044B980C4
:10005E0006D0E0FB0201C4EF4E701CBD8008EBFF22
:10006E00EAFEE9FD80EBE98DF0A4FEE5F002010762
:10007E00E9CDF9EAFEEBFFEF89F0A4FCE5F0CE89BD
:10008E00F0A42EFFE435F0CD89F0A42DFEE435F07A
:10009E008067EF4E7005BD80D780C3EF8BF0A4ACA8
:1000AE00F0EE8BF0A42CFCE435F0F8EF8AF0A42CE3
:1000BE00E5F038FCE433CB8DF0A42CFCE5F03BF8F6
:1000CE00EE8AF0A42CFCE5F038F8E433CF89F0A4E6
:1000DE002CFCE5F038CF3400CE89F0A42FFFE5F0EC
:1000EE003EFEE433C98DF0A42EFEE5F039CD8AF044
:1000FE00A42FFFE5F03EFEE43DFD33D0E0FB5007BC
:10010E000BBB000F0201D8EC2CFCEF33FFEE33FEDD
:06011E00ED33FD0201B00B
:1001240075F020800E75F010800575F0087D007E56
:10013400007F003392D530D5031202B1EC33401066
:10014400EF33FFEE33FEED33FDEC33FCD5F0ED225F
:0E015400E5F0247EA2D513CC92E7CDCEFF229B
:10016200EDD2E7CD33EC3392D524814006E4FFFE95
:10017200FDFC22FCE4CFCECDCC24E0501174FF80F4
:10018200EDC3CC13CCCD13CDCE13CECF13CF047091
:07019200F030D5DE0202B1DE
:10019900E9D2E7C933E833F892D5EDD2E7CD33ECAC
:0701A90033FC5002B2D52225
:1001B000EC30E7100FBF000C0EBE00080DBD0004B0
:1001C0000BEB6014A2D5EB13FCED92E7FD2274FF5C
:1001D000FCFDFEFF22E480F8A2D574FF13FC7D80B5
:0301E000E480EFC9
:030000000203CE2A
:0C03CE00787FE4F6D8FD7581200204154C
:1001E30075F008758200EF2FFFEE33FECD33CDCCD3
:1001F30033CCC58233C5829BED9AEC99E582984056
:100203000CF582EE9BFEED9AFDEC99FC0FD5F0D632
:10021300E4CEFBE4CDFAE4CCF9A88222B800C1B95C
:100223000059BA002DEC8BF084CFCECDFCE5F0CB9A
:10023300F97818EF2FFFEE33FEED33FDEC33FCEBD3
:1002430033FB10D703994004EB99FB0FD8E5E4F98E
:10025300FA227818EF2FFFEE33FEED33FDEC33FC7B
:10026300C933C910D7059BE99A4007EC9BFCE99A6F
:10027300F90FD8E0E4C9FAE4CCFB2275F010EF2FB4
:10028300FFEE33FEED33FDCC33CCC833C810D707B4
:100293009BEC9AE899400AED9BFDEC9AFCE899F8EF
:0E02A3000FD5F0DAE4CDFBE4CCFAE4C8F92282
:0E02B100C3E49FFFE49EFEE49DFDE49CFC225E
:1002BF00EB9FF5F0EA9E42F0E99D42F0E89C45F095
:0102CF00220C
:1003DA000204BEE493A3F8E493A34003F68001F277
:1003EA0008DFF48029E493A3F85407240CC8C33324
:1003FA00C4540F4420C8834004F456800146F6DFF3
:10040A00E4800B0102040810204080900674E47E08
:10041A00019360BCA3FF543F30E509541FFEE493E7
:10042A00A360010ECF54C025E060A840B8E493A3AE
:10043A00FAE493A3F8E493A3C8C582C8CAC583CAD9
:10044A00F0A3C8C582C8CAC583CADFE9DEE780BE91
:01068C00006D
:00000001FF
