:0300000002033DBB
:0C033D00787FE4F6D8FD75812E02038461
:1003C900783A00793A004C656674204B6579206962
:1003D9007320446F776E00526967687420204B65FB
:1003E900792020446F776E004D6964646C65204BF9
:1003F900657920446F776E21004E6F204B65792017
:1004090020697320446F776E21000000000000000E
:0E056F00011A00011B000213271002152710AD
:1004A3007F281204C17F281204C17F281204C17F50
:0E04B3000C1204C17F801204C17F010204C13B
:10052E00D2A1C2A0D2A2E580540F44F0F580E5809E
:06053E0020E7FBC2A2222F
:10051700C2A153800FE580540FFEEF54F04EF580D3
:07052700D2A2D2A2C2A2225F
:1004C10012052EC2A0120517EFC454F0FF53800F7E
:0E04D100E580540FFEEF54F04EF58002052733
:1004DF0012052ED2A0120517EFC454F0FF53800F50
:0E04EF00E580540FFEEF54F04EF58002052715
:10055A0053050FEF7006ED2480FC8004ED24C0FCE7
:05056A00AF040204C112
:0805950012055AAF030204DF56
:1005440012055A12010CFF600C1204DF740129F920
:06055400E43AFA80EE22F9
:080217008F228D238A248B2520
:10021F0078277C007D007BFF7A0479137E007F06B0
:10022F001200E685242D85252EE5254524700AAF7D
:10023F0022FE7B30AD23020595E4FBC3E52E94012E
:10024F00E52D940040020526AE2DAF2E7C007D0AD1
:10025F001201258E2D8F2E0BBB06E085242D8525B3
:10026F002EE526D394004029AE2DAF2E7C007D0ABB
:10027F00120125ED2430FF74262526F8A607AE2D92
:10028F00AF2E7C007D0A1201258E2D8F2E15268014
:0E029F00D07B007A007927AD23AF22120544F0
:0102AD00222E
:0B058A00EF1FAC0670011E4C70F62243
:1004FD00EF1FAA0670011E4A600FE4FDEDC394FACA
:09050D0050EE000000000D80F327
:0105160022C2
:0C057E00E4F588D2AFD2AAD2A9D2BA22EA
:02041900AD072D
:10041B00C2AAEDC2B37FC87E0012058AC2B47F2880
:10042B007E0012058AD2B3E4FF20B3FDEDA80708C6
:10043B008002C313D8FC1392B430B3FD0FBF08E98D
:10044B0020B3FDA2D0B392B430B3FD20B3FDD2B430
:0B045B0030B3FD20B3FD30B3FDD2AA8A
:010466002273
:10000300E521A2D0B3E433B511037F01227F00229F
:10017A00E50924FF9208E50A24FF9209E50B24FF0A
:10018A00920AE50C24FF920BE50D24FF920CE50E72
:10019A0024FF920DE50F24FF920EE51024FF920F23
:1001AA00120003EF6066E51BC39403500AAF1B05F8
:1001BA001B74172FF8A621E51B6403704FF51BE586
:1001CA001730E417C3E49518FF74019400FEC3E5E1
:1001DA00149FF514E5139EF513800BE5182514F505
:1001EA0014E43513F513E51730E516C3E49519FF42
:1001FA0074019400FEC3E5169FF516E5159EF515E4
:0D020A0022E5192516F516E43515F5152227
:030013000204677D
:10046700C0E0C0D075D000C000C006C007E51AD3F1
:10047700940A501230B3FDA2B4E433FFAE1A051A42
:1004870074082EF8A607E51AB40A0612017A751A37
:0C04970000D007D006D000D0D0D0E0325A
:1002AE0012057E1204A37FF4120419C2AA7F647E83
:1002BE00001204FDD2AA7F011204C17BFF7A0379DA
:1002CE00C9E4FDFF120544AB14AA137D02E4FF122C
:1002DE0002177BFF7A0379CC7D08E4FF120544AB4D
:1002EE0016AA157D0AE4FF120217E51730E00AC2BE
:1002FE00B77BFF7A0379CF8026E51730E10AC2B7C4
:10030E007BFF7A0379E08017E51730E20AC2B77BEC
:10031E00FF7A0379F18008D2B77BFF7A047902E481
:0F032E00FD7F011205447F327E001204FD80879F
:100349000202AEE493A3F8E493A34003F68001F21A
:1003590008DFF48029E493A3F85407240CC8C333B5
:10036900C4540F4420C8834004F456800146F6DF84
:10037900E4800B010204081020408090056FE47EA0
:10038900019360BCA3FF543F30E509541FFEE49379
:10039900A360010ECF54C025E060A840B8E493A340
:1003A900FAE493A3F8E493A3C8C582C8CAC583CA6B
:1003B900F0A3C8C582C8CAC583CADFE9DEE780BE23
:01057D00007D
:10001600E709F608DFFA8046E709F208DFFA803ECC
:1000260088828C83E709F0A3DFFA8032E309F608B9
:10003600DFFA8078E309F208DFFA807088828C8321
:10004600E309F0A3DFFA806489828A83E0A3F608D5
:10005600DFFA805889828A83E0A3F208DFFA804CAF
:1000660080D280FA80C680D4806980F28033801086
:1000760080A680EA809A80A880DA80E280CA8033EF
:1000860089828A83ECFAE493A3C8C582C8CCC58367
:10009600CCF0A3C8C582C8CCC583CCDFE9DEE78037
:1000A6000D89828A83E493A3F608DFF9ECFAA9F0B6
:1000B600EDFB2289828A83ECFAE0A3C8C582C8CC0C
:1000C600C583CCF0A3C8C582C8CCC583CCDFEADE25
:1000D600E880DB89828A83E493A3F208DFF980CC87
:1000E60088F0EF60010E4E60C388F0ED2402B40480
:1000F6000050B9F582EB2402B4040050AF23234527
:06010600822390006673E5
:10010C00BB010689828A83E0225002E722BBFE02F1
:09011C00E32289828A83E4932224
:10012500BC000BBE0029EF8DF084FFADF022E4CCBE
:10013500F875F008EF2FFFEE33FEEC33FCEE9DEC87
:10014500984005FCEE9DFE0FD5F0E9E4CEFD22EDCD
:10015500F8F5F0EE8420D21CFEADF075F008EF2F17
:10016500FFED33FD4007985006D5F0F222C398FD08
:050175000FD5F0EA22A5
:00000001FF
