:030000000200B14A
:0C00B100787FE4F6D8FD7581290200F884
:1001F300737472696E6700696E7400666C6F617404
:0102030000FA
:0A020400C104C101C100C103C10221
:1001DF00EF4E600F7D027CEFDCFEDDFCEF1F70F059
:0301EF001E80ED82
:0101F20022EA
:1001CA00758920758DFD758BFD7598505387EFD213
:0501DA008EE4F5A822EF
:0601A7008B278A2889293C
:1001AD00E4FFAB27AA28A9298F8275830012017A53
:0C01BD00600AF5993099FDC2990F80E6A8
:0101C9002213
:10013D00E4F525F52620902E30000E20030B30021D
:10014D00087BFF7A0179FE801A20000E30020B2009
:10015D0003087BFF7A0179FA80093003097BFF7A66
:0C016D000179F31201A7C200C203C20214
:010179002263
:10000300E4F521F522F523F5241201CA20900D7F92
:100013000A7E001201DF20900312013D3098EDC2E9
:100023009885991CE51CB42804D204C201E51CB4CC
:100033002904D204D201300457200154E51C64285A
:10004300604EE51C64296048C3E5239413E52264EC
:10005300809480503B74082523F8A61C0523E523D0
:1000630070020522E51CB42E07200004D200802074
:10007300E51CC39430400BE51CD394395004D202E1
:10008300800EE51C64286008E51C64296002D20325
:1000930020040302000F20010302000F740925232B
:0E00A300F8E4F6F522F523C204C20102000FB4
:1000BD00020003E493A3F8E493A34003F68001F256
:1000CD0008DFF48029E493A3F85407240CC8C33344
:1000DD00C4540F4420C8834004F456800146F6DF13
:1000ED00E4800B0102040810204080900204E47E9D
:1000FD00019360BCA3FF543F30E509541FFEE49308
:10010D00A360010ECF54C025E060A840B8E493A3CE
:10011D00FAE493A3F8E493A3C8C582C8CAC583CAF9
:10012D00F0A3C8C582C8CAC583CADFE9DEE780BEB1
:01020E0000EF
:10017A00BB010CE58229F582E5833AF583E022503A
:10018A0006E92582F8E622BBFE06E92582F8E22284
:0D019A00E58229F582E5833AF583E493229E
:00000001FF
