:0300000002009665
:0C009600787FE4F6D8FD7581070200A217
:1000030080868C92989EA5AAB0B6BCC1C6CBD0D52B
:10001300DADEE2E6EAEDF0F3F5F8FAFBFDFEFEFFC9
:10002300FFFFFEFEFDFBFAF8F5F3F0EDEAE6E2DE94
:10003300DAD5D0CBC6C1BCB6B0AAA59E98928C86A1
:100043007F79736D67615A554F49433E39342F2A7F
:1000530025211D1915120F0C0A07050402010100C1
:1000630000000101020405070A0C0F1215191D21D6
:10007300252A2F34393E43494F555A61676D7379A9
:0900AD00C280C281D282C283220A
:0400B6007F64DFFE86
:0100BA002223
:100083000EEEB48002E4FEEE90000393F5901200AE
:03009300B680ED47
:0B00A2001200AD7590FF12008380FB80
:00000001FF
