:100003000102030A0405060B0708090C0E000F0D75
:10001300002010CC474444FC44444464460400009C
:1000230084848487848484FF848484848486848011
:1000330000000000FE222222222222FF02000000F2
:100043008080C0B08F82828282C282FF8080808063
:10005300000000FE82828282828282FF0200000010
:10006300808080FFA0A0A0A0A0A0A0FF80808080AF
:10007300100C04448C943506F404040404140C009A
:10008300828282C2C2A3928E838A92A2C2C38280D8
:1000930000FC848484FE141090101010FF101000D4
:1000A30080BF909090BF808080A3C080FF808080BD
:1000B300804070CF484800F01010FF1010F8100077
:1000C300828282FFA29280878282FF8282878080DF
:1000D3002021E60000FE829292FE92D282FF02006D
:1000E3008080BF90C8BF80BE929292DE80FF8080E6
:1000F30004242424243FE424243F2424F426040059
:10010300808080808080FF80808488908F80808042
:100113000080402098868080838C9020C08080005F
:10012300818080C0A09F80C080C0BF80808180808C
:10013300202424A4FEA322807000FF00102060006E
:1001430090888681FF808180C0A097888483808087
:1001530000F9022620222AF22222B22202FF020002
:1001630080FF80809F8181FF81919FC180FF80807C
:10017300804070CF484820102CC30C1060C0400052
:10018300808282FFA292808292A2D28A868080801D
:10019300FFFFFFFFFFFFFFFFFFFFFFFFFFFFFFFF6C
:1001A300FFFFFFFFFFFFFFFFFFFFFFFFFFFFFFFF5C
:1001B300F8FC04C424FCF800878F8988888F878023
:1001C300001018FCFC0000008088888F8F888880CE
:1001D300080C84C4643C18008E8F8988888C8C80BA
:1001E300080C444444FCB800848C8888888F87803A
:1001F300C0E0B098FCFC8000808080888F8F88806E
:100203007C7C4444C4C48400848C8888888F878021
:10021300F0F84C4444C08000878F8888888F87809B
:100223000C0C0484C47C3C0080808F8F8080808091
:10023300B8FC444444FCB800878F8888888F878043
:10024300387C444444FCF800808888888C87838009
:10025300E0F0988C98F0E0008F8F8080808F8F8003
:1002630004FCFC4444FCB800888F8F88888F878007
:10027300F0F80C04040C180083878C88888C868023
:1002830004FCFC040CF8F000888F8F888C87838033
:1002930080A0E0C0C0E0A0808082838181838280CF
:1002A30020F8F820F8F82000828F8F828F8F8280C9
:1002B30000000030300000008080808686808080CF
:1002C30000000000000000008080808C8C80808013
:1002D300FFFFFFFFFFFFFFFFFFFFFFFFFFFFFFFF2B
:0E0F5A00063A000000000000014000013501D1
:100EAF00D3EF9400EE94004015E4FDFC0DBD00015E
:0E0EBF000CED646E4C70F5EF1F70E51E80E2C6
:010ECD002202
:0A0EE500FF120EEFEC24402D2EFF4B
:090EEF00C2A4C2A2D2A48F802289
:090EF8008C82758300120C9AFF34
:090F0100C2A4D2A2D2A48F802266
:100D7F00120DC2C2A0D2A17A0079D37D187BFFE4F5
:010D8F00FF64
:080D90008F0C8B0D8A0E890FF8
:100D9800E4FCECC3941040077510017EF08004E475
:100DA800F510FEE51024B8250C120EE5AB0DAA0EC1
:090DB800A90F120EF80CBC20D9A1
:010DC100220F
:100CE900AB2AAA2BA92C120C9A7D2875F010A424E2
:0B0CF900B3F9740135F0FA7BFF7F03B4
:080D04008F308B318A328933F4
:100D0C00E4FCECC3940840077534017EF88004E4DD
:100D1C00F534FEE53024B82534120EE5AB31AA3299
:090D2C00A933120EF80CBC10D919
:010D3500229B
:100E6A007580FFC2A0C2A1D2A4C2A37F3E120EEF18
:100E7A000F120EEF7FC0120EEF7FB8120EEF7F40F7
:030E8A00020EEF66
:100DC200E4FEEE24B8FF120EEFC2A0D2A1E4FDE4CD
:100DD200FF120F010DBD40F7D2A0C2A1E4FDE4FF56
:0B0DE200120F010DBD40F70EBE08D738
:010DED0022E3
:100A4E00C2A0D2A17A0079737D10120D8C7BFF7A31
:100A5E000079937D28E4FF120D907BFF7A0179D304
:100A6E007D107F03120D047BFF7A0179B37D187F11
:100A7E0003120D047BFF7A0079137D307F03120D74
:100A8E00907BFF7A0279B37D387F06120D04D2A0D7
:100A9E00C2A17BFF7A0079937D08E4FF120D907B53
:100AAE00FF7A0079B37D20E4FF120D907BFF7A0070
:100ABE0079337D107F03120D907BFF7A0079537D81
:100ACE00307F03120D907BFF7A0279B37D107F0683
:030ADE00020D0402
:1005B6008B2A8A2B892CC2A0D2A1900002120C9AF7
:1005C6007D20120CF4900003120CE9AB2DAA2EA983
:1005D6002F120C8175F010A424B3F9740135F0FACA
:1005E6007BFF7F06120D04AB2DAA2EA92F900001CA
:1005F600120C9A75F010A424B3F9740135F0FA7B45
:10060600FF7D307F06120D04D2A0C2A1AB2AAA2B11
:10061600A92C900005120C9A75F010A424B3F97455
:100626000135F0FA7BFFE4FD7F03120D04AB2AAA25
:100636002BA92C900006120C9A75F010A424B3F97D
:10064600740135F0FA7BFF7D087F03120D04AB2A97
:10065600AA2BA92C900008120C9A75F010A424B3AA
:10066600F9740135F0FA7BFF7D207F03120D0490AB
:100676000009120CE9AB2DAA2EA92F900003120C2B
:100686009A75F010A424B3F9740135F0FA7BFFE4EF
:10069600FD7F06120D04AB2DAA2EA92F9000041281
:1006A6000C9A75F010A424B3F9740135F0FA7BFFA7
:1006B6007D087F06120D04AB2DAA2EA92F900006E9
:1006C600120C9A75F010A424B3F9740135F0FA7B74
:1006D600FF7D187F06120D04AB2DAA2EA92F9000C0
:1006E60007120C9A75F010A424B3F9740135F0FAC8
:0906F6007BFF7D207F06020D044C
:1009A3008B2A8A2B892CC2A0D2A1900002120C9A06
:1009B30075F010A424B3F9740135F0FA7BFF7D20A0
:1009C3007F03120D04AB2AAA2BA92C900003120C4F
:1009D300EFD2A0C2A1AB2AAA2BA92C900005120C1E
:1009E3009A75F010A424B3F9740135F0FA7BFFE48F
:1009F300FD7F03120D04AB2AAA2BA92C900006122B
:100A03000C9A75F010A424B3F9740135F0FA7BFF46
:100A13007D087F03120D04AB2AAA2BA92C90000892
:100A2300120C9A75F010A424B3F9740135F0FA7B13
:100A3300FF7D207F03120D04AB2AAA2BA92C900063
:0B0A430009120CEF7FF47E01020EAFE1
:1007FF008B2A8A2B892CC2A0D2A1120C8175F010E2
:10080F00A424B3F9740135F0FA7BFF7D287F06121B
:10081F000D04AB2AAA2BA92C900001120C9A75F08B
:10082F0010A424B3F9740135F0FA7BFF7D307F06F5
:10083F00120D04D2A0C2A1AB2AAA2BA92C9000039F
:10084F00120C9A75F010A424B3F9740135F0FA7BE9
:10085F00FFE4FD7F06120D04AB2AAA2BA92C9000F2
:10086F0004120C9A75F010A424B3F9740135F0FA40
:10087F007BFF7D087F06120D04AB2AAA2BA92C90B3
:10088F000006120C9A75F010A424B3F9740135F018
:10089F00FA7BFF7D187F06120D04AB2AAA2BA92C19
:1008AF00900007120C9A75F010A424B3F974013557
:1008BF00F0FA7BFF7D207F06120D047FF47E01028C
:0208CF000EAF6A
:1008D1008B2A8A2B892CC2A0D2A1120C8175F0100F
:1008E100A424B3F9740135F0FA7BFF7D287F061249
:1008F1000D04AB2AAA2BA92C900001120C9A75F0B9
:1009010010A424B3F9740135F0FA7BFF7D307F0622
:10091100120D04D2A0C2A1AB2AAA2BA92C900002CD
:10092100120C9A75F010A424B3F9740135F0FA7B16
:10093100FFE4FD7F06120D04AB2AAA2BA92C90001F
:1009410003120C9A75F010A424B3F9740135F0FA6E
:100951007BFF7D087F06120D04AB2AAA2BA92C90E0
:100961000004120C9A75F010A424B3F9740135F047
:10097100FA7BFF7D187F06120D04AB2AAA2BA92C46
:10098100900005120C9A75F010A424B3F974013586
:10099100F0FA7BFF7D207F06120D047FF47E0102B9
:0209A1000EAF97
:100F0A00D2A7D2A600000000C2A700000000C2A615
:010F1A0022B4
:100F1B00C2A6C2A700000000D2A600000000D2A704
:010F2B0022A3
:0B0DEE00120E8D120DF9AF04120E8DD5
:100DF9007FFFD2A700000000D2A60000000030A7A4
:0E0E09000ADFFB120F1B750011C322C2A6D315
:010E170022B8
:0F0F3C00C2A700000000D2A600000000C2A6223B
:0F0F4B00D2A700000000D2A600000000C2A6221C
:100E8D007E08AD061EED6017C2A600EF3392A7EFE8
:100E9D0025E0FF00000000D2A60000000080E3C2A4
:010EAD00A69E
:010EAE002221
:100E18007F08E4FED2A7AD071FED6018EE25E0FEBF
:100E2800C2A600000000D2A600000000A2A7E4337A
:080E3800420680E2C2A6AF06EB
:010E4000228F
:090F6900B2B07FF47E01020EAF6C
:0A0D36008D2A8B2B8A2C892DAC0727
:100D4000120F0A7FA2120DEE120F0A7FA3120E8D50
:100D5000120DF9E4FCECC3952A501E120E18AB2BB1
:100D6000AA2CA92D8C82758300EF120CC7E52A14DA
:0F0D70006C6003120F3C0C80DC120F4B020F1B48
:100ECE00AC05AB07120F0A7FA2120E8D120DF9AFF1
:070EDE0003120DEE020F1BD1
:0206FF008F0862
:100701007B007A0079097D077F02120D36E50FC45F
:10071100540FF512E50F540FF513E50EC45401F50E
:1007210015E50E540FF516E50CC45403F518E50C48
:10073100540FF519E50BC45403F51AE50B540FF5E5
:100741001BE50AC4540FF51DE50A5407F51EE5091A
:10075100C4540FF520E509540FF521E53EC4F854C2
:10076100F0C8E53FC4540F48F522E53F540FF52387
:10077100E53CC4F854F0C8E53DC4540F48F524E500
:100781003D540FF525E53AC4F854F0C8E53BC4548F
:100791000F48F526E53B540FF527E509B53B19E46C
:1007A100B53A15E50AB53D10E4B53C0CE50BB53F8E
:1007B10007E4B53E03754001E5406003120F69E5AA
:1007C100087010F52D752E00752F1AFB7A0079101F
:1007D1001205B6E508B401097B007A007910120907
:1007E100A3E508B402097B007A00791A1207FFE534
:0D07F10008B403097B007A0079221208D1B8
:0107FE0022D8
:090E4100750B187B03E4FD7F0131
:100E4A00AE07AF03EE24FF92A0ED24FF92A17BFF31
:100E5A007A017993AD0B120D907FF47E01020EAFE9
:100BFE007590F08590385338F0E538C4540F44F0B2
:100C0E00F4F538B40105E4F539801CE538B4020575
:100C1E007539018012E538B404057539028008E58E
:100C2E0038B4080375390375900F85903853380F13
:100C3E00E53844F0F4F538B40105853939801DE501
:100C4E0038B4020474048010E538B40404740880C7
:100C5E0007E538B40806740C2539F539E538601205
:100C6E0075900F85903853380FE53844F0F4F53809
:030C7E0080EA22E7
:1002E3007590F07F057E00120EAFE59064F0700309
:1002F3000205B5120BFEE53990000393640A60030F
:10030300020387120D7F7BFF7A0079F37D28E4FFD8
:10031300120D907BFF7A0179D37D107F03120D04B8
:100323007BFF7A0179B37D187F03120D047BFF7A7B
:100333000079137D307F03120D90D2A0C2A17BFF01
:100343007A007913E4FDFF120D907BFF7A00793375
:100353007D10E4FF120D907BFF7A0079537D20E43A
:10036300FF120D907BFF7A0079337D107F03120D0E
:10037300907BFF7A0079537D307F03120D907537A0
:1003830001753501E53990000393640B705A120D22
:100393007F7BFF7A0079F37D28E4FF120D907BFFCA
:1003A3007A0279B37D387F06120D04D2A0C2A17BF5
:1003B300FF7A007993E4FDFF120D907BFF7A0179B8
:1003C300137D10E4FF120D907BFF7A0179337D20BA
:1003D300E4FF120D907BFF7A0279B37D107F061242
:1003E3000D04753702753501E53990000393640CEC
:1003F300704B120D7F7BFF7A0079F37D28E4FF12A7
:100403000D907BFF7A0279B37D387F06120D04D2FB
:10041300A0C2A17BFF7A017953E4FDFF120D907B0B
:10042300FF7A0179737D10E4FF120D907BFF7A024E
:1004330079B37F06120D04753703753501E53990DD
:10044300000393B40D0B120DC2120A4EE4F537F5F7
:1004530040E53990000393FFB40E0C1535E535C321
:1004630094015003753503EFB40F0C0535E535D30F
:1004730094034003753501E53764017060E535B4D5
:100483000117EFC3940A5011E536C454F0F536EF63
:100493004236AD367F08120ECEE535B4021DE5397E
:1004A30090000393FFC3940A5011E536C454F0F54A
:1004B30036EF4236AD367F07120ECEE535B4031D57
:1004C300E53990000393FFC3940A5011E536C454F1
:1004D300F0F536EF4236AD367F05120ECEE53764C2
:1004E300027066E535B4011DE53990000393FFC33F
:1004F300940A5011E536C454F0F536EF4236AD3662
:100503007F04120ECEE535B4021DE5399000039346
:10051300FFC3940A5011E536C454F0F536EF423662
:10052300AD367F03120ECEE535B4031DE5399000D9
:100533000393FFC3940A5011E536C454F0F536EF24
:100543004236AD367F02120ECEE53764037063E5A3
:1005530035B4011CE53990000393FFC3940A50108E
:10056300E536C454F0F536EF4236753E0085363F26
:10057300E535B4021CE53990000393FFC3940A5098
:1005830010E536C454F0F536EF4236753C00853637
:100593003DE535B4031CE53990000393FFC3940A8A
:1005A3005010E536C454F0F536EF4236753A0085FF
:0305B300363B22B2
:100AE100E5376401702CE535B4010C750B207B03EF
:100AF1007D01E4FF120E4AE535B4020BE4F50B7BF0
:100B010003FD7F01120E4AE535B40306750B201271
:100B11000E44E53764027029E535B4010C750B28E4
:100B21007B067D01E4FF120E4AE535B4020BE4F5C4
:100B31000B7B06FD7F01120E4AE535B40303120E4D
:100B410041E53764037029E535B4010C750B287B49
:100B5100067D01E4FF120E4AE535B4020BE4F50B04
:100B61007B06FD7F01120E4AE535B40303120E41E7
:010B71002261
:090F7200120E6A120DC2020A4EB1
:100F2C00120F72AF371206FF1202E3120AE180F3BE
:03000000020B727E
:0C0B7200787FE4F6D8FD758140020BB9D5
:100C8100BB010689828A83E0225002E722BBFE0271
:090C9100E32289828A83E49322A4
:100C9A00BB010CE58229F582E5833AF583E022500F
:100CAA0006E92582F8E622BBFE06E92582F8E22259
:0D0CBA00E58229F582E5833AF583E4932273
:100CC700F8BB010DE58229F582E5833AF583E8F063
:100CD700225006E92582C8F622BBFE05E92582C80F
:020CE700F222F7
:100B7E00020F2CE493A3F8E493A34003F68001F252
:100B8E0008DFF48029E493A3F85407240CC8C33378
:100B9E00C4540F4420C8834004F456800146F6DF47
:100BAE00E4800B0102040810204080900F5AE47E6E
:100BBE00019360BCA3FF543F30E509541FFEE4933C
:100BCE00A360010ECF54C025E060A840B8E493A303
:100BDE00FAE493A3F8E493A3C8C582C8CAC583CA2E
:100BEE00F0A3C8C582C8CAC583CADFE9DEE780BEE6
:010F68000088
:00000001FF
