:10018600101C596F7520507265737365642069740D
:10019600210011094E6F77207468652055756D3AF8
:0801A6002020202000011A8036
:1001F900EF1FAA0670011E4A600FE4FDEDC394FAD1
:0902090050EE000000000D80F32E
:0102120022C9
:100241007580FFC2A0D2A1C2A2C2A2D2A2E5802023
:05025100E7FBAF802275
:07022B00E4FC7F381202130E
:0E0232007FB07E15EF1FAC0670011E4C70F6FB
:01024000229B
:10025600AE071202418E80D2A0C2A1C2A2C2A2D211
:04026600A2C2A2226C
:10021300AE07ED4C60031202418E80C2A0C2A1C2A0
:08022300A2C2A2D2A2C2A222D3
:0D026A00D2A0D2A1C2A2C2A2D2A2AF802215
:07028100EF4480FF020213AD
:10015D00E4F580FD12022C12022B12022B0D7C00F5
:10016D007F381202137F081202137F011202137FD0
:09017D00061202137F0C020213AA
:0901AF00251BF8E6FBE4FDAF1B83
:1001B800AE0753050153060FED600343064043069F
:0E01C80080AF06E4FDFC120213AF03020256E4
:0A027700758801D2A8D2B8D2AF22D8
:1001D60012015D12027720B411E4F51B741C1201A2
:1001E600AF051BE51BC3940F40F27F647E0012012E
:0301F600F980E3AA
:03000300020006F2
:10000600C0E0C0D075D000C000C003C004C005C0A9
:1000160006C007C2AF00000000000000000000A2FA
:10002600B230B301B3403CE51AB4FF05751AFF8040
:1000360002051AE51AC4540FF508D394094004744E
:1000460037800274302508F508850815E51A540F1F
:10005600F508D3940940047437800274302508F5F6
:10006600088041A2B3B330B201B3403BE51A700435
:10007600F51A8002151AE51AC4540FF508D3940927
:1000860040047437800274302508F508850815E5A4
:100096001A540FF508D3940940047437800274305B
:1000A6002508F508850816751B0074091201AF05A9
:1000B6001BE51BC3941040F2D2AFD007D006D00583
:0B00C600D004D003D000D0D0D0E03236
:030000000200D12A
:0C00D100787FE4F6D8FD75812B02011841
:1000DD000201D6E493A3F8E493A34003F68001F262
:1000ED0008DFF48029E493A3F85407240CC8C33324
:1000FD00C4540F4420C8834004F456800146F6DFF3
:10010D00E4800B0102040810204080900186E47EFB
:10011D00019360BCA3FF543F30E509541FFEE493E7
:10012D00A360010ECF54C025E060A840B8E493A3AE
:10013D00FAE493A3F8E493A3C8C582C8CAC583CAD9
:10014D00F0A3C8C582C8CAC583CADFE9DEE780BE91
:0101AE000050
:00000001FF
