:0309750001080076
:1008DB00E509C39408502FE509B40703E4F509E5CE
:1008EB00086017AF097401A807088002C333D8FC4E
:1008FB00F4F5A07F1E12095D8008C374079509F5F6
:07090B000922050980CA2240
:10091200E509C39408502FE509B40703E4F509E596
:10092200087017AF097480A807088002C313D8FCA7
:10093200F4F5A07F1E12095D8008C374079509F5BE
:070942000922050980CA2209
:1009490012096EE5087003120912E508B401F412E0
:0409590008DB80EF48
:0300030002088C64
:10088C00C0E0C0F0C083C082C0D075D000C000C032
:10089C0001C002C003C004C005C006C00720B214CA
:1008AC007F0A12095D30B2FD7F0A12095DE508046A
:1008BC005401F508D007D006D005D004D003D002DF
:0F08CC00D001D000D0D0D082D083D0F0D0E03295
:10095D00AE071FEE600A7E0C7DA9DDFEDEFC80F089
:01096D002267
:07096E00D288D2A8D2AF220B
:03000000020800F3
:0C080000787FE4F6D8FD758109020847F6
:10080C00020949E493A3F8E493A34003F68001F2B0
:10081C0008DFF48029E493A3F85407240CC8C333ED
:10082C00C4540F4420C8834004F456800146F6DFBC
:10083C00E4800B0102040810204080900975E47ECE
:10084C00019360BCA3FF543F30E509541FFEE493B1
:10085C00A360010ECF54C025E060A840B8E493A378
:10086C00FAE493A3F8E493A3C8C582C8CAC583CAA3
:10087C00F0A3C8C582C8CAC583CADFE9DEE780BE5B
:01097800007E
:00000001FF
