:020000040800F2
:10000000780C0020010100080D540008F14600089A
:10001000F9520008810B0008556500080000000037
:100020000000000000000000000000008D590008E2
:10003000850B0008000000004D590008E559000834
:100040001B0100081B0100081B0100081B01000820
:100050001B0100081B0100081B0100081B01000810
:100060001B0100081B010008950B00081B0100087C
:100070001B0100081B0100081B0100081B010008F0
:100080001B0100081B0100081B0100081B010008E0
:100090001B0100081B0100081B0100081B010008D0
:1000A0001B010008815A00081B0100081B01000801
:1000B000915A00081B010008A15A00081B01000802
:1000C0001B0100081B0100081B0100081B010008A0
:1000D0001B010008C5640008356500084565000877
:1000E000890B00081B0100081B010008DFF80CD079
:1000F00000F08EFC00480047A9670008780C00203B
:100100000648804706480047FEE7FEE7FEE7FEE7B1
:10011000FEE7FEE7FEE7FEE7FEE7FEE77D5A0008A2
:10012000ED000008D2B201E000F8012B491EFBD21D
:1001300070470022F6E710B513460A4604461946F2
:10014000FFF7F0FF204610BD421C10F8011B0029EC
:10015000FBD1801A7047F0B480EA0102D40F42004C
:10016000B2EB410F02D20246084611464A0042D085
:10017000C30DDDB2C1F3C752AD1A202D35DAC1F37C
:10018000160141F4000204B15242C5F1200602FA00
:1001900006F12A411044B3EBD05F23D0C4B1012D46
:1001A000A0EBC35009DCF0BC4FF0004202EAC3529E
:1001B000DBB200F5000000F070BB400000F1807081
:1001C00000EBC350A0F1807040EAD170490009E013
:1001D000490841EAC071A0EBC35000F50000400897
:1001E00000EBC350F0BC00F04FBB6142012202EBB8
:1001F0004101001BF6E7F0BC704781F00041AAE71F
:1002000080F00040A7E780EA010210B502F0004349
:10021000400022D04A001FD0010E01EB1261C0F352
:100220005600C2F3560240F4000042F40002A0FB64
:10023000022000047F39140400D0401C50EA124010
:1002400001D44000491EC2B20C0604EBD010401C81
:100250004008802A02D003E0002010BD20F00100F9
:10026000002900DA0020184310BD30B480EA0102F2
:1002700002F0004530F0004221F0004013D090B170
:10028000C30DD40DC2F31601C0F31600E41A41F4F5
:10029000000140F400027D34914201D3641C00E06F
:1002A0004900002C02DA30BC002070474FF40000F7
:1002B0000023914201D3891A034340084FEA4101C8
:1002C000F7D151B1914202D14FF0004105E002D285
:1002D0004FF0010101E06FF0010103EBC45028442D
:1002E00030BC00F0D1BA2DE9FE4F804681EA030010
:1002F000C00F0C46009021F0004123F00045B8EB00
:100300000200A94105D24046214690461C460B46B4
:10031000024623F00040104347D0270DC7F30A00E0
:10032000C3F30A510290401A019040286BDAC3F3DC
:10033000130040F4801B0098924620B10023D2EBBA
:10034000030A63EB0B0B01985946C0F1400250467B
:1003500000F069FA06460D4650465946019A00F0EB
:1003600081FA10EB08006141002487EA115284EA07
:10037000E7731A4340D0009A62B3019A012A4FEA08
:10038000075215DC001B61EB02014FF0004202EA4C
:100390000752CDE90042001C41F5801132462B4640
:1003A00000F0B8FA03B0BDE8F08F40462146F9E707
:1003B000001B61EB0201001C41F5801300185B413A
:1003C0002018A2F5001747EB030140EAD570B619D3
:1003D0006D4111E06D084FEA360645EAC0754FEAF7
:1003E0000752001B61EB0201001C41F58011490816
:1003F0004FEA30000019514132462B4603B0BDE8A8
:10040000F04F00F078BA0098012240000023D0EBB2
:10041000020263EBE073009821464FEAE074B8EB08
:10042000000061EB0401E9E783F000435BE781F042
:10043000004158E72DE9FE4F81EA030404F000442F
:1004400021F0004100944FF0000B23F0004350EAEC
:1004500001045ED052EA03045BD0C3F30A54C1F333
:100460000A552C44A4F2F3340194A0FB0254C1F3C6
:10047000130141F48011C3F3130343F4801301FB10
:10048000024400FB034E840A970A44EA815447EA77
:100490008357A4FB076802958D0A05FB07854FEA81
:1004A000932C04FB0C542705029D4FEA065847EA9B
:1004B0001637B5EB08056EEB070C870E920E47EA70
:1004C000811742EA8312A7FB0201B6EB0B0164EB32
:1004D00000042B0D43EA0C335E1844EB1C50DA4643
:1004E0005146E7FB0201C5F313044FEA0B3343EA1D
:1004F00014534FEA0432019C43EA0603A4F10C04AE
:100500000294009CCDE900B400F004FA03B0BDE809
:10051000F08F00200146F9E72DE9F04D81EA030450
:1005200004F0004B21F0004514464FF0000A23F080
:10053000004150EA050220D054EA01021DD0C5F363
:100540000A570246C5F31303C1F31300C1F30A5659
:1005500040F4801543F48013A7EB0608101BD64621
:1005600008F2FD3873EB050002D308F1010801E041
:1005700092185B41B8F1000F03DA00200146BDE894
:10058000F08D00204FF48011064684460EE0171BC4
:1005900073EB050705D3121B63EB050306434CEA17
:1005A000010C49084FEA300092185B4150EA0107FC
:1005B000EDD152EA030012D082EA040083EA050179
:1005C000084305D0101BAB4106D20122002306E0F0
:1005D00000224FF0004302E06FF0010253101AEBCB
:1005E00006004CEB085110EB0A0041EB0B01BDE893
:1005F000F04D00F080B9002801DBC0F10040002977
:1006000001DBC1F10041814201D801207047002087
:100610007047002801DBC0F10040002901DBC1F177
:100620000041814201D2012070470020704700281C
:1006300001DBC0F10040002901DBC1F10041814232
:1006400001D30120704700207047002801DBC0F172
:100650000040002901DBC1F10041814201D90120A4
:1006600070470020704730B5041E71F1000404DBB0
:100670004FF00044404264EB0101141E73F100048A
:1006800005DB1C464FF00043524263EB0403801A23
:10069000994101D3012030BD002030BD30B5041E8A
:1006A00071F1000404DB4FF00044404264EB0101AF
:1006B000141E73F1000405DB1C464FF00043524248
:1006C00063EB0403101A8B4101D2012030BD0020DE
:1006D00030BDC10F80EAE0700844CA0796230021AC
:1006E00000F0DBB896230022114600F0D6B80EB514
:1006F00040F2334102910021CDE900110A460B4638
:1007000000F008F903B000BD00F0004220F0004006
:10071000C10DC0F3160040F400007F2901DA00206B
:100720007047962903DCC1F19601C84001E0963973
:100730008840002AF4D04042704700F0004230F078
:1007400000400AD0C10D01F56071C0F3160042EA05
:100750000151C2084007114370470020014670470D
:1007600001F0004330B421F0004150EA010206D00C
:100770000A0DA2F56072C1F31301002A02DC30BC3D
:1007800000207047440F44EAC104C100E01830BCA7
:1007900000EBC25000F078B830B50B46014600209F
:1007A0002022012409E021FA02F59D4205D303FA33
:1007B00002F5491B04FA02F52844151EA2F10102B4
:1007C000F1DC30BD2DE9F05F0546002092469B46E6
:1007D00088460646814640241BE028464146474657
:1007E000224600F02FF853465A46C01A914110D3C2
:1007F00011461846224600F016F82D1A67EB01083C
:100800004F4622460120002100F00DF817EB0009A9
:100810004E41201EA4F10104DFDC484631462A4641
:100820004346BDE8F09F202A04DB203A00FA02F19B
:10083000002070479140C2F1200320FA03F31943CE
:1008400090407047202A04DB203A21FA02F0002170
:10085000704721FA02F3D040C2F1200291400843D0
:1008600019467047202A06DBCB17203A41FA02F0DE
:1008700043EAE07306E041FA02F3D040C2F12002FD
:1008800091400843194670470029A8BF7047401C93
:10089000490008BF20F00100704710B4B0FA80FC96
:1008A00000FA0CF050EA010404BF10BC704749B1D3
:1008B000CCF1200421FA04F411FA0CF118BF012143
:1008C00021430843A3EB0C01CB1D4FEA00614FEA23
:1008D000102042BF002010BC704700EBC3501044F2
:1008E0000029A4BF10BC7047401C490008BF20F07D
:1008F000010010BC704710B5141E73F1000408DA33
:10090000401C41F1000192185B411A4301D120F0D3
:10091000010010BD2DE9F04D92469B4611B1B1FA90
:1009200081F202E0B0FA80F220329046FFF77BFFBE
:1009300004460F4640EA0A0041EA0B0153465A4674
:10094000084313D0114653EA010019D0C8F1400200
:100950005046FFF777FF05460E4650465946424639
:10096000FFF761FF084305D0012004E02046394627
:10097000BDE8F08D0020054346EAE0762C4337437E
:100980000A986305E40AA0EB08000022FD0A44EA85
:1009900047540A3002D500200146E9E70105101945
:1009A0006941DDE9084500196941BDE8F04DA2E75C
:1009B000C1F30A52C1F3130140F2FF3341F4801135
:1009C0009A4202DA00200146704740F233439A42CD
:1009D000A2F2334202DC5242FFF734BFFFF723BFDB
:1009E00030B5041E71F1000404DB4FF000444042B6
:1009F00064EB0101141E73F1000405DB1C464FF08B
:100A00000043524263EB0403994208BF904230BD59
:100A10001CB509480090094801900546009C06E075
:100A2000E06840F0010394E8070098471034AC42B6
:100A3000F6D3FFF75FFB0000A88B0008C88B000807
:100A400080B584B002900020019002980068806810
:100A5000C00770B3FFE702980168886820F00100C2
:100A6000886001F027F80190FFE70298006880682D
:100A7000C007E8B1FFE701F01DF80199401A03280B
:100A800015D3FFE7029800688068C00770B1FFE7E0
:100A90000299886A40F0100088620299C86A40F0A2
:100AA0000100C86201208DF80F0006E0FFE7DCE7D7
:100AB000FFE700208DF80F00FFE79DF80F0004B05E
:100AC00080BD000080B584B00290002001900090AD
:100AD000029800688068C007002849D1FFE70298A3
:100AE0000168886840F00100886040F20000C2F2AE
:100AF000000000684DF68361C4F21B31A0FB0110B9
:100B0000800C0090FFE7009820B1FFE700980138C3
:100B10000090F8E700F0CEFF0190FFE70298006830
:100B20008068C00718BBFFE700F0C4FF0199401AB6
:100B300003281BD3FFE7029800688068C007A0B9AC
:100B4000FFE70299886A40F0100088620299C86A3B
:100B500040F00100C862FFE70299002081F82400FC
:100B6000FFE701208DF80F0006E0FFE7D6E7FFE77B
:100B700000208DF80F00FFE79DF80F0004B080BD46
:100B8000FFE7FEE77047000080B54FF4805000F0AB
:100B9000A1FD80BD80B5102000F09CFD80BD00004F
:100BA00081B0EFF3108072B60090FFE7FEE700001F
:100BB00085B00390029100208DF807000090FFE7B8
:100BC000039890F82400012804D1FFE702208DF853
:100BD0001300C3E00399012081F82400FFE7FFE739
:100BE00002984068062812D8FFE703980068406B17
:100BF000029A1168526802EB8202053A1F23934061
:100C000098439140084303990968486329E0029892
:100C100040680C2812D8FFE703980068006B029A1E
:100C20001168526802EB8202233A1F2393409843D3
:100C30009140084303990968086311E0039800682C
:100C4000C06A029A1168526802EB8202413A1F237D
:100C5000934098439140084303990968C862FFE7AD
:100C6000FFE7029800680A2812D3FFE7039800689C
:100C7000C06802990A68896802EB42021E3A07239B
:100C8000934098439140084303990968C86010E075
:100C900003980068006902990A68896802EB4202B9
:100CA00007239340984391400843039909680861DA
:100CB000FFE702980068102805D0FFE70298006857
:100CC000112840D1FFE70398006842F20041C4F2C6
:100CD000010188422DD1FFE7039800688068000277
:100CE000002825D4FFE703980168886840F40000D5
:100CF000886002980068102819D1FFE740F20000D0
:100D0000C2F2000000684DF68361C4F21B31A0FB03
:100D10000110800C00EB800040000090FFE700987D
:100D200020B1FFE7009801380090F8E7FFE7FFE700
:100D300008E00399886A40F02000886201208DF85D
:100D40000700FFE7FFE7FFE70399002081F8240091
:100D5000FFE79DF807008DF81300FFE79DF81300EB
:100D600005B0704781B0009000980068C06C01B079
:100D70007047000080B588B0069000208DF81700FD
:100D8000049003900290069820B9FFE701208DF8A7
:100D90001F00F4E00698806830B1FFE70698007DF8
:100DA00008B1FFE7FFE7FFE70698806A50B9FFE761
:100DB00006990020C862069981F82400069800F080
:100DC000E3F8FFE70698FFF73BFE8DF8170006985B
:100DD000806AC006002800F1C480FFE79DF8170074
:100DE000002840F0BE80FFE70698806A40F00200CD
:100DF00020F488500699886206994868CA691043A9
:100E0000097B40EA410103980843039006988168F2
:100E10000120B1F5807F019008D0FFE70698806837
:100E20000138B0FA80F040090190FFE70199049879
:100E3000CA0740F48071002A18BF0846049006983B
:100E4000007D01281ED1FFE70698007B70B9FFE7FF
:100E5000069881694EF20000CFF6FF7000EB41303A
:100E60000499084340F4006004900AE00699886AF7
:100E700040F0200088620699C86A40F00100C8620C
:100E8000FFE7FFE706980068406820F4694004998E
:100E900008430699096848600698006880684FF220
:100EA000FD71CFF6E171084003990843069909687E
:100EB0008860069881680120B1F5807F009008D095
:100EC000FFE7069880680138B0FA80F0400900908A
:100ED000FFE7009800F00100002818BF4FF4807071
:100EE000B0F5807F09D1FFE7069801690020CFF6B1
:100EF000F07000EB01500290FFE706980068C06AAE
:100F000020F470000299084306990968C86206989F
:100F10000068806840F6FE61CFF61F7108400399B3
:100F200088420CD1FFE706990020C8620698806AC3
:100F300040F0010020F002000699886210E0069857
:100F4000806A40F0100020F002000699886206993D
:100F5000C86A40F00100C86201208DF81700FFE761
:100F600008E00699886A40F01000886201208DF838
:100F70001700FFE79DF817008DF81F00FFE79DF8A9
:100F80001F0008B080BD000080B588B00790002029
:100F900006900590049003900798006842F60001BF
:100FA000C4F2010188422AD1FFE7FFE741F21800AD
:100FB000C4F20200016841F480610160006800F43D
:100FC000806002900298FFE7FFE741F21800C4F248
:100FD0000200016841F004010160006800F00400B3
:100FE00001900198FFE7102003900320049040F641
:100FF0000000C4F2010003A900F088FBFFE708B07D
:1010000080BD000080B58CB00A9009910020089046
:101010000790069000F04EFD08900A9800688068DE
:10102000C00500280FD5FFE70A99886A40F0200024
:101030008862FFE70A99002081F82400FFE7012079
:101040008DF82F001CE10A9800684068C005002850
:1010500038D4FFE70A980068C06A10F4700F31D1E5
:10106000FFE7FFE70A98006800688007002828D497
:10107000FFE70998013018B3FFE7099840B1FFE78F
:1010800000F018FD0899401A0999884217D9FFE71E
:101090000A9800680068800700280FD4FFE70A99C3
:1010A000886A40F004008862FFE70A99002081F80E
:1010B0002400FFE703208DF82F00E1E0FFE7FFE7C2
:1010C000D0E7B0E040F20000C2F2000000680490F7
:1010D000022000F0ADFD01460498B0FBF1F0059050
:1010E0000A980068006944F62411C2F2924108424D
:1010F0002BD1FFE70A980068C06844F62411C0F2BB
:101100009201084221D1FFE70A9800680169002096
:1011100042F29242C1F24922114203900DD1FFE7FF
:101120000A980068C06842F29241C0F24901084042
:10113000B0FA80F040090390FFE70398C107292027
:10114000002918BF1420029039E00A98006800694D
:1011500042F29241C1F2492108420CD1FFE70A98BC
:101160000068C168012042F29242C0F24902114275
:1011700001901CD0FFE70A9800680169002049F23D
:101180004922C0F22402114200900DD1FFE70A98D3
:101190000068C06849F24921C0F224010840B0FA51
:1011A00080F040090090FFE700980190FFE7019868
:1011B000C107FC20002918BF54200290FFE70598C2
:1011C000029948430690FFE707980699884229D27A
:1011D000FFE70998013008B3FFE7099840B1FFE73E
:1011E00000F068FC0899401A0999884215D9FFE770
:1011F0000798069988420FD2FFE70A99886A40F05B
:1012000004008862FFE70A99002081F82400FFE7C4
:1012100003208DF82F0033E0FFE7FFE70798013048
:101220000790D1E7FFE70A9801686FF012000860A5
:101230000A99886A40F4007088620A980068806899
:1012400000F46020B0F5602F16D1FFE70A98007B0C
:1012500090B9FFE70A99886A20F4807088620A983A
:10126000806AC004002806D4FFE70A99886A40F023
:1012700001008862FFE7FFE700208DF82F00FFE7FD
:101280009DF82F000CB080BD80B584B00290002086
:101290008DF80700FFE7029890F82400012804D198
:1012A000FFE702208DF80F00C5E00299012081F8C8
:1012B0002400FFE7FFE70298FFF704FC8DF8070022
:1012C0009DF80700002840F0AA80FFE70298806A96
:1012D00040F4807040F201218843029988620298AC
:1012E000006842F60001C4F20101884209D1FFE71B
:1012F00042F20440C4F20100006810F4702F03D0E1
:1013000018E00020B0B9FFE70299886A20F4801045
:1013100088620298006840684005002809D5FFE708
:101320000298806A40F4805020F40050029988624C
:10133000FFE72CE00299886A40F4801088620298E6
:10134000006842F20041C4F20101884209D0FFE77F
:101350000298006842F60001C4F20101884209D1F6
:10136000FFE742F20440C4F2010000684005002893
:1013700003D40BE0012048B9FFE70298806A40F4EB
:10138000805020F4005002998862FFE7FFE702983E
:10139000806AC004002806D5FFE70299C86A20F0D9
:1013A0000600C86203E002990020C862FFE7FFE779
:1013B0000299002081F82400FFE7029801686FF08D
:1013C0000200086002980068806800F46020B0F5B0
:1013D000602F1CD1FFE70298006842F60001C4F2BA
:1013E0000101884209D1FFE742F20440C4F2010042
:1013F000006810F4702F03D009E0002038B9FFE72F
:1014000002980168886840F4A000886006E00298AD
:101410000168886840F480108860FFE706E0FFE715
:101420000299002081F82400FFE7FFE79DF80700FC
:101430008DF80F00FFE79DF80F0004B080BD00009D
:1014400083B0019000208DF80300019890F82100EE
:1014500002280DD0FFE7019904208863FFE7019976
:10146000002081F82000FFE701208DF80B0021E02B
:1014700001980168086820F00E0008600198016872
:10148000086820F0010008600198C16B026C01201F
:1014900090404860FFE70199012081F82100FFE7B3
:1014A0000199002081F82000FFE79DF803008DF8E6
:1014B0000B00FFE79DF80B0003B0704780B588B0C4
:1014C000079000208DF81B00079890F82100022853
:1014D00007D0FFE707990420886301208DF81B00DF
:1014E00076E007980168086820F00E000860079809
:1014F0000168086820F0010008600798006808216A
:10150000C4F20201884203D1FFE70120059047E0C1
:10151000079800681C21C4F20201884203D1FFE74A
:101520001020049039E0079800683021C4F20201CD
:10153000884204D1FFE74FF4807003902AE00798B7
:1015400000684421C4F20201884204D1FFE74FF44D
:10155000805002901BE0079800685821C4F20201F5
:10156000884204D1FFE74FF4803001900CE00798E7
:1015700001686C22C4F202024FF08070914208BFF1
:101580004FF480100190FFE701980290FFE7029866
:101590000390FFE703980490FFE704980590FFE7A6
:1015A00005980421C4F2020108600799012081F81E
:1015B0002100FFE70799002081F82000FFE7079846
:1015C000406B20B1FFE70798416B8847FFE7FFE7D3
:1015D0009DF81B0008B080BD80B584B0039000F07A
:1015E00069FA0290039801900198013048B1FFE731
:1015F00040F20800C2F2000001780198084401900E
:10160000FFE7FFE700F056FA0299401A0199884275
:1016100001D2FFE7F6E704B080BD000080B582B0DC
:10162000ADF80600BDF8060010282ED1FFE70A200D
:10163000FFF7D2FF40F60040C4F20100102100F095
:10164000F5F9012820D1FFE740F2B010C2F2000006
:101650000078062807D1FFE740F2B011C2F200017E
:101660000120087007E040F2B011C2F200010878D2
:1016700001300870FFE741F20000C4F201004FF4AE
:10168000005100F0EBF9FFE7FFE7BDF80600B0F509
:10169000805F1DD1FFE70A20FFF79EFF40F60000A4
:1016A000C4F201004FF4805100F0C0F978B9FFE7AF
:1016B00040F2B011C2F200010020087041F20000B7
:1016C000C4F201004FF4005100F0C8F9FFE7FFE752
:1016D00002B080BD80B582B0ADF8060040F2144083
:1016E000C4F201000068BDF8061008420CD0FFE704
:1016F000BDF8060040F21441C4F201010860BDF8D3
:101700000600FFF78BFFFFE702B080BD90B00F909F
:101710000E9100200D900990FFE70E9800680D993A
:10172000C840002800F07F81FFE70D990120884024
:101730000C900E9800680C9908400B900B980C992F
:10174000884240F06C81FFE70E98406805900028C1
:1017500051D0FFE7059801283AD0FFE70598022805
:101760003FD0FFE7059803285FD0FFE705981128D1
:1017700032D0FFE70598122838D0FFE705980021FE
:10178000C1F21101884236D0FFE705980021C1F26D
:10179000120188422FD0FFE705980021C1F22101F4
:1017A000884228D0FFE705980021C1F22201884233
:1017B00021D0FFE705980021C1F2310188421AD0FB
:1017C000FFE705980021C1F23201884213D02FE0D3
:1017D0000E98C06809902CE00E98C06804300990FB
:1017E00027E00E98C0680830099022E00E98C06883
:1017F0000C3009901DE00E98806818B9FFE70420AE
:10180000099011E00E988068012806D1FFE70820B2
:1018100009900C980F99086105E0082009900C9830
:101820000F994861FFE7FFE703E00020099000E01F
:10183000FFE70B98FF2803D8FFE70F98049003E019
:101840000F9804300490FFE7049808900B98FF2845
:1018500004D8FFE70D988000039006E00D996FF023
:101860001F0000EB81000390FFE7039807900898A2
:101870000068079A0F2191408843099991400843D5
:10188000089908600E98C079C006002840F1C6800B
:10189000FFE7FFE741F21800C4F20200016841F0DF
:1018A00001010160006800F0010006900698FFE762
:1018B0000D9820F003000821C4F2010140580A905D
:1018C0000D9800F0030081000F2000FA01F10A9842
:1018D00088430A900F9840F60001C4F20101884243
:1018E00003D1FFE70020029026E00F9840F6004168
:1018F000C4F20101884203D1FFE70120019018E002
:101900000F9841F20001C4F20101884203D1FFE7C0
:10191000022000900AE00F9941F20042C4F2010255
:101920000420914208BF03200090FFE70098019037
:10193000FFE701980290FFE702980D9901F003017B
:10194000890000FA01F10A9808430A900A980D9953
:1019500021F003010822C4F2010288500E98807918
:10196000C006002809D5FFE70B9A40F20841C4F2EF
:10197000010108681043086008E00B9A40F2084132
:10198000C4F20101086890430860FFE70E9880796F
:101990008006002809D5FFE70B9A40F20C41C4F2FB
:1019A000010108681043086008E00B9A40F20C41FE
:1019B000C4F20101086890430860FFE70E9880793F
:1019C0008007002809D5FFE70B9A40F20441C4F2D2
:1019D000010108681043086008E00B9A40F20441D6
:1019E000C4F20101086890430860FFE70E9880790F
:1019F000C00748B1FFE70B9A40F20041C4F2010171
:101A000008681043086008E00B9A40F20041C4F2F5
:101A10000101086890430860FFE7FFE7FFE70D98C2
:101A200001300D9079E610B07047000082B001904F
:101A3000ADF8021001988068BDF80210084204D089
:101A4000FFE701208DF8010003E000208DF8010080
:101A5000FFE79DF8010002B07047000083B00290DC
:101A6000ADF806100298C0680090009ABDF8060014
:101A700002EA0001904340EA01400299086103B084
:101A80007047000082B00190ADF802108DF801207F
:101A90009DF8010028B1FFE7BDF802000199086137
:101AA00005E0BDF80200000401990861FFE702B0FB
:101AB0007047000040F27040C2F2000000687047BA
:101AC00040F20800C2F20000027840F27041C2F217
:101AD00000010868104408607047000080B542F2B9
:101AE0000001C4F20201086840F010000860032001
:101AF00000F096F8012000F005F800F03BF8002017
:101B000080BD000080B582B0009040F20000C2F2BB
:101B10000000006840F20801C2F200010A784FF4A8
:101B20007A71B1FBF2F1B0FBF1F000F023FF20B1CC
:101B3000FFE701208DF8070018E000980F280DD866
:101B4000FFE700994FF0FF30002200F04FF80098B7
:101B500040F20C01C2F20001086003E001208DF8A0
:101B6000070003E000208DF80700FFE79DF807005D
:101B700002B080BD83B0FFE741F21800C4F202005A
:101B8000016841F001010160006800F0010002906D
:101B90000298FFE7FFE741F21C00C4F2020001686F
:101BA00041F080510160006800F080500190019880
:101BB000FFE7FFE70421C4F20101086800900098E4
:101BC00020F0E0600090009840F0007000900098D5
:101BD0000860FFE703B0704780B582B08DF807005A
:101BE0009DF9070004F048FD02B080BD80B586B0C5
:101BF0008DF81700049103920020029004F054FD28
:101C000002909DF91700019002980499039A03F03D
:101C1000FFFB0146019804F04FFD06B080BD0000B7
:101C200080B582B00190019804F068FD02B080BDDB
:101C300080B588B00790002006900590049003902E
:101C4000029007980190012866D0FFE701980228CA
:101C500000F0A580FFE70198102840F0B080FFE772
:101C600041F20400C4F202000068039041F2000057
:101C7000C4F202000068C00100284CD5FFE70398B9
:101C8000C0F3834148F6FC20C0F60000405C04909D
:101C90009DF80E00C007F0B1FFE741F20400C4F266
:101CA00002000068C0F3404148F60C30C0F6000066
:101CB000405C06909DF80E00C00758B1FFE70699FA
:101CC00041F20020C0F27A00B0FBF1F004994843E1
:101CD0000590FFE707E0049840F60011C0F23D01CF
:101CE00048430590FFE741F20400C4F20200006897
:101CF0004002002803D5FFE7059802900AE0059806
:101D000040004AF6AB21CAF6AA21A0FB0110400808
:101D10000290FFE7FFE753E041F22000C4F2020027
:101D200000680390039800F44070B0F5807F0AD1FA
:101D3000FFE79DF80C008007002804D5FFE74FF46B
:101D4000004002902AE0039800F44070B0F5007F54
:101D50000DD1FFE741F22400C4F2020000688007C1
:101D6000002804D5FFE749F64040029015E00398AB
:101D700000F44070B0F5407F0DD1FFE741F2000064
:101D8000C4F2020000688003002804D5FFE74FF288
:101D90002440029000E0FFE7FFE7FFE710E000F0DB
:101DA0003BFA41F20401C4F20201096801F4404225
:101DB000022101EB5231B0FBF1F0029000E0FFE7AD
:101DC000029808B080BD000080B586B00490002065
:101DD0000390029004980078C007002800F0AC80BF
:101DE000FFE700208DF8070041F21C00C4F202005A
:101DF0000068C000002813D4FFE7FFE741F21C0091
:101E0000C4F20200016841F080510160006800F0F6
:101E1000805000900098FFE701208DF80700FFE751
:101E200047F20000C4F200000068C005002822D478
:101E3000FFE747F20001C4F20001086840F4807037
:101E40000860FFF737FE0390FFE747F20000C4F297
:101E500000000068C00500280CD4FFE7FFF72AFE49
:101E60000399401A652804D3FFE703208DF8170073
:101E70008AE0EAE7FFE741F22000C4F202000068CE
:101E800000F4407002900298E0B3FFE702980499D2
:101E9000496801F44071884234D0FFE741F22001E3
:101EA000C4F20201086820F44070029040F24042FF
:101EB000C4F24222012010600020106002980860E5
:101EC0009DF80800C007E0B1FFE7FFF7F3FD0390BE
:101ED000FFE741F22000C4F20200006880070028FA
:101EE0000ED4FFE7FFF7E6FD0399401A41F289316E
:101EF000884204D3FFE703208DF8170044E0E8E7A9
:101F0000FFE7FFE741F22001C4F20201086820F474
:101F10004070049A5268104308609DF80700012839
:101F200009D1FFE741F21C01C4F20201086820F068
:101F300080500860FFE7FFE70498007880070028DA
:101F40000CD5FFE741F20401C4F20201086820F455
:101F50004040049A926810430860FFE704980078B4
:101F6000C00600280CD5FFE741F20401C4F20201CB
:101F7000086820F48000049AD26810430860FFE7E4
:101F800000208DF81700FFE79DF8170006B080BD10
:101F900080B584B002900191029820B9FFE701203A
:101FA0008DF80F001BE1019842F20001C4F202011A
:101FB000096801F00701884216D9FFE742F20000E4
:101FC000C4F20200016821F00701019A1143016087
:101FD000006800F007000199884204D0FFE7012063
:101FE0008DF80F00FBE0FFE70298007880070028DB
:101FF0002AD5FFE7029800784007002809D5FFE7B7
:1020000041F20401C4F20201086840F4E060086093
:10201000FFE7029800780007002809D5FFE741F2A2
:102020000401C4F20201086840F460500860FFE750
:1020300041F20401C4F20201086820F0F000029AA3
:10204000926810430860FFE702980078C0070028F4
:1020500060D0FFE70298406801280ED1FFE741F207
:102060000000C4F2020000688003002804D4FFE7E7
:1020700001208DF80F00B2E021E0029840680228AC
:102080000ED1FFE741F20000C4F2020000688001B7
:10209000002804D4FFE701208DF80F009FE00DE039
:1020A00041F20000C4F2020000688007002804D456
:1020B000FFE701208DF80F0091E0FFE7FFE741F215
:1020C0000401C4F20201086820F00300029A526879
:1020D00010430860FFF7EEFC0090FFE741F20400B8
:1020E000C4F20200006800F00C0002994968B0EBED
:1020F000810F0ED0FFE7FFF7DDFC0099401A41F297
:102100008931884204D3FFE703208DF80F0066E091
:10211000E4E7FFE7019842F20001C4F20201096816
:1021200001F00701884216D2FFE742F20000C4F234
:102130000200016821F00701019A11430160006863
:1021400000F007000199884204D0FFE701208DF8D4
:102150000F0044E0FFE702980078400700280CD504
:10216000FFE741F20401C4F20201086820F4E060D4
:10217000029AD26810430860FFE7029800780007CF
:1021800000280DD5FFE741F20401C4F202010868FE
:1021900020F46050029A126940EAC2000860FFE72A
:1021A00000F04CF841F20401C4F202010968C9B21E
:1021B0000A0948F2CC21C0F60001895CC84040F20F
:1021C0000001C2F20001086040F20C00C2F20000FF
:1021D0000068FFF797FC00208DF80F00FFE79DF8DF
:1021E0000F0004B080BD000040F20000C2F2000009
:1021F0000068704780B5FFF7F7FF41F20401C4F2B1
:1022000002010968C1F3022248F2DC21C0F6000194
:10221000895CC84080BD000080B5FFF7E5FF41F252
:102220000401C4F202010968C1F3C22248F2DC21B0
:10223000C0F60001895CC84080BD000086B0002067
:102240000590049003900290019041F20400C4F2C2
:10225000020000680590059800F00C00014600910E
:1022600000283FD0FFE70098042804D0FFE700983B
:10227000082806D037E041F20020C0F27A00019031
:1022800037E00598C0F3834148F60E30C0F60000F1
:10229000405C02909DF81600C007C0B1FFE741F214
:1022A0000400C4F202000068C0F3404148F61E304A
:1022B000C0F60000405C0490029841F20021C0F298
:1022C0007A0148430499B0FBF1F0039007E00298CB
:1022D00040F60011C0F23D0148430390FFE7039828
:1022E000019006E0FFE741F20020C0F27A00019081
:1022F000FFE7019806B0704780B586B00490049857
:1023000020B9FFE701208DF817002EE3049800782C
:10231000C007002800F0AE80FFE741F20400C4F2DD
:102320000200006800F00C00042813D0FFE741F21F
:102330000400C4F20200006800F00C0008281BD161
:10234000FFE741F20400C4F202000068C003002865
:1023500012D5FFE741F20000C4F2020000688003DA
:10236000002808D5FFE70498406820B9FFE701205E
:102370008DF81700F9E27CE0FFE704984068B0F5BB
:10238000803F09D1FFE741F20001C4F20201086871
:1023900040F48030086032E00498406868B9FFE794
:1023A00041F20001C4F20201086820F480300860A4
:1023B000086820F48020086020E004984068B0F5A8
:1023C000A02F0DD1FFE741F20001C4F2020108681D
:1023D00040F480200860086840F4803008600CE019
:1023E00041F20001C4F20201086820F48030086064
:1023F000086820F480200860FFE7FFE7FFE7FFE7B9
:1024000004984068D0B1FFE7FFF754FB0390FFE763
:1024100041F20000C4F202000068800300280CD4DE
:10242000FFE7FFF747FB0399401A652804D3FFE74E
:1024300003208DF8170098E2EAE719E0FFF73AFB6E
:102440000390FFE741F20000C4F20200006880033D
:1024500000280CD5FFE7FFF72DFB0399401A6528EC
:1024600004D3FFE703208DF817007EE2EAE7FFE7D9
:10247000FFE7FFE7049800788007002840F18D808F
:10248000FFE741F20400C4F20200006810F00C0FF4
:1024900013D0FFE741F20400C4F20200006800F02C
:1024A0000C00082829D1FFE741F20400C4F2020021
:1024B0000068C003002820D4FFE741F20000C4F206
:1024C000020000688007002809D5FFE7049800692A
:1024D000012804D0FFE701208DF8170045E241F202
:1024E0000001C4F20201086820F0F800049A526961
:1024F00040EAC2000860FFE74EE00498006958B364
:10250000FFE70021C4F2422101200860FFF7D2FA60
:102510000390FFE741F20000C4F202000068800768
:1025200000280CD4FFE7FFF7C5FA0399401A0328E7
:1025300004D3FFE703208DF8170016E2EAE741F223
:102540000001C4F20201086820F0F800049A526900
:1025500040EAC20008601EE00021C4F242210020CF
:102560000860FFF7A7FA0390FFE741F20000C4F20A
:1025700002000068800700280CD5FFE7FFF79AFAF1
:102580000399401A032804D3FFE703208DF81700AE
:10259000EBE1EAE7FFE7FFE7FFE7049800780007D1
:1025A000002848D5FFE70498806918B3FFE740F298
:1025B0008041C4F2422101200860FFF77BFA0390BA
:1025C000FFE741F22400C4F20200006880070028FF
:1025D0000CD4FFE7FFF76EFA0399401A032804D3DF
:1025E000FFE703208DF81700BFE1EAE7012003F0C1
:1025F000AFF91FE040F28041C4F2422100200860A0
:10260000FFF758FA0390FFE741F22400C4F20200FA
:102610000068800700280CD5FFE7FFF74BFA039905
:10262000401A032804D3FFE703208DF817009CE12C
:10263000EAE7FFE7FFE7049800784007002840F149
:10264000D880FFE700208DF8070041F21C00C4F29B
:1026500002000068C000002813D4FFE7FFE741F242
:102660001C00C4F20200016841F080510160006862
:1026700000F0805000900098FFE701208DF80700DF
:10268000FFE747F20000C4F200000068C005002820
:1026900022D4FFE747F20001C4F20001086840F4C9
:1026A00080700860FFF706FA0390FFE747F200002A
:1026B000C4F200000068C00500280CD4FFE7FFF753
:1026C000F9F90399401A652804D3FFE703208DF830
:1026D00017004AE1EAE7FFE7FFE70498C06801282E
:1026E00009D1FFE741F22001C4F20201086840F07D
:1026F0000100086031E00498C06868B9FFE741F262
:102700002001C4F20201086820F001000860086896
:1027100020F0040008601FE00498C06805280DD16F
:10272000FFE741F22001C4F20201086840F0040012
:102730000860086840F0010008600CE041F22001E8
:10274000C4F20201086820F001000860086820F067
:1027500004000860FFE7FFE7FFE7FFE70498C068B1
:10276000E0B1FFE7FFF7A6F90390FFE741F2200091
:10277000C4F202000068800700280ED4FFE7FFF7CC
:1027800099F90399401A41F28931884204D3FFE74D
:1027900003208DF81700E8E0E8E71BE0FFF78AF96F
:1027A0000390FFE741F22000C4F2020000688007B6
:1027B00000280ED5FFE7FFF77DF90399401A41F293
:1027C0008931884204D3FFE703208DF81700CCE05D
:1027D000E8E7FFE79DF80700012809D1FFE741F28C
:1027E0001C01C4F20201086820F080500860FFE775
:1027F000FFE70498C069002800F0B380FFE741F2CA
:102800000400C4F20200006800F00C00082800F088
:102810008280FFE70498C06902285CD1FFE760214D
:10282000C4F2422100200860FFF744F90390FFE75B
:1028300041F20000C4F202000068800100280CD5BB
:10284000FFE7FFF737F90399401A032804D3FFE79E
:1028500003208DF8170088E0EAE70498006AB0F5D5
:10286000803F0CD1FFE741F20401C4F20201086885
:1028700020F40030049A926810430860FFE741F2A8
:102880000401C4F20201086820F47410049B1A6A5F
:102890005B6A1A43104308606021C4F242210120A0
:1028A0000860FFF707F90390FFE741F20000C4F268
:1028B00002000068800100280CD4FFE7FFF7FAF857
:1028C0000399401A032804D3FFE703208DF817006B
:1028D0004BE0EAE71EE06021C4F2422100200860DC
:1028E000FFF7E8F80390FFE741F20000C4F20200AE
:1028F0000068800100280CD5FFE7FFF7DBF803999B
:10290000401A032804D3FFE703208DF817002CE0BA
:10291000EAE7FFE724E00498C069012804D1FFE753
:1029200001208DF8170020E041F20400C4F20200FB
:1029300000680290029800F480300499096A884285
:1029400008D1FFE7029800F470100499496A8842A0
:1029500004D0FFE701208DF8170006E0FFE7FFE74E
:10296000FFE700208DF81700FFE79DF8170006B07D
:1029700080BD000080B582B00190019803F008F896
:1029800002B080BD81B0009001B0704781B000906E
:1029900001B0704784B00290019100200090FFE7E1
:1029A000029890F83C00012804D1FFE702208DF83E
:1029B0000F0044E00299012081F83C00FFE7FFE7A7
:1029C000009820F0FF000199C96808430090009822
:1029D00020F440700199896808430090009820F421
:1029E00080600199496808430090009820F40060D5
:1029F0000199096808430090009820F480500199DB
:102A0000096908430090009820F400500199496931
:102A100008430090009820F480400199C969084358
:102A200000900098029909684864FFE70299002025
:102A300081F83C00FFE700208DF80F00FFE79DF8CC
:102A40000F0004B07047000085B003900291FFE7CB
:102A5000039890F83C00012804D1FFE702208DF88C
:102A600013005BE00399012081F83C00FFE7FFE7DA
:102A70000399022081F83D000398006840680190A6
:102A80000398006880680090019820F07000019021
:102A90000298016801980843019001980399096818
:102AA00048600398006842F60041C4F20101884280
:102AB00018D0FFE703980068B0F1804F12D0FFE70D
:102AC0000398006840F20041C4F20001884209D036
:102AD000FFE70398006840F60001C4F20001884255
:102AE0000ED1FFE7009820F0800000900298416826
:102AF0000098084300900098039909688860FFE7F0
:102B00000399012081F83D00FFE70399002081F837
:102B10003C00FFE700208DF81300FFE79DF813004D
:102B200005B0704780B582B00090009820B9FFE7EB
:102B300001208DF807003FE0009890F83D0040B973
:102B4000FFE70099002081F83C00009800F038F879
:102B5000FFE70099022081F83D00009951F8040B2D
:102B600002F0A6FF0099012081F84600FFE70099D6
:102B7000012081F83E00009981F83F00009981F81A
:102B80004000009981F84100FFE7FFE7009901202C
:102B900081F84200009981F84300009981F84400CF
:102BA000009981F84500FFE70099012081F83D0078
:102BB00000208DF80700FFE79DF8070002B080BDF8
:102BC00080B584B003900398006842F60041C4F2D7
:102BD0000101884219D1FFE7FFE741F21800C4F272
:102BE0000200016841F400610160006800F40060C7
:102BF00002900298FFE71920019000221146FEF78B
:102C0000F5FF0198FEF7E8FFFFE704B080BD000084
:102C100083B00190019890F83D00012804D0FFE7AF
:102C200001208DF80B0047E00199022081F83D005A
:102C300001980168C86840F00100C8600198006808
:102C400042F60041C4F20101884218D0FFE7019822
:102C50000068B0F1804F12D0FFE70198006840F2A1
:102C60000041C4F20001884209D0FFE701980068E2
:102C700040F60001C4F20001884212D1FFE701983A
:102C80000068806800F0070000900098062807D0D0
:102C9000FFE701980168086840F001000860FFE75D
:102CA00006E001980168086840F001000860FFE74D
:102CB00000208DF80B00FFE79DF80B0003B0704774
:102CC00080B586B00490039100208DF80B00FFE7DB
:102CD000049890F83C00012804D1FFE702208DF809
:102CE0001700ABE00499012081F83C00FFE7FFE703
:102CF0000499022081F83D000498006880680190E2
:102D0000019820F077000190019820F47F40019015
:102D10000198049909688860039800680090002869
:102D200072D0FFE7009810286ED0FFE700982028A7
:102D30006AD0FFE70098302866D0FFE70098402867
:102D400055D0FFE70098502837D0FFE7009860285B
:102D500040D0FFE7009870280BD0FFE70098B0F54F
:102D6000805F05D0FFE70098B0F5005F16D052E015
:102D700055E004980068039B5A689968DB6802F084
:102D80002BFF0498006880680190019840F077005C
:102D90000190019804990968886040E004980068EF
:102DA000039B5A689968DB6802F016FF0498016873
:102DB000886840F48040886031E004980068039A95
:102DC0005168D26803F0C4F804980068502102F0FA
:102DD0001DFF24E004980068039A5168D26803F04C
:102DE000DFF804980068602102F010FF17E00498F3
:102DF0000068039A5168D26803F0AAF80498006842
:102E0000402102F003FF0AE0049800680399096872
:102E100002F0FCFE03E001208DF80B00FFE70499AF
:102E2000012081F83D00FFE70499002081F83C0073
:102E3000FFE79DF80B008DF81700FFE79DF81700DE
:102E400006B080BD80B586B004900391049820B987
:102E5000FFE701208DF8170084E0049890F83D000A
:102E600040B9FFE70499002081F83C00049800F085
:102E70007DF8FFE70499022081F83D00049801687D
:102E8000886844F2070290438860049951F8040B63
:102E900002F00EFE049800688068029004980068B2
:102EA0008069019004980068006A009003980168A6
:102EB000029808430290019840F203318843019040
:102EC00003998868896940EA0121019808430190C3
:102ED000019840F60C418843019001984FF2F001AF
:102EE000884301900399C868C96940EA01210198A3
:102EF0000843019003990869096A000140EA013119
:102F0000019808430190009820F022000090039956
:102F10004868496940EA0111009808430090029806
:102F20000499096888600198049909688861009883
:102F30000499096808620499012081F846000499FF
:102F400081F83E00049981F83F00049981F842001D
:102F5000049981F84300049981F83D0000208DF820
:102F60001700FFE79DF8170006B080BD80B58EB052
:102F70000D9000200C900B900A9009900D9800681D
:102F8000B0F1804F36D1FFE7FFE741F21C00C4F2F9
:102F90000200016841F001010160006800F00100D9
:102FA00008900898FFE7FFE741F21800C4F202001A
:102FB000016841F004010160006800F0040007901E
:102FC0000798FFE703200990002003900A90012052
:102FD0000B9040F60000C4F2010009A9FEF796FB31
:102FE000039A1C2004901146FEF700FE0498FEF799
:102FF000F3FD3FE00D98006840F60001C4F20001C7
:10300000884236D1FFE7FFE741F21C00C4F202001C
:10301000016841F004010160006800F004000690BE
:103020000698FFE7FFE741F21800C4F202000168CA
:1030300041F008010160006800F008000590059863
:10304000FFE7C0200990002001900A9001200B901A
:1030500040F60040C4F2010009A9FEF757FB019AAF
:103060001E2002901146FEF7C1FD0298FEF7B4FD46
:10307000FFE7FFE70EB080BD80B586B004900391F6
:10308000049890F83E008DF80B00049890F83F00EB
:103090008DF80A00049890F842008DF80900049811
:1030A00090F843008DF808000398B8B9FFE79DF841
:1030B0000B00012805D1FFE79DF80900012804D085
:1030C000FFE701208DF8170079E00499022081F8CC
:1030D0003E00049981F84200FFE742E0039804288B
:1030E00017D1FFE79DF80A00012805D1FFE79DF8F9
:1030F0000800012804D0FFE701208DF817005EE0EA
:103100000499022081F83F00049981F84300FFE709
:1031100026E09DF80B0001280FD1FFE79DF80A007B
:1031200001280AD1FFE79DF80900012805D1FFE732
:103130009DF80800012804D0FFE701208DF8170052
:103140003DE00499022081F83E00049981F83F0097
:10315000049981F84200049981F84300FFE7FFE7F2
:10316000FFE70398019020B1FFE70198042807D0FA
:103170000DE0049800680021012202F011FD14E026
:10318000049800680421012202F00AFD0DE0049871
:10319000006800210122009202F002FD009A0498CA
:1031A0000068042102F0FCFCFFE70498016808684D
:1031B00040F00100086000208DF81700FFE79DF83F
:1031C000170006B080BD000081B0009001B07047CC
:1031D00080B582B0019001980068006900F002019A
:1031E0000020B0EB510F28D0FFE701980068C068BD
:1031F00000F002010020B0EB510F1DD0FFE7019855
:1032000001686FF0020008610199012008770198B8
:1032100000688069800720B1FFE70198FFF7D4FFBD
:1032200006E0019800F042F9019800F037FAFFE754
:10323000019900200877FFE7FFE70198006800691F
:1032400000F004010020B0EB910F29D0FFE70198B6
:103250000068C06800F004010020B0EB910F1ED0A0
:10326000FFE7019801686FF00400086101990220EE
:10327000087701980068806910F4407F04D0FFE768
:103280000198FFF7A1FF06E0019800F00FF90198FF
:1032900000F004FAFFE7019900200877FFE7FFE755
:1032A00001980068006900F008010020B0EBD10F20
:1032B00028D0FFE701980068C06800F008010020EE
:1032C000B0EBD10F1DD0FFE7019801686FF0080047
:1032D000086101990420087701980068C069800797
:1032E00020B1FFE70198FFF76FFF06E0019800F0BB
:1032F000DDF8019800F0D2F9FFE701990020087786
:10330000FFE7FFE701980068006900F01001002066
:10331000B0EB111F29D0FFE701980068C06800F0EA
:1033200010010020B0EB111F1ED0FFE701980168CB
:103330006FF0100008610199082008770198006873
:10334000C06910F4407F04D0FFE70198FFF73CFF0D
:1033500006E0019800F0AAF8019800F09FF9FFE755
:10336000019900200877FFE7FFE7019800680069EE
:10337000C00780B1FFE701980068C068C00748B186
:10338000FFE7019801686FF001000861019800F003
:1033900039FAFFE7FFE7019800680069C1B2002031
:1033A000B0EBD11F13D0FFE701980068C068C1B22D
:1033B0000020B0EBD11F09D0FFE7019801686FF042
:1033C000800008610198FFF7DDFAFFE7FFE7019849
:1033D0000068006900F040010020B0EB911F14D09C
:1033E000FFE701980068C06800F040010020B0EBE2
:1033F000911F09D0FFE7019801686FF04000086154
:10340000019800F0F7FAFFE7FFE70198006800690C
:1034100000F020010020B0EB511F14D0FFE701980D
:103420000068C06800F020010020B0EB511F09D0F7
:10343000FFE7019801686FF0200008610198FFF72D
:10344000A5FAFFE7FFE702B080BD000080B586B0B7
:103450000590002004900390029001900598006868
:1034600042F60041C4F2010188421DD1FFE7FFE7A7
:1034700041F21800C4F20200016841F00401016049
:10348000006800F0040000900098FFE74FF410601F
:10349000019002200290049040F60000C4F2010066
:1034A00001A9FEF733F9FFE706B080BD81B00090B7
:1034B00001B0704780B586B004900391029200205D
:1034C0008DF80700FFE7049890F83C00012804D12C
:1034D000FFE702208DF8170089E00499012081F8A8
:1034E0003C00FFE7FFE7029800900C2800F2708094
:1034F0000099DFE801F0076D6D6D206D6D6D3A6D1F
:103500006D6D530004980068039902F095FB0498D0
:103510000168886940F0080088610498016888693A
:1035200020F00400886103980269049801688869A2
:103530001043886150E004980068039902F0E4FBAE
:1035400004980168886940F4006088610498016803
:10355000886920F480608861039802690498016892
:10356000886940EA0220886136E00498006803997F
:1035700002F036FC04980168C86940F00800C86190
:1035800004980168C86920F00400C86103980269C2
:1035900004980168C8691043C8611DE00498006878
:1035A000039902F089FC04980168C86940F400603E
:1035B000C86104980168C86920F48060C8610398F4
:1035C000026904980168C86940EA0220C86103E002
:1035D00001208DF80700FFE7FFE70499002081F83C
:1035E0003C00FFE79DF807008DF81700FFE79DF806
:1035F000170006B080BD000080B582B00090009832
:1036000020B9FFE701208DF807003FE0009890F80F
:103610003D0040B9FFE70099002081F83C00009888
:1036200000F038F8FFE70099022081F83D0000998A
:1036300051F8040B02F03CFA0099012081F8460091
:10364000FFE70099012081F83E00009981F83F00D2
:10365000009981F84000009981F84100FFE7FFE7F9
:103660000099012081F84200009981F843000099F7
:1036700081F84400009981F84500FFE70099012096
:1036800081F83D0000208DF80700FFE79DF8070056
:1036900002B080BD81B0009001B0704781B0009051
:1036A00001B0704780B58AB008900791079828B993
:1036B000FFE7089890F83E0005901CE00798042862
:1036C00005D1FFE7089890F83F00049010E00798B4
:1036D000082805D1FFE7089890F84000039004E01F
:1036E000089890F841000390FFE703980490FFE7E3
:1036F00004980590FFE70598012804D0FFE7012012
:103700008DF827007AE0079828B9FFE7089902208A
:1037100081F83E001EE00798042806D1FFE70899CB
:10372000022081F83F00029012E00798082806D195
:10373000FFE70899022081F84000019005E0089910
:10374000022081F841000190FFE701980290FFE715
:103750000298FFE7089800680799012202F020FA12
:103760000898006842F60041C4F20101884207D17E
:10377000FFE708980168486C40F400404864FFE7A0
:103780000898006842F60041C4F20101884218D04E
:10379000FFE708980068B0F1804F12D0FFE7089863
:1037A000006840F20041C4F20001884209D0FFE7FE
:1037B0000898006840F60001C4F20001884212D166
:1037C000FFE708980068806800F0070006900698F8
:1037D000062807D0FFE708980168086840F0010054
:1037E0000860FFE706E008980168086840F00100FB
:1037F0000860FFE700208DF82700FFE79DF827000D
:103800000AB080BD80B590B00F900F9840F2F411CF
:10381000C2F20001884240F0EB80FFE740F2520024
:10382000C2F20000018801310180008849F6991236
:10383000C1F699124CF6CD41CCF6CC4100FB0120EB
:10384000B0F1333F6AD2FFE740F28421C2F20001B7
:103850000868406A424240F21000C2F20000028052
:1038600040F23C22C2F2000213685B6A40F2120C82
:10387000C2F2000CCDF820C0ACF800300B6800217B
:103880000D91596212685162B0F90000FCF721FFF6
:103890000021C4F2C8210991FCF7B5FCFCF74DFFEB
:1038A0004FF033320A9243F23333C4F223030B93C3
:1038B000FCF732FE0D9A0023C4F226030C93FCF7AA
:1038C0002BFE0D9A0023C4F210030E93FCF724FE86
:1038D000FCF746FF0146089840F21802C2F20002C7
:1038E0001160B0F90000FCF7F4FE0999FCF78BFCBD
:1038F000FCF723FF0A9A0B9BFCF70EFE0C9B0D9A1C
:10390000FCF70AFE0D9A0E9BFCF706FEFCF728FF5B
:1039100040F21C01C2F200010860FFE740F25200D1
:10392000C2F20000008849F69811C1F699114CF6D0
:10393000CD42CCF6CC4200FB02104FEA7000884228
:1039400055D8FFE740F21800C2F200000590006869
:10395000FCF7F3FE41F27B42C4F2AE7247F6E1237C
:10396000C3F69473FCF766FD0090019140F21400D9
:10397000C2F2000004900068FCF7DFFE02460098E7
:1039800002920A4601990392002207920023C4F290
:103990003603FCF74FFD029A039BFCF7A4FCFCF7EF
:1039A000DFFE049A014605981160016840F2044068
:1039B000C2F2000001F084FFFCF7A6FE069040F280
:1039C0001C00C2F20000016840F22440C2F2000074
:1039D00001F076FFFCF798FE0146069801F08EFC98
:1039E000079840F25201C2F200010880FFE7FFE7AA
:1039F00010B080BD81B0009001B0704782B00190DE
:103A0000ADF8021002B0704780B582B00190019805
:103A10000068006800F008010020B0EBD10F19D059
:103A2000FFE7FFE700200090019800680068009021
:103A300001980068406800900098FFE740F2143059
:103A4000C2F2000040F2B211C2F20001012200F005
:103A5000F3FBFFE702B080BD80B592B011901198E2
:103A600000680068109011980068C0680F90119865
:103A7000006840690E9000200D900C90109800F0A6
:103A80000F000D900D9888B9FFE79DF84000800663
:103A900000280AD5FFE79DF83C008006002804D5E1
:103AA000FFE7119802F014FBE9E1FFE70D98002809
:103AB00000F0C280FFE79DF83800C00738B9FFE783
:103AC000BDF83C0010F4907F00F0B680FFE79DF851
:103AD0004000C00758B1FFE79DF83D00C00730B176
:103AE000FFE71199486C40F001004864FFE79DF83A
:103AF0004000400700280BD5FFE79DF83800C007BD
:103B000030B1FFE71199486C40F002004864FFE7CC
:103B10009DF84000800700280BD5FFE79DF838008E
:103B2000C00730B1FFE71199486C40F004004864C9
:103B3000FFE79DF840000007002811D5FFE79DF83A
:103B40003C008006002805D4FFE79DF83800C00738
:103B500030B1FFE71199486C40F008004864FFE776
:103B60001198406C002866D0FFE79DF84000800661
:103B700000280AD5FFE79DF83C008006002804D500
:103B8000FFE7119802F0A4FAFFE711980068406976
:103B9000C0F380100C901198406C0007002804D4EA
:103BA000FFE70C9800283ED0FFE7119802F032FAA8
:103BB000119800684069400600282FD5FFE7FFE70D
:103BC000FFE71198006850E8050F20F040000B90C7
:103BD000FFE70B991198026842E805100028F0D120
:103BE000FFE7FFE71198C06B98B1FFE71198C16B31
:103BF00045F6F570C0F6000048631198C06BFDF7FC
:103C00005DFC28B1FFE71198C06B416B8847FFE767
:103C100003E01198FFF7F8FEFFE703E01198FFF7C4
:103C2000F3FEFFE706E01198FFF7EEFE1199002082
:103C30004864FFE7FFE722E11198006B012840F09C
:103C4000FE80FFE79DF84000C006002840F1F780A5
:103C5000FFE79DF83C00C006002840F1F080FFE738
:103C6000FFE700200A901198006800680A901198F8
:103C7000006840680A900A98FFE711980068406958
:103C80004006002840F18180FFE71198C06B006872
:103C90004068ADF82600BDF82600002874D0FFE784
:103CA000BDF826001199898D88426DDAFFE7BDF8CD
:103CB00026001199C8851198C06B8069202858D0BA
:103CC000FFE7FFE7FFE71198006850E8030F20F4D3
:103CD00080700890FFE708991198026842E8031085
:103CE0000028F0D1FFE7FFE7FFE7FFE71198006842
:103CF00050E8050F20F001000790FFE707991198A1
:103D0000026842E805100028F0D1FFE7FFE7FFE76F
:103D1000FFE71198006850E8050F20F0400006907A
:103D2000FFE706991198026842E805100028F0D1D3
:103D3000FFE7FFE71199202081F842001199002048
:103D40000863FFE7FFE71198006850E8030F20F0D1
:103D500010000590FFE705991198026842E80310EA
:103D60000028F0D1FFE7FFE71198C06BFDF768FB73
:103D7000FFE71199022048631198818DC28D891A3D
:103D800089B2FFF73BFEFFE779E01199888DC98D75
:103D9000401AADF812001198C08D00284ED0FFE7F0
:103DA000BDF81200002849D0FFE7FFE7FFE71198B0
:103DB000006850E8030F20F490700390FFE7039928
:103DC0001198026842E803100028F0D1FFE7FFE7EE
:103DD000FFE7FFE71198006850E8050F20F00100A9
:103DE0000290FFE702991198026842E80510002846
:103DF000F0D1FFE7FFE71199202081F842001199E7
:103E000000200863FFE7FFE71198006850E8030F00
:103E100020F010000190FFE701991198026842E834
:103E200003100028F0D1FFE7FFE711990220486353
:103E30001198BDF81210FFF7E1FDFFE71FE09DF8B4
:103E40004000000600280AD5FFE79DF83C00000668
:103E5000002804D5FFE7119802F080FA0FE09DF8E2
:103E60004000400600280AD5FFE79DF83C004006C8
:103E7000002804D5FFE7119802F016F9FFE712B009
:103E800080BD000080B582B00090009820B9FFE7A7
:103E900001208DF8070040E00098806908B1FFE735
:103EA00000E0FFE7009890F8410040B9FFE7009973
:103EB000002081F84000009800F034F8FFE70099F6
:103EC000242081F8410000980168C86820F400505F
:103ED000C860009802F0B2F900980168086920F4FF
:103EE0009040086100980168486920F02A00486104
:103EF00000980168C86840F40050C860009900202C
:103F00004864009A202182F84110009A82F84210F9
:103F1000009948638DF80700FFE79DF8070002B09D
:103F200080BD000080B598B01790002016901590C5
:103F3000149013901798006843F60001C4F2010131
:103F4000884243D1FFE7FFE741F21800C4F20200C4
:103F5000016841F480410160006800F480401290E3
:103F60001298FFE7FFE741F21800C4F2020001686F
:103F700041F004010160006800F004001190119804
:103F8000FFE74FF400701390022014900320169066
:103F900040F60000C4F20100099013A90A91FDF750
:103FA000B5FB09980A994FF48062139200220B9294
:103FB00014921592FDF7AAFB0B9A25200C9011463E
:103FC000FDF714FE0C98FDF707FE97E017980068C0
:103FD00044F20041C4F20001884241D1FFE7FFE70B
:103FE00041F21C00C4F20200016841F4003101609A
:103FF000006800F4003010901098FFE7FFE741F2EE
:104000001800C4F20200016841F004010160006878
:1040100000F004000F900F98FFE704201390022097
:1040200014900320169040F60000C4F201000590A1
:1040300013A90691FDF76AFB0598069908221392C9
:104040000022079214921592FDF760FB079A262032
:1040500008901146FDF7CAFD0898FDF7BDFD4CE03C
:104060001798006844F60001C4F20001884243D169
:10407000FFE7FFE741F21C00C4F20200016841F4CF
:1040800080210160006800F480200E900E98FFE708
:10409000FFE741F21800C4F20200016841F0080194
:1040A0000160006800F008000D900D98FFE74FF4E4
:1040B00080601390022014900320169040F6004078
:1040C000C4F20100019013A90291FDF71FFB0198B2
:1040D00002994FF4006213920022039214921592F7
:1040E000FDF714FB039A272004901146FDF77EFD8F
:1040F0000498FDF771FDFFE7FFE7FFE718B080BD0B
:1041000080B58AB008900791ADF81A200593002079
:104110000290089890F84200202840F08480FFE741
:10412000079820B1FFE7BDF81A0020B9FFE701208A
:104130008DF827007BE0089900204864089A222126
:1041400082F8421008990863FDF7B4FC0290BDF8AC
:104150001A0008998885BDF81A000899C88508983A
:104160008068B0F5805F09D1FFE70898006928B939
:10417000FFE7002004900798039004E0079804905C
:1041800000200390FFE7FFE70898C08D002842D089
:10419000FFE70898029B05996A46116020210022DA
:1041A00002F026F920B1FFE703208DF827003EE05A
:1041B000049858B9FFE70898006840686FF35F20DB
:1041C000039908800398023003901FE008988068E4
:1041D000B0F5805F08D0FFE70898806850B9FFE726
:1041E0000898006930B9FFE70898006840680499AA
:1041F000087007E008980068406800F07F000499A4
:104200000870FFE7049801300490FFE70899C88D13
:104210000138C885B8E70899202081F842000020BD
:104220008DF8270003E002208DF82700FFE79DF8B6
:1042300027000AB080BD000080B584B002900191D3
:10424000ADF80220029890F84200202817D1FFE72D
:10425000019820B1FFE7BDF8020020B9FFE7012077
:104260008DF80F000FE00299002008630298019971
:10427000BDF8022002F040F88DF80F0003E00220A4
:104280008DF80F00FFE79DF80F0004B080BD00001F
:1042900080B584B00390039840F25C31C2F2000113
:1042A000884240F0E080FFE740F2B310C2F2000025
:1042B0000078412806D1FFE74FF07E51084603F011
:1042C000C3F8FFE740F2B310C2F2000000784228C2
:1042D00007D1FFE70021CBF68071084603F0B4F860
:1042E000FFE740F2B310C2F200000078432805D186
:1042F000FFE70021084603F0A7F8FFE740F2B310FC
:10430000C2F200000078442807D1FFE74FF07E504A
:104310004FF0804103F098F8FFE740F2B310C2F28B
:1043200000000078452807D1FFE74FF080404FF0AC
:104330007E5103F089F8FFE740F2B310C2F20000AB
:104340000078462803D1FFE703F0D8F8FFE740F2F2
:10435000B310C2F200000078472803D1FFE703F052
:104360009FF8FFE740F2B310C2F20000007848283F
:104370001BD1FFE740F2E430C2F2000000680021E8
:10438000C4F23431FCF761F970B9FFE740F2E43070
:10439000C2F20000029000680021C4F2B421FBF7D1
:1043A000DAFE02990860FFE7FFE740F2B310C2F2BD
:1043B0000000007849281BD1FFE740F2E430C2F248
:1043C000000000680021CCF23431FCF722F970B90A
:1043D000FFE740F2E430C2F20000019000680021E3
:1043E000CCF2B421FBF7B7FE01990860FFE7FFE7C5
:1043F00040F2B310C2F2000000784A2818D1FFE75B
:1044000040F2B010C2F200000078052807D1FFE7A3
:1044100040F2B011C2F200010120087007E040F242
:10442000B011C2F20001087801300870FFE7FFE721
:1044300040F2B310C2F2000000784B2807D1FFE72A
:1044400040F2B011C2F2000100200870FFE740F214
:104450005C30C2F2000040F2B311C2F2000101224E
:10446000FFF7EAFEFFE7039840F21431C2F20001C1
:10447000884211D1FFE740F2B210C2F20000009072
:10448000007803F08BF8009940F21430C2F200007B
:104490000122FFF7D1FEFFE704B080BD80B58AB0EE
:1044A00008900791ADF81A20059300200290089813
:1044B00090F84100202878D1FFE7079820B1FFE766
:1044C000BDF81A0020B9FFE701208DF8270070E041
:1044D0000899002048640899212081F84100FDF7DF
:1044E000E9FA0290BDF81A0008998884BDF81A000C
:1044F0000899C88408988068B0F5805F09D1FFE703
:104500000898006928B9FFE70020049007980390F5
:1045100004E00798049000200390FFE7FFE7089865
:10452000C08C58B3FFE70898029B05996A46116052
:104530008021002201F05CFF20B1FFE703208DF80D
:10454000270036E0049858B9FFE7039800886FF316
:104550005F2008990968486003980230039008E0DA
:10456000049800780899096848600498013004901C
:10457000FFE70899C88C0138C884D0E70898029BE7
:1045800005996A4611604021002201F031FF20B1F7
:10459000FFE703208DF827000BE00899202081F821
:1045A000410000208DF8270003E002208DF827004D
:1045B000FFE79DF827000AB080BD000081B00090A1
:1045C00001B0704782B00190019840F20001C2F240
:1045D00000010968C90844F6D352C1F26202A1FB86
:1045E0000221890948F63812C0F24102A1FB0221DA
:1045F00048430090FFE700BFFFE70098411E00918D
:104600000028F8D1FFE702B07047000080B586B0FF
:1046100000200290049040F60040C4F20100009097
:10462000202101910122FDF72DFA0F20FFF7CAFF8B
:1046300000980199029AFDF725FAFFE740F600007D
:10464000C4F201004021FDF7F1F9A0B9FFE7049899
:10465000013004900120FFF7B5FF049848F2A161F2
:10466000C0F20101884205D3FFE70020CBF680703D
:10467000059039E0E2E700200490FFE740F60000F3
:10468000C4F201004021FDF7D1F9012813D1FFE761
:104690000498013004900120FFF794FF049848F239
:1046A000A161C0F20101884204D3FFE74FF040400E
:1046B000059019E0E2E704984000FCF718F843F28F
:1046C0004C72C4F289124EF26053C3F6A073FBF72A
:1046D000B1FE00224FF08043FBF71EFFFCF740F8CD
:1046E000039003980590FFE7059806B080BD000091
:1046F000FFE7FEE780B586B040F60000C4F2010097
:1047000003904FF40041049101220092FDF7BAF9A1
:10471000009A40F60040C4F2010001904FF480512D
:104720000291FDF7AFF90198029900220592FDF779
:10473000A9F903980499059AFDF7A4F906B080BD7C
:1047400080B584B040F60000C4F201004FF400418F
:1047500001220392FDF796F940F60040C4F20100F1
:1047600001904FF4805102910022FDF78BF90198DE
:104770000299039AFDF786F904B080BD80B582B036
:1047800040F60000C4F2010000904FF40041019196
:104790000122FDF777F9009801990022FDF772F9DF
:1047A00002B080BD80B584B040F60040C4F2010084
:1047B00001904FF48071029100220392FDF762F99B
:1047C0000198039A40F60443C4F20103196821F0EA
:1047D000F0011960196841F0300119604FF400715F
:1047E000FDF750F900F00EF8019802990122FDF74B
:1047F00049F900F007F801980299039AFDF742F988
:1048000004B080BD80B5022002F0A4FE80BD00008F
:104810007047000080B584B040F60040C4F201004B
:1048200001904FF48071029100220392FDF72AF962
:10483000019840F60442C4F20102116821F0F0012F
:104840001160116841F0300111604FF400710122D4
:104850000092FDF717F9FFF7D5FF009A019802992A
:10486000FDF710F9FFF7CEFF01980299039AFDF7C3
:1048700009F904B080BD000080B584B08DF80F0048
:1048800000208DF80D0040F60442C4F201021168C8
:1048900021F0F0011160116841F0800111608DF884
:1048A0000E00FFE79DF80E0007282DDCFFE740F61D
:1048B0000040C4F2010002904FF480710191002287
:1048C000FDF7E0F8FFF79EFF019902980122FDF73E
:1048D000D9F802989DF80D1049008DF80D104FF48D
:1048E0000071FDF7A3F830B1FFE79DF80D0001302E
:1048F0008DF80D00FFE7FFF785FFFFE79DF80E003D
:1049000001308DF80E00CDE79DF80F0018B9FFE7D4
:10491000FFF780FF02E0FFF745FFFFE79DF80D007E
:1049200004B080BD80B584B08DF80F0040F604411E
:10493000C4F20101086820F0F0000860086840F047
:104940003000086040F60040C4F201004FF480716E
:1049500000220292FDF796F802988DF80E00FFE70C
:104960009DF80E0007283BDCFFE79DF80F100020A4
:10497000B0EBD11F0AD0FFE740F60040C4F20100BF
:104980004FF400710122FDF77DF809E040F6004088
:10499000C4F201004FF400710022FDF773F8FFE745
:1049A0009DF80F0040008DF80F0040F60040C4F263
:1049B000010000904FF4807101910122FDF762F82F
:1049C000FFF720FF009801990022FDF75BF8FFF741
:1049D00019FFFFE79DF80E0001308DF80E00BFE7CC
:1049E00004B080BD80B586B040F60441C4F2010138
:1049F000086820F0F0000860086840F030000860A7
:104A000040F60040C4F2010003904FF4007102919F
:104A100001220192FDF736F8019A03984FF4807154
:104A20000491FDF72FF8FFF7EDFE0299039800229D
:104A30000592FDF727F8FFF7E5FE03980499059A1C
:104A4000FDF720F806B080BD80B586B040F6044181
:104A5000C4F20101086820F0F0000860086840F026
:104A60003000086040F60040C4F2010003904FF4AB
:104A70008071029100220192FDF704F8019A0398D7
:104A80004FF400710491FCF7FDFFFFF7BBFE0299A4
:104A9000039801220592FCF7F5FF03980499059A03
:104AA000FCF7F0FFFFF7AEFE06B080BD80B584B026
:104AB00000208DF80E0040F60441C4F201010868A0
:104AC00020F0F0000860086840F08000086040F6C0
:104AD0000040C4F2010001904FF4007101220292E3
:104AE000FCF7D0FFFFF78EFE0198029A4FF4807119
:104AF000FCF7C8FFFFF786FEFFE740F60040C4F270
:104B000001004FF40071FCF791FF88B1FFE79DF8B9
:104B10000E0001308DF80E009DF80E00FB2806DB1C
:104B2000FFE7FFF791FF01208DF80F000EE0E4E7AB
:104B300040F60040C4F201004FF480710022009260
:104B4000FCF7A0FF00988DF80F00FFE79DF80F001D
:104B500004B080BD80B584B0FFF75AFE6B20009092
:104B60008021029100F0F8F86420FCF735FD0098F0
:104B70000021019100F0F0F8032000F06BF801989B
:104B800000F05AF8322000F0B7F80199382000F010
:104B9000E3F801996A2000F0DFF80199232000F082
:104BA000DBF80299372000F0D7F8752000F020F8E4
:104BB0008DF80E009DF80E0068280CD1FFE76B20E1
:104BC000012100F0C9F86C20002100F0C5F8322066
:104BD00000F092F803E001208DF80F0003E00020C0
:104BE0008DF80F00FFE79DF80F0004B080BD0000B6
:104BF00080B582B08DF80700FFF7F4FED020FFF7F4
:104C000091FEFFF753FF9DF80700FFF78BFEFFF7BC
:104C10004DFFFFF7E7FED120FFF784FEFFF746FFC9
:104C20000020FFF729FE8DF80600FFF70DFF9DF825
:104C3000060002B080BD000080B582B08DF807008C
:104C40009DF80700C000C1B21C2000F085F802B03A
:104C500080BD000080B582B08DF807009DF8070088
:104C6000C000C1B21B2000F077F802B080BD000088
:104C700080B582B0ADF8060000208DF80500BDF8C3
:104C80000600BC2804DBFFE701208DF805002BE0BF
:104C9000BDF80600622804DBFFE702208DF805005E
:104CA00021E0BDF806002A2804DBFFE703208DF889
:104CB000050017E0BDF80600142804DBFFE7042018
:104CC0008DF805000DE0BDF806000A2804DBFFE7BB
:104CD00005208DF8050003E006208DF80500FFE7AC
:104CE000FFE7FFE7FFE7FFE79DF805101A2000F058
:104CF00033F802B080BD000080B582B0ADF8060088
:104D0000BDF80600B0F57A7F05DDFFE74FF47A7055
:104D1000ADF80600FFE7BDF80600032804DCFFE756
:104D20000420ADF80600FFE7BDF806104FF47A70D6
:104D3000B0FBF1F001388DF805009DF80510192041
:104D400000F00AF88DF80500BDF806004008FFF7EE
:104D50008FFF02B080BD000080B582B08DF80600E4
:104D60008DF80510FFF73EFED020FFF7DBFDFFF7C3
:104D70009DFE30B1FFE7FFF767FE01208DF80700C9
:104D800019E09DF80600FFF7CDFDFFF78FFE9DF8B7
:104D90000500FFF7C7FDFFF789FE30B1FFE7FFF71A
:104DA00053FE01208DF8070005E0FFF74DFE0020BF
:104DB0008DF80700FFE79DF8070002B080BD0000F6
:104DC00080B584B0002103910291019140F2C4109A
:104DD000C2F20000009042F60002C4F2010202603A
:104DE0008160017301754FF46022C261416001214D
:104DF0000161FBF7BFFF18B1FFE7FBF7D1FEFFE74B
:104E000004200190012002900220039040F2C4107F
:104E1000C2F2000001A9FBF7CBFE18B1FFE7FBF7D8
:104E2000BFFEFFE704B080BD80B594B000201390B2
:104E3000129011901090FFE741F21800C4F20200A6
:104E4000016841F010010160006800F010000F904F
:104E50000F98FFE7FFE741F21800C4F20200016873
:104E600041F020010160006800F020000E900E98D3
:104E7000FFE7FFE741F21800C4F20200016841F0C9
:104E800004010160006800F004000D900D98FFE738
:104E9000FFE741F21800C4F20200016841F0080186
:104EA0000160006800F008000C900C98FFE741F2E8
:104EB0000000C4F2010001904FF400510091002263
:104EC0000A92FCF7DFFD40F60040C4F201000690B4
:104ED0004FF4985101220492FCF7D4FD06980A9AE7
:104EE00042F22801FCF7CEFD049A40F60000C4F21D
:104EF000010005904FF400410391FCF7C3FD009BB6
:104F00000198049A0A991093119212910221099121
:104F1000139110A90791FCF7F9FB059807990A9AD4
:104F2000E023109311921292FCF7F0FB0698079978
:104F30000A9A0323109311921292FCF7E7FB049B49
:104F400006980799099A4FF4805CCDF808C0CDF80F
:104F500040C0119312931392FCF7D8FBDDF810C0F8
:104F600006980799099A0A9B42F2283ECDF840E03C
:104F7000CDF844C012931392FCF7C8FB029B049A2D
:104F80000598079910930023C1F2210311931292FF
:104F9000FCF7BCFBDDF80CC0049B05980799099A47
:104FA000CDF840C0119312931392FCF7AFFB069813
:104FB0000799099A102310930023C1F2110311934A
:104FC0001292FCF7A3FB09990A9A0A200890FCF7B1
:104FD0000DFE0898FCF700FE09990A9A28200B900C
:104FE000FCF704FE0B98FCF7F7FD14B080BD000041
:104FF00080B598B0002101911791169115911491E7
:1050000013911291119110910F910E910D910C919C
:105010000B910A91099108910791069105910491CC
:10502000039140F2F410C2F20000029042F60042F6
:10503000C4F20102026040F29F524260816063222A
:10504000C2600161416180218161FDF76BFD18B192
:10505000FFE7FBF7A5FDFFE74FF48050149040F207
:10506000F410C2F2000014A9FDF72AFE18B1FFE700
:10507000FBF796FDFFE740F2F410C2F20000FEF7E6
:10508000BBFA18B1FFE7FBF78BFDFFE7002012909A
:10509000139040F2F410C2F2000012A9FDF7D4FC04
:1050A00018B1FFE7FBF77CFDFFE760200B90322093
:1050B0000C9000220D920E920F921092119240F2DB
:1050C000F410C2F200000BA9FEF7F4F918B1FFE7E3
:1050D000FBF766FDFFE740F2F410C2F200000BA9F7
:1050E0000C22FEF7E7F918B1FFE7FBF759FDFFE7E0
:1050F0000020039004900590069007904FF4005113
:1051000008910A9040F2F410C2F2000003A9FDF7E2
:1051100041FC18B1FFE7FBF743FDFFE740F2F41055
:10512000C2F20000FEF792F918B080BD80B58EB0D3
:1051300005A801902421FAF7FCFF019900230293AE
:105140000493039340F23C20C2F200004FF08042EF
:105150000260436083604FF6FF72C2600361836147
:105160000322059206934FF0010CCDF81CC0089362
:10517000062209920A93CDF82CC00C930D92FDF7EC
:1051800061FE18B1FFE7FBF70BFDFFE7002003907E
:10519000049040F23C20C2F2000003A9FDF754FC49
:1051A00018B1FFE7FBF7FCFCFFE70EB080BD000085
:1051B00080B58EB005A801902421FAF7BAFF0199B5
:1051C000002302930493039340F28420C2F2000070
:1051D00040F60002C4F200020260436083604FF6B2
:1051E000FF72C260036183610322059206934FF050
:1051F000010CCDF81CC00893062209920A93CDF841
:105200002CC00C930D92FDF71DFE18B1FFE7FBF7C4
:10521000C7FCFFE700200390049040F28420C2F214
:10522000000003A9FDF710FC18B1FFE7FBF7B8FC7D
:10523000FFE70EB080BD000080B582B040F2CC2008
:10524000C2F20000019043F60001C4F201010160C6
:105250004FF4E131416000218160C16001610C22A5
:1052600042618161C161FEF70DFE18B1FFE7FBF7F6
:1052700097FCFFE702B080BD80B582B040F21430E9
:10528000C2F20000019044F20041C4F2000101604A
:105290004FF4E131416000218160C16001610C2265
:1052A00042618161C161FEF7EDFD18B1FFE7FBF7D7
:1052B00077FCFFE702B080BD80B582B040F25C3081
:1052C000C2F20000019044F60001C4F20001016046
:1052D0004FF4E131416000218160C16001610C2225
:1052E00042618161C161FEF7CDFD18B1FFE7FBF7B7
:1052F00057FCFFE702B080BDFFE7FEE780B582B054
:105300000190009101984042019000984042009025
:105310000198B0F1FF3F09DCFFE740F60040C4F21E
:10532000010008210122FCF7ADFB08E040F6004037
:10533000C4F2010008210022FCF7A4FBFFE700985B
:10534000B0F1FF3F0ADCFFE740F60040C4F2010085
:105350004FF400510122FCF795FB09E040F60040B4
:10536000C4F201004FF400510022FCF78BFBFFE771
:105370000198B0F1FF3F12DCFFE7019810F1640FD4
:1053800004DCFFE76FF062000190FFE701986430F2
:1053900040F2F411C2F20001096848630EE001987E
:1053A000642803DBFFE763200190FFE7019840F2E8
:1053B000F411C2F2000109684863FFE70098B0F1F8
:1053C000FF3F12DCFFE7009810F1640F04DCFFE7F9
:1053D0006FF062000090FFE70098643040F2F41133
:1053E000C2F20001096808640EE00098642803DB3B
:1053F000FFE763200090FFE7009840F2F411C2F24B
:10540000000109680864FFE702B080BDFFE7FEE71E
:1054100088B0079006910592079800F00700049065
:105420000498C0F10700052803D3FFE7042001908A
:1054300004E00498C0F107000190FFE70198039091
:1054400004980430062803D8FFE70020009003E00A
:10545000049803380090FFE700980290069803999B
:10546000012202FA01F101390840029B9840059996
:105470009A40013A1140084308B0704780B582B0A5
:1054800000208DF80700FFE79DF8070007282ADCB9
:10549000FFE79DF80700B0300021009100F090F97F
:1054A0000099084600F08CF90099102000F088F966
:1054B00000988DF80600FFE79DF806007F280BDCBA
:1054C000FFE70020012100F07BF9FFE79DF80600CF
:1054D00001308DF80600EFE7FFE79DF80700013087
:1054E0008DF80700D0E702B080BD000080B582B023
:1054F0004FF44870FCF770F8AE200021019100F0E5
:105500005FF90199084600F05BF90199102000F05D
:1055100057F90199402000F053F90199B02000F0AB
:105520004FF90199812000F04BF90199FF2000F01B
:1055300047F90199A12000F043F90199A62000F054
:105540003FF90199A82000F03BF901993F2000F0B4
:1055500037F90199C82000F033F90199D32000F000
:105560002FF90199084600F02BF90199D52000F098
:1055700027F90199802000F023F90199D82000F043
:105580001FF90199052000F01BF90199D92000F0BD
:1055900017F90199F12000F013F90199DA2000F0D0
:1055A0000FF90199122000F00BF90199DB2000F0AE
:1055B00007F90199302000F003F901998D2000F0DE
:1055C000FFF80199142000F0FBF80199AF2000F0DA
:1055D000F7F802B080BD000080B582B08DF80700FA
:1055E0008DF806109DF80600B0300021009100F003
:1055F000E7F800999DF807000009103000F0E0F886
:1056000000999DF8070000F00F0000F0D9F802B0F3
:1056100080BD000080B582B08DF807008DF80610BF
:105620008DF805208DF8043000208DF803008DF8EA
:1056300002009DF8050020388DF803009DF8070052
:10564000802809DBFFE700208DF807009DF80600A1
:1056500002308DF80600FFE79DF8040010284CD1B9
:10566000FFE79DF807009DF80610FFF7B5FF002043
:105670008DF80200FFE79DF80200072815DCFFE720
:105680009DF803109DF8020000EB011148F20C5048
:10569000C0F60000405C012100F092F8FFE79DF8A1
:1056A000020001308DF80200E5E79DF807009DF843
:1056B00006100131C9B2FFF78FFF00208DF80200FC
:1056C000FFE79DF80200072816DCFFE79DF80310AE
:1056D0009DF8020000EB011048F20C51C0F60001E9
:1056E0000844007A012100F06BF8FFE79DF8020002
:1056F00001308DF80200E4E726E09DF807009DF8F0
:105700000610FFF769FF00208DF80200FFE79DF803
:105710000200052817DCFFE79DF8030000EB4001BD
:1057200048F2E420C0F6000000EB41009DF80210B2
:10573000405C012100F044F8FFE79DF802000130D1
:105740008DF80200E3E7FFE702B080BD80B584B0CA
:105750008DF80F008DF80E1002928DF807300020A2
:105760008DF80600FFE702989DF80610405C28B30C
:10577000FFE79DF80F009DF80E10029A9DF8063085
:10578000D25C9DF80730FFF745FF9DF80F00083009
:105790008DF80F009DF80F00792809DBFFE7002046
:1057A0008DF80F009DF80E0002308DF80E00FFE717
:1057B0009DF8060001308DF80600D4E704B080BDE6
:1057C00080B582B001900091009828B1FFE79DF864
:1057D000040000F037FF04E09DF8040000F018FF1B
:1057E000FFE702B080BD000040F20440C2F20000BA
:1057F0000022426002608260C26002610023C4F243
:10580000701343610021C4F2A0018161C26140F2C2
:105810002440C2F20000426002608260C260026105
:1058200043618161C26140F2C431C2F200014A6049
:105830000A608A60CA600A610020CBF6C0704861C5
:105840008A614CF6CD40C3F64C70C86140F24441C9
:10585000C2F200014A600A608A60CA600A614CF6BE
:10586000CD40CBF6CC6048618A614CF6CD40C3F6A2
:10587000CC50C86140F2A431C2F200014A6000235A
:10588000C4F2B4130B608A60CA600A614FF03F43F0
:105890004B6141F26F23CBF683238B61CA6140F2E7
:1058A000E431C2F200014A600A608A60CA600A619B
:1058B0004DF20A73C3F6A3434B618A61C861704716
:1058C00080B58CB00B900A910A980B9948600B999F
:1058D000019108684968FAF790FC019988600B9873
:1058E000029081680069FAF736FC029908610B980A
:1058F000099081680691C168059101694269039226
:105900008069FAF780FC0699024603980492FAF738
:105910007AFC0499FAF71FFC0599099A0346069840
:105920000893D2690792FAF768FC01460798FAF7DC
:105930006AFC0899FAF70FFC099948600B99886886
:10594000C8600B9840680CB080BD00007047000034
:1059500082B00190019840F20001C2F20001096892
:10596000C90844F6D352C1F26202A1FB022189099F
:1059700048430090FFE700BFFFE70098411E0091F9
:105980000028F8D1FFE702B0704700007047000020
:1059900080B582B0009000980138B0F1807F03D3C9
:1059A000FFE70120019019E0009801384EF2140140
:1059B000CEF2000108604FF0FF300F2100F07CFEB6
:1059C0004EF21801CEF20001002008604EF21002E3
:1059D000CEF20002072111600190FFE7019802B0AA
:1059E00080BD000080B5FCF76BF880BD80B596B037
:1059F0000CA801902821FAF79CFB01980023029340
:105A00000B930A93099308930793069305930493C2
:105A1000039301220C924FF480310D910E9310925A
:105A20000222139214914FF4E0111591FCF764FCDB
:105A300018B1FFE7FBF7B4F8FFE70F20079002214A
:105A40000891002009904FF480620A920B9007A8F9
:105A5000FCF79EFA18B1FFE7FBF7A2F8FFE7022078
:105A600003904FF40040059003A8FCF7ADF918B17E
:105A7000FFE7FBF795F8FFE716B080BD7047000021
:105A800080B540F2F410C2F20000FDF7A1FB80BD2A
:105A900080B540F23C20C2F20000FDF799FB80BDCA
:105AA00080B540F28420C2F20000FDF791FB80BD7A
:105AB00083B002900191029800680090029842F62B
:105AC0000041C4F20101884215D0FFE70298B0F10D
:105AD000804F10D0FFE7029840F20041C4F200016D
