:060934000108A0010AA069
:1008FF00D3EF9400EE940040147D727C00ED1D70D8
:0D090F00011CED4C70F7EF1F70E61E80E339
:01091C0022B8
:09091D00C292D293D296C2972235
:07092600C294D296C2972291
:07092D00C295C292D2932291
:03000B000208DA0E
:1008DA00C0E0C0D00509E509B4FF07C295C2947506
:1008EA000900E508B50902D294E50AB50902D295CC
:0508FA00D0D0D0E03277
:10088C0020B0FD7F057E001208FF20B0F330B0FDD4
:10089C00C2A37FC87E001208FFD2A37FE87E03129A
:1008AC0008FF438902758CDC758ADCD28CD2A9D204
:1008BC00AF20B40620B50312091D30B40620B503D1
:0E08CC0012092D20B4EB30B5E812092680E3A6
:03000000020800F3
:0C080000787FE4F6D8FD75810A020847F5
:10080C0002088CE493A3F8E493A34003F68001F26E
:10081C0008DFF48029E493A3F85407240CC8C333ED
:10082C00C4540F4420C8834004F456800146F6DFBC
:10083C00E4800B0102040810204080900934E47E0F
:10084C00019360BCA3FF543F30E509541FFEE493B1
:10085C00A360010ECF54C025E060A840B8E493A378
:10086C00FAE493A3F8E493A3C8C582C8CAC583CAA3
:10087C00F0A3C8C582C8CAC583CADFE9DEE780BE5B
:01093A0000BC
:00000001FF
