:0608F6000108AA010AAA94
:0908DF00C292D293D296C2972274
:0708E800C294D296C29722D0
:0708EF00C295C292D29322D0
:03000B000208BA2E
:1008BA00C0E0C0D00509E509B4FF07C295C2947526
:1008CA000900E508B50902D294E50AB50902D295EC
:0508DA00D0D0D0E03297
:10088C00438902758CDC758ADCD28CD2A9D2AF304C
:10089C00B30830B2051208DF80F530B30620B2037E
:0E08AC001208E820B3E930B2E61208EF80E14E
:03000000020800F3
:0C080000787FE4F6D8FD75810A020847F5
:10080C0002088CE493A3F8E493A34003F68001F26E
:10081C0008DFF48029E493A3F85407240CC8C333ED
:10082C00C4540F4420C8834004F456800146F6DFBC
:10083C00E4800B01020408102040809008F6E47E4E
:10084C00019360BCA3FF543F30E509541FFEE493B1
:10085C00A360010ECF54C025E060A840B8E493A378
:10086C00FAE493A3F8E493A3C8C582C8CAC583CAA3
:10087C00F0A3C8C582C8CAC583CADFE9DEE780BE5B
:0108FC0000FB
:00000001FF
