:020000040800F2
:10000000B80600208901000845080008C10300085F
:100010005D060008430200085B17000800000000AE
:10002000000000000000000000000000610D00085A
:100030004702000800000000CD0B00084D0E00082C
:10004000A3010008A3010008A3010008A301000800
:10005000A3010008A3010008A3010008A3010008F0
:10006000A3010008A3010008A3010008A3010008E0
:10007000A3010008A3010008A3010008A3010008D0
:10008000A3010008A3010008A3010008A3010008C0
:10009000A3010008A3010008A3010008A3010008B0
:1000A000A3010008A3010008A3010008A3010008A0
:1000B000A3010008A3010008A3010008A301000890
:1000C000A3010008A3010008A3010008A301000880
:1000D000A3010008A3010008A3010008A301000870
:1000E000A3010008A3010008A301000800F002F822
:1000F00000F03AF80AA090E8000C82448344AAF188
:100100000107DA4501D100F02FF8AFF2090EBAE885
:100110000F0013F0010F18BFFB1A43F0010318473B
:10012000E827000008280000103A24BF78C878C1EA
:10013000FAD8520724BF30C830C144BF04680C60ED
:10014000704700000023002400250026103A28BF35
:1001500078C1FBD8520728BF30C148BF0B60704739
:100160001FB51FBD10B510BD00F031F81146FFF7E7
:10017000F7FF01F08FFB00F04FF803B4FFF7F2FF39
:1001800003BC00F057F800000948804709480047C1
:10019000FEE7FEE7FEE7FEE7FEE7FEE7FEE7FEE737
:1001A000FEE7FEE704480549054A064B7047000094
:1001B000510E0008ED000008B8000020B80600202D
:1001C000B8020020B802002070477047704775469B
:1001D00000F02CF8AE4605006946534620F00700B3
:1001E000854618B020B5FFF7DDFFBDE820404FF091
:1001F00000064FF000074FF000084FF0000B21F011
:100200000701AC46ACE8C009ACE8C009ACE8C009DD
:10021000ACE8C0098D46704710B50446AFF30080C6
:100220002046BDE81040FFF7A8BF00000048704717
:100230005400002001491820ABBEFEE72600020052
:10024000704700BFFEE7704700EBC001C9004FF0E8
:10025000E0225161002191610521116100BF4FF041
:10026000E021096901F480310029F8D004214FF020
:10027000E022116170472DE9F04102460025002679
:10028000002000230024002791F803C00CF00F0584
:1002900091F803C00CF0100CBCF1000F03D091F8E2
:1002A00002C04CEA050591F800C0BCF1000F31D046
:1002B000146800202BE04FF0010C0CFA00F3B1F8A9
:1002C00000C00CEA03069E4220D183004FF00F0CC1
:1002D0000CFA03F7BC4305FA03FC4CEA040491F85A
:1002E00003C0BCF1280F06D14FF0010C0CFA00FC42
:1002F000C2F814C00AE091F803C0BCF1480F05D160
:100300004FF0010C0CFA00FCC2F810C0401C082889
:10031000D1D31460B1F800C0BCF1FF0F34DD5468D4
:1003200000202EE000F1080C4FF0010808FA0CF351
:10033000B1F800C00CEA03069E4221D183004FF0C1
:100340000F0C0CFA03F7BC4305FA03FC4CEA040457
:1003500091F803C0BCF1280F05D100F1080C08FA90
:100360000CF8C2F8148091F803C0BCF1480F07D113
:1003700000F1080C4FF0010808FA0CF8C2F81080E0
:10038000401C0828CED35460BDE8F081024600200E
:1003900093680B400BB1012000E0002070474161E1
:1003A0007047016170474FF6FF7101800221817033
:1003B0000421C17070470AB1016100E041617047DA
:1003C00000BFFEE72DE9F05F81468A463C48C0F851
:1003D0000090C0F804A002465168106801F026FFA2
:1003E000374988600846806820F00045354928462E
:1003F00001F0E0FE01D2002426E03148806820F0C0
:1004000000453149284601F0D5FD09D24FF07E5410
:100410002B4A9168106A01F06DFC2949086213E0CB
:100420002748806820F000462649304601F0F3FE58
:100430000546264901F0CCFC0446214A9168106A21
:1004400001F058FC1E4908621D4AD168906801F00D
:10045000EDFE07461A488169384601F0DFFD054682
:1004600017484169204601F0D9FD83461448016AC6
:10047000584601F0D3FD0746114A9168106901F012
:10048000CDFD8046394601F035FC0646294601F08F
:1004900031FC0B49C86108468068C860C86901F032
:1004A000FDFB074600220A4B01F0FAFA054601F06F
:1004B000C5FA0349486008464068BDE8F09F00005F
:1004C0000C00002000004843000034430000A0411D
:1004D0000000394008B50121082000F099FB4FF4D5
:1004E0007040ADF8000010208DF8030003208DF857
:1004F000020069460448FFF7BEFE4FF4704102480F
:10050000FFF74FFF08BD0000000C01402DE9F05F30
:1005100006460F4690469946DDE90AAB3B2000F0BF
:1005200067F804463C2000F063F8054645EA0420DD
:1005300000B230803D2000F05BF804463E2000F021
:1005400057F8054645EA042000B238803F2000F005
:100550004FF80446402000F04BF8054645EA0420D9
:1005600000B2A8F80000432000F042F804464420FE
:1005700000F03EF8054645EA042000B2A9F8000064
:10058000452000F035F80446462000F031F80546D5
:1005900045EA042000B2AAF80000472000F028F83D
:1005A0000446482000F024F8054645EA042000B23D
:1005B000ABF80000BDE8F09F10B500F099F80121FC
:1005C0006B2000F034F800216C2000F030F8092195
:1005D000192000F02CF806211A2000F028F8182124
:1005E0001B2000F024F818211C2000F020F810BD7A
:1005F00070B5044600F0F0F8D02000F0D8F800F014
:10060000A1F8204600F0D3F800F09CF800F0E4F8E0
:10061000D12000F0CCF800F095F800F0A2F80546E3
:10062000012000F0B8F800F0E5F8284670BD70B57C
:1006300005460C4600F0D0F8D02000F0B8F800F0E5
:1006400081F8284600F0B3F800F07CF8204600F06E
:10065000AEF800F077F800F0CDF870BD00BFFEE70F
:100660002DE9F04104460D46002C0CDC4FF400410E
:100670001E48FFF796FE4FF480411C48FFF78FFE9F
:10068000604204B20AE04FF480411848FFF789FE47
:100690004FF400411548FFF782FE00BF002D0CDC2F
:1006A0004FF480511148FFF77CFE4FF400510F4882
:1006B000FFF775FE684205B20AE04FF400510B489F
:1006C000FFF76FFE4FF480510848FFF768FE00BF48
:1006D000AFB2A6B231464FF0804000F0B2FF3946CB
:1006E0004FF0804000F0ABFFBDE8F081000C01400E
:1006F00008B50121082000F08BFA14208DF80300C2
:100700004FF44060ADF8000003208DF80200694608
:100710000448FFF7B0FD4FF440610248FFF741FE87
:1007200008BD0000000C014010B54FF40061044802
:10073000FFF72CFE04460A20FFF786FD204610BD79
:10074000000C014010B5012000F06EF8012000F00F
:100750005DF8FFF7E9FF0446002000F057F8204657
:1007600010BD70B50025012000F05EF800240EE0F9
:10077000012000F04BF8FFF7D7FF012802D18020BD
:1007800020410543002000F041F8601CC4B2082C51
:10079000EEDB284670BD10B50446204600F044F854
:1007A000012000F033F8002000F030F810BD70B5E3
:1007B000054600240DE08021214101EA050000F0FA
:1007C00033F8012000F022F8002000F01FF8601C30
:1007D000C4B2082CEFDB70BD10B5012000F024F886
:1007E000012000F013F8002000F01EF8002000F0B7
:1007F0000DF810BD10B5002000F016F8012000F033
:1008000005F8012000F010F810BD000010B50446F6
:1008100022464FF480610348FFF7CDFD0A20FFF721
:1008200013FD10BD000C014010B5044622464FF4E4
:1008300000610348FFF7BFFD0A20FFF705FD10BD6B
:10084000000C01407047000002490143024A116058
:10085000704700000000FA050CED00E070B50024C0
:100860000EE00021204600F0F0F8002504E0002012
:1008700000F079F9681CC5B2802DF8DB601CC4B2A9
:10088000082CEEDB70BD000008B50121082000F047
:10089000BFF914208DF8030003208DF802004FF4F7
:1008A0008070ADF8000069460A48FFF7E4FC4FF499
:1008B0000070ADF8000069460648FFF7DCFC012235
:1008C00011020448FFF777FD012251020148FFF7AA
:1008D00072FD08BD000C014070B50546002415E00E
:1008E0008020204100EA05024FF400710E48FFF716
:1008F00062FD012211020C48FFF75DFD00224FF45A
:1009000080710948FFF757FD601CC4B2082CE7DB73
:10091000012211020448FFF74EFD00224FF48071BE
:100920000148FFF748FD70BD000C014010B50122E1
:1009300051020A48FFF73FFD012211020748FFF765
:100940003AFD00224FF400710448FFF734FD002205
:100950004FF480710148FFF72EFD10BD000C0140DF
:1009600010B500224FF400710648FFF724FD012264
:1009700011020448FFF71FFD012251020148FFF751
:100980001AFD10BD000C014070B5002406E00025E2
:1009900000E06D1CB5F57A7FFBD3641CB4F57A7F5B
:1009A000F5D3FFF771FFAE2000F0CDF8D52000F0B1
:1009B000CAF8802000F0C7F8A82000F0C4F83F2053
:1009C00000F0C1F8D32000F0BEF8002000F0BBF822
:1009D000402000F0B8F8A12000F0B5F8C82000F0E1
:1009E000B2F8DA2000F0AFF8122000F0ACF8812065
:1009F00000F0A9F8CF2000F0A6F8D92000F0A3F865
:100A0000F12000F0A0F8DB2000F09DF8302000F08D
:100A10009AF8A42000F097F8A62000F094F88D2012
:100A200000F091F8142000F08EF8AF2000F08BF861
:100A3000FFF714FF70BD10B50246012000E05043DF
:100A40000B1EA1F10101FAD110BD70B505460C468F
:100A500045F0B00000F077F8102141EA141000F0E2
:100A600072F804F00F0000F06EF870BD2DE9F0414F
:100A700005460E461746721ED206110E6A1E520613
:100A8000100EFFF7E2FF002409E0A7F12001134A4E
:100A900002EB0111085D00F066F8601CC4B2082C7E
:100AA000F3DB721ED206110E6A1E012303EB420213
:100AB000D0B2FFF7CAFF00240BE0A7F12001074ADC
:100AC00002EB011204F10801505C00F04CF8601CCC
:100AD000C4B2082CF1DBBDE8F08100001623000849
:100AE0002DE9F0478146884615461E46002D06DB57
:100AF0002B2241464846FFF7B9FF2F4605E02D223D
:100B000041464846FFF7B2FF6F42002417E0301B12
:100B1000411E0A20FFF78FFFB7FBF0F00A21B0FB60
:100B2000F1F201FB120000F1300A08EB0400401C56
:100B3000C1B252464846FFF799FF601CC4B2B442A6
:100B4000E5DBBDE8F08710B50446FFF7EFFE78203F
:100B5000FFF7C2FE0020FFF7BFFE2046FFF7BCFEF6
:100B6000FFF7FEFE10BD10B50446FFF7DFFE78204C
:100B7000FFF7B2FE4020FFF7AFFE2046FFF7ACFEC6
:100B8000FFF7EEFE10BD000000200D490860486030
:100B90008860C860C86108620A480861002048612E
:100BA00088610949086048608860C860C861086257
:100BB0004FF07E5008610020486188617047000056
:100BC0000C000020CDCC8C3F30000020704700008E
:100BD00029B1064AD2690243044BDA6104E0034AB0
:100BE000D2698243014BDA61704700000010024075
:100BF00029B1064A12690243044B1A6104E0034A10
:100C000012698243014B1A617047000000100240D4
:100C100029B1064A92690243044B9A6104E0034AEF
:100C200092698243014B9A617047000000100240B4
:100C300029B1064AD2680243044BDA6004E0034A51
:100C4000D2688243014BDA60704700000010024016
:100C50002DE9F05F81468A463C48C0F80090C0F814
:100C600004A002465168106801F0E0FA3749886034
:100C70000846806820F000453549284601F09AFA78
:100C800001D2002426E03148806820F00045314937
:100C9000284601F08FF909D24FF07E542B4A916813
:100CA000106A01F027F82949086213E02748806894
:100CB00020F000462649304601F0ADFA05462649A7
:100CC00001F086F80446214A9168106A01F012F892
:100CD0001E4908621D4AD168906801F0A7FA0746CC
:100CE0001A488169384601F099F905461748416963
:100CF000204601F093F983461448016A584601F0F2
:100D00008DF90746114A9168106901F087F980460C
:100D1000394600F0EFFF0646294600F0EBFF0B498D
:100D2000C86108468068C860C86900F0B7FF074618
:100D300000220A4B00F0B4FE054600F07FFE034996
:100D4000486008464068BDE8F09F00003000002081
:100D500000004843000034430000A0410000394037
:100D6000704710B500F002F810BD00000CB500206F
:100D7000019000903348006840F4803031490860A9
:100D800000BF3048006800F4003000900198401C1B
:100D90000190009818B90198B0F5A06FF1D12948D9
:100DA000006800F4003010B10120009001E0002044
:100DB00000900098012843D12348006840F01000BB
:100DC000214908600846006820F0030008600846D2
:100DD000006840F0020008601A48406819494860FD
:100DE0000846406848600846406840F480604860B3
:100DF0000846406820F47C1048600846406840F48B
:100E0000E81048600846006840F08070086000BF45
:100E10000C48006800F000700028F9D009484068CC
:100E200020F00300074948600846406840F002008F
:100E3000486000BF0348406800F00C000828F9D162
:100E40000CBD00000010024000200240704700006E
:100E500010B51348006840F00100114908600846C9
:100E60004068104908400E494860084600680E492D
:100E700008400B4908600846006820F4802008609C
:100E80000846406820F4FE0048604FF41F00886068
:100E9000FFF767FF4FF000600449086010BD0000D5
:100EA000001002400000FFF8FFFFF6FE08ED00E032
:100EB000F0B50C46154600220021068C4FF6FE7751
:100EC0003E400684028B018C4FF60C7632407E1C2D
:100ED00006EA03162E433243104EB0420ED0104E97
:100EE000B0420BD0B0F1804F08D00E4EB04205D0CA
:100EF0000D4EB04202D00D4EB04206D14FF6FD76F7
:100F0000314044F00106314305E04FF6F5763140BB
:100F100044F00106314302830184F0BD002C0140FE
:100F2000003401400004004000080040000C004074
:100F3000F0B50C461546002200210026078C4FF61E
:100F4000EF7C07EA0C070784028B018C4FF6FF77D2
:100F500007EA041640F6FF473A404FF6FF7707EAE4
:100F600003373A434FF6FF7707EA05273A43114F15
:100F7000B8420ED0104FB8420BD0B0F1804F08D01D
:100F80000E4FB84205D00E4FB84202D00D4FB842B6
:100F900006D14FF6DF77394046F01007394305E0B8
:100FA0004FF65F77394044F01007394302830184DC
:100FB000F0BD0000002C014000340140000400405E
:100FC00000080040000C0040F0B50C461546002219
:100FD00000210026078C4FF6FF6C07EA0C070784F8
:100FE000828B018C4FF6FF7707EA04264FF60C77C9
:100FF0003A404FF6FF7707EA03172F433A43114F62
:10100000B8420ED0104FB8420BD0B0F1804F08D08C
:101010000E4FB84205D00E4FB84202D00D4FB84225
:1010200006D14FF6FF57394046F48077394305E043
:101030004FF2FF57394044F480773943828301846B
:10104000F0BD0000002C01400034014000040040CD
:1010500000080040000C0040F0B50C461546002288
:1010600000210026078C4EF6FF7C07EA0C07078458
:10107000828B018C4FF6FF7707EA043640F6FF4774
:101080003A404FF6FF7707EA05273A434FF6FF77D6
:1010900007EA03373A43114FB8420ED0104FB84217
:1010A0000BD0B0F1804F08D00E4FB84205D00E4F94
:1010B000B84202D00D4FB84206D14DF6FF77394005
:1010C00046F48057394305E047F6FF57394044F46A
:1010D0008057394382830184F0BD0000002C014019
:1010E000003401400004004000080040000C0040B3
:1010F00008B501210420FFF78BFD0420ADF80000A6
:1011000018208DF8030003208DF802006946084876
:10111000FFF7B1F80820ADF8000018208DF80300A3
:1011200003208DF8020069460148FFF7A4F808BDC6
:1011300000080140F0B587B004460D46012108467D
:10114000FFF746FD00260027ADF81440ADF810501B
:101150000020ADF81600ADF812008DF8180004A9B3
:101160004FF0804000F09EFA6020ADF800000120B2
:10117000ADF80200ADF806600020ADF80800694641
:101180004FF0804000F010FA0821C80600F04AFA3B
:101190006020ADF800000120ADF80200ADF8067047
:1011A0000020ADF8080069464FF0804000F0A2F939
:1011B0000821C80600F0EEF90121880700F00FF8B9
:1011C00007B0F0BD70B504460D46FFF791FF294604
:1011D0002046FFF7AFFF70BDCA430282704721B1BE
:1011E000028842F00102028004E002884FF6FE739A
:1011F0001A4002807047000010B5044668488442D7
:1012000008D10121C014FFF713FD0021E014FFF7FE
:101210000FFDC4E0B4F1804F08D101210846FFF76B
:10122000E7FC00210120FFF7E3FCB8E05D488442C1
:1012300008D101210220FFF7DBFC00210220FFF78B
:10124000D7FCACE05848844208D101210420FFF7C4
:10125000CFFC00210420FFF7CBFCA0E053488442E0
:1012600008D101210820FFF7C3FC00210820FFF767
:10127000BFFC94E04E48844208D101211020FFF7C2
:10128000B7FC00211020FFF7B3FC88E049488442F6
:1012900008D101212020FFF7ABFC00212020FFF71F
:1012A000A7FC7CE04448844208D101214014FFF7A8
:1012B000BFFC00216014FFF7BBFC70E03F48844294
:1012C00009D10121C804FFF7B3FC00214FF400202D
:1012D000FFF7AEFC63E03A48844209D101210805DA
:1012E000FFF7A6FC00214FF48010FFF7A1FC56E0A9
:1012F0003448844209D101214805FFF799FC0021B7
:101300004FF40010FFF794FC49E02F48844208D1C5
:1013100001214020FFF76CFC00214020FFF768FC12
:101320003DE02A48844208D101218020FFF760FC7B
:1013300000218020FFF75CFC31E02548844208D181
:1013400001218015FFF754FC0021A015FFF750FC88
:1013500025E02048844209D101210804FFF768FCF8
:1013600000214FF48030FFF763FC18E01A488442F4
:1013700009D101214804FFF75BFC00214FF4003044
:10138000FFF756FC0BE01548844208D10121880480
:10139000FFF74EFC00214FF48020FFF749FC10BD01
:1013A000002C01400004004000080040000C0040F8
:1013B000001000400014004000340140004C014087
:1013C000005001400054014000180040001C004043
:1013D000002000400040014000440140004801401E
:1013E000F0B50C4615461E46002100220023018957
:1013F000028B038C4FF6F877394021434FF6FC47B8
:101400003A4040F201173A434FF6DD773B404FF642
:10141000FF7707EA06172F433B43018102830384CA
:10142000F0BD000070B505460C46244885420ED03C
:10143000234885420BD0B5F1804F08D02148854222
:1014400005D02148854202D02048854200D100E0E5
:1014500000BF208850B92389A28861882846FFF7F9
:1014600027FDE188284600F0F1F825E020880428CF
:101470000AD12389A28861882846FFF759FDE188AF
:10148000284600F0ECF817E0208808280AD12389C4
:10149000A28861882846FFF797FDE188284600F07A
:1014A000EBF809E02389A28861882846FFF7D4FD7C
:1014B000E188284600F0E9F870BD0000002C0140EA
:1014C000003401400004004000080040000C0040CF
:1014D000002101804180012181800021C1800181A2
:1014E00070471AB183890B43838102E083898B4360
:1014F0008381704770B5002400220023058C4FF6CD
:10150000FF6635400584028C8388848B4FF68F7587
:101510002C404FF6FC752C400D882C434FF6FF55A0
:101520002A400D894FF6FF7606EA05252A434D88A5
:1015300006EA05252A43154DA84202D0144DA842BB
:101540001DD14FF2FF752A404D894FF6FF7606EA0E
:1015500005252A434FF6FF352A408D8806EA0525E2
:101560002A434EF6FF752B404DF6FF752B408D89B3
:1015700006EA05152B43CD8906EA05152B43838022
:101580008483CD888587028470BD0000002C0140D3
:10159000003401400A460021818B4FF6F773194051
:1015A000114381837047000070B50022002300249E
:1015B000058C4EF6FF7635400584038C8488828B3B
:1015C00048F6FF752A404FF6FF452A400D884FF632
:1015D000FF7606EA05252A434DF6FF752B400D8957
:1015E00006EA05352B434D8806EA05352B430B4D9E
:1015F000A84202D00A4DA84208D14BF6FF752C40F4
:101600008D894FF6FF7606EA85152C438480828308
:10161000CD88A0F84050038470BD0000002C01402C
:10162000003401400A460021818B4FF2FF731940BC
:101630004FF6FF7303EA02231943818370478187C2
:101640007047A0F84010704781847047028B4FF6B6
:10165000F3731A400283028B0A4302837047028BA2
:101660004FF2FF331A400283028B4FF6FF7303EAF7
:1016700001231A4302837047828B4FF6F3731A409B
:101680008283828B0A4382837047828B4FF2FF33BF
:101690001A408283828B4FF6FF7303EA01231A43B9
:1016A00082837047002202881D4B98420ED01D4B4A
:1016B00098420BD0B0F1804F08D01B4B984205D018
:1016C0001A4B984202D01A4B984204D14FF68F73AE
:1016D0001A404B881A43174B984207D0164B984232
:1016E00004D04FF6FF431A40CB881A4302808B8800
:1016F00083850B8803850A4B98420BD0094B98428F
:1017000008D00E4B984205D00D4B984202D00D4B9D
:10171000984201D10B7A038601238382704700002F
:10172000002C01400034014000040040000800404B
:10173000000C004000100040001400400040014038
:1017400000440140004801404FF6FF7181800021B4
:101750000180C18041800172704700BFFEE7000038
:1017600000B587B001210220FFF732FA01210420E1
:10177000FFF74EFA04208DF81B00C020ADF81800CA
:1017800003208DF81A0006A91648FEF774FD002004
:10179000ADF80C004720ADF810000020ADF81200A5
:1017A000ADF80E0003A91048FFF77CFF00231A468E
:1017B00003210D48FFF714FE6846FFF789FE6946CE
:1017C0000948FFF72FFE01210748FFF705FD00211B
:1017D0000548FFF739FF01210348FFF700FD07B077
:1017E00000BD0000000801400004004000B587B0C3
:1017F00001210420FFF7ECF901210820FFF708FA86
:101800006846FEF7D0FDC020ADF8000004208DF83A
:10181000030003208DF8020069461C48FEF72BFDEB
:101820001B48FFF7E9FC04A8FFF78EFF0020ADF886
:1018300010004FF6FF70ADF814000020ADF8160050
:10184000ADF8120004A91248FFF72CFF0A231A462C
:1018500003210F48FFF7C4FD01A8FFF739FE06205A
:10186000ADF80C0001A90A48FFF7DCFD012108488A
:10187000FFF7B2FC012211460548FFF732FE0121B5
:101880000348FFF7ACFC07B000BD0000000C0140AE
:10189000000800401CB50024002500260027FFF7A3
:1018A00073F8FEF717FE472140F2E730FFF78AFC96
:1018B000FEF710FE4FF4A060FEF7C6FFFEF77CFEB9
:1018C000FFF74EFFFFF792FFFFF75EF98DE0474805
:1018D0004749484B484ACDE9001048494848FEF777
:1018E00015FE03234648B0F9002001211846FFF7F2
:1018F000F7F803234148B0F9002005211846FFF707
:10190000EFF803233C48B0F9002009211846FFF7FF
:10191000E7F803233748B0F9002001210420FFF73E
:10192000DFF803233248B0F9002005210420FFF737
:10193000D7F803232D48B0F9002009210420FFF730
:10194000CFF800F063F8804600F020FB0446204604
:1019500000F000FB80460623424601210846FFF7BF
:10196000BFF821462748FEF72DFD0546284600F022
:10197000F1FA80460523424608210120FFF7B0F81E
:1019800000F050F8804600F001FB0646304600F0BB
:10199000E1FA80460623424601210220FFF7A0F823
:1019A00031461848FFF754F90746384600F0D2FA96
:1019B00080460523424608210220FFF791F8394668
:1019C000114800F097F9824600F0C4FA0FFA80F847
:1019D00029460D4800F08EF9824600F0BBFA0FFA56
:1019E00080F941464846FEF73BFE70E70A000020BA
:1019F0000800002006000020040000200200002053
:101A0000000000200000A0410000484310B5044839
:101A10000488002102482438FFF716FE204610BD36
:101A20002404004010B504480488002102482438EA
:101A3000FFF70AFE204610BD2408004021F00042B6
:101A4000A2F16052B2F5801F01F0004328BFD2F12D
:101A50007F6C0BD95FEA001C43EAC20242EB507074
:101A600018BF704728BF20F001007047B2F5801FF3
:101A7000BCBF184670474FEA410C1CF5001F02D24C
:101A8000084600F092BB70B500F0B4F80000008981
:101A9000FFF7F6BF4FF00040A0F580007047000050
:101AA000DFF848C170B51CEA111E1EBF1CEA1315F1
:101AB0009EEA0C0F95EA0C0F00F06F8081EA030498
:101AC00023EA4C134EEAD47E21EA4C1141F48011F2
:101AD00043F48013AE44A1FB024CA0FB0365AEF1BE
:101AE0007F7E361955EB0C05A1FB034C4CF100032E
:101AF000A0FB021C16EB0C06654153F100030942E2
:101B000018BF46F0010613F4007F0BD14FEA0331F2
:101B10004FEA0530340341EA155140EA16506FF0A0
:101B200003020AE04FEAC3214FEAC520F40241EA6A
:101B3000555140EA56506FF0020202EB2E4201EB83
:101B4000025585EACE710AD05FEA440C18BF24F032
:101B5000004450F1000041F1000120EAD47040F24D
:101B6000FE7C624500D270BDA84214BF4FF0804495
:101B70004FF04044002E08BF0024BEF1806FA8BF84
:101B8000A1F1C041BDE8704080F282804FF00000BA
:101B900001F1C04101F0004170479EEA0C0F0CEAD0
:101BA000131518BF95EA0C0F06D04FF0000081EA1C
:101BB000030E0EF0004170BD00F01CF88900013EDC
:101BC00000F007B800F009B84FEA430C5FEA5C5C2C
:101BD00008D081EA030100F05BB84FEA410C5FEAEC
:101BE0005C5CF6D14FF00000014970470000FF0730
:101BF0000000F87F0EF1020E2EF0030E5EF8046B6B
:101C0000364205D4012A43EB030515F5001F12D80F
:101C1000012841EB010C1CF5001F0CD80ED14FEA36
:101C2000D17C15F5001F0CEB4C0C0CF1020C08BF1D
:101C30004CEBD37C04E04FF0080C01E04FEAD37C7E
:101C40000CEB4C0526FA05F606F00706B6F1040C77
:101C500006D20EEB860CBDE870404CF0010C6047DC
:101C6000DFE80CF0090B02024FF000414FF00000DA
:101C7000A1F5002170BD19461046012851EB010461
:101C800018BFD4F5001484BF002001F0004170BDDE
:101C90000808A0F500114FEA3101704743004FEAF0
:101CA000D30C4FEA3C0C43401FBF40070CF160517E
:101CB00013F0FE4F70471CF0006F03D100200CF0B2
:101CC000004170470CF0004343EA507010B540EA01
:101CD000CC0000F024FA00BF000000924FEA00019F
:101CE000FFF7D6BF4FF000414FF00000A1F50021F3
:101CF0007047000090EA010F48BF81F0004100F1F9
:101D00009C82421A3CBF801A89184FEAD0524FF089
:101D10007F4C1CEA410FA2EBD15318BF9CEA026F23
:101D200000F03B804FF0004C4CEA00204CEA0121CF
:101D300021FA03FC10EB0C0C1ED202F1FF325FEA19
:101D40001C2040EBC25038BF70471CF07F0F4FEA99
:101D5000400C18BFBCF17F4F38BF7047C3F1200360
:101D6000994008BF20F00100BCF17F4F38BF704799
:101D7000A0F1C04000F019BA4FEA3C00000A40EB65
:101D8000C25028BF1CF0FF0F4FEA400CE6D018BF2E
:101D9000BCF17F4F38BF7047EAE79CEA026F05D07D
:101DA00010EA5C0F08BF00F00040704710B500F06B
:101DB000B6F900BF64FBBE3E401058BFC0F14040C2
:101DC000491058BFC1F140418142EFF30080704794
:101DD0004FF47F0C1CEAD0121EBF1CEAD11392EA0A
:101DE0000C0F93EA0C0F00F0858090EA010F48BFBA
:101DF00042F4807240F4000C41F400002CF07F416A
:101E000020F07F4000B58142A2EB03020FF2081CD4
:101E1000ACEB504EC0F100009EF800E04FEA4E0ED1
:101E200000FB0EFC38BF49004FEA2C1C02F5FA02F9
:101E30000CFB0EF34FEACE1E4FEA112C4FEAC121E4
:101E40000EEB635E42EB22420EFB0CFC4FEA1C538E
:101E500000FB03114FEA112C4FEA01310EFB0CFC81
:101E60004FEADC4C00FB0C11C14228BF09184CEBB7
:101E700003335DF804EB10EB410143EBC250B2F5C4
:101E80007C0F38BF704729D512F0F00F1CBF00F14E
:101E9000C04000F0004070470081828384858687BF
:101EA00088898B8C8D8E8F919293959697999A9C19
:101EB0009D9FA0A2A3A5A7A8AAACAEB0B2B3B5B788
:101EC000B9BCBEC0C2C5C7C9CCCED1D4D7D9DCDF5E
:101ED000E2E6E9ECF0F3F7FAFE0000004FEA400C0E
:101EE0000CF1807CBCF17E4F28BF7047B0F1C04040
:101EF00000F05BB990EA010F0CEAD11348BF42F43D
:101F00008072624538BF634507D213F47F0F16D045
:101F100080EA010000F00040704710B500F0FFF8C3
:101F2000097EFC3E00F005B880EA010000F00040A8
:101F3000704780EA010000F0004000F036B912F46A
:101F40007F0F04BF0248704780EA010000F02DB9FE
:101F50000000C07F41000B0ED3F19E0208D950F45F
:101F600000034FEA032323FA02F048BF40427047C0
:101F700010B500F0D4F800BF4992248000207047CB
:101F80006FF0004282EA200070470000B0FA80F350
:101F900010FA03F2C3F19D030AD0D90501EB122018
:101FA000530638BF704700F1010008BF20F0010060
:101FB0007047000050EA010C00F113801CF5000F7F
:101FC00058BFBCF5000F01D48842704707D710F501
:101FD000000F58BF11F5000F15D488427047894291
:101FE00070471CF5000F04D5BCF5000FF7D58142F2
:101FF00070474FF0807C1CEB400F38BF1CEB410F4B
:1020000001D28142704710B500F089F8922449004E
:102010004FF000504FF08051FFF7CEBE4FF47F0CD1
:102020001CEAD0121EBF1CEAD11392EA0C0F93EAED
:102030000C0F00F0478090EA010F48BF42F4807215
:102040004FF0004C4CEA00204CEA012102EB030265
:10205000A0FB0113A2F50002002918BF43F0010301
:102060005B0028BF4FEA330342EB22425FEA132CA6
:102070004CEBC2502EBFBCEB436FB2F57C0F7047E8
:102080004FEA036CBCF1004F08BF20F00100B2F52D
:102090007C0F38BF70470BD582F0FF0212F5803FEE
:1020A000C8BF704700F1C040D8BF00F00040704783
:1020B00000F5000C5FEA4C0C48BF7047B0F1C0401F
:1020C00000F073B890EA010F0CEAD11348BF42F454
:1020D0008072624538BF634504D280EA010000F097
:1020E0000040704710B500F01AF800BF8900013EAB
:1020F00000F007B800F009B85FEA410C5FEA1C6C19
:1021000008D080EA010000F050B85FEA400C5FEAB6
:102110001C6CF6D14FF00040A0F5800070470EF126
:10212000020E2EF0030E5EF8044B244204D44FEA54
:102130004102B2F17F4F11D84FEA4003B3F17F4F14
:102140000CD80ED14FEAD07CB2F17F4F0CEB4C0C87
:102150000CF1020C08BF4CEBD17C04E04FF0080CF2
:1021600001E04FEAD17C0CEB4C0324FA03F404F0B9
:102170000704B4F1040C06D20EEB840CBDE8104049
:102180004CF0010C6047DFE80CF0070802024FF04A
:102190000040A0F5800010BD0846420018BFD2F1F3
:1021A000807288BF00F0004010BDFF2141EAD0508E
:1021B000C005704751EA000C00F113801CF5000FB8
:1021C00058BFBCF5000F01D48142704707D711F505
:1021D000000F58BF10F5000F15D481427047894297
:1021E00070471CF5000F04D5BCF5000FF7D58842E9
:1021F00070474FF0807C1CEB410F38BF1CEB400F49
:1022000001D28842704780EA010081EA000180EA39
:102210000100FFF7F8BE80F0004090EA010F7FF563
:1022200070AD81F0004100F008B8000090EA010FA5
:1022300048BF81F000413FF564AD421A04D882F0F6
:102240000042A0EB020011444FEAD0524FF07F4C05
:102250001CEA410FA2EBD15318BF9CEA026F4AD08F
:102260004FF0004C4CEA00204CEA012121FA03FC1B
:10227000B0EB0C0C0FD412F0FE0F36D05FEA4C001E
:102280001DD5001240EBC25038BF70471CF03F0F05
:1022900018BF70470BE0A2F101025FEA1C2040EB7F
:1022A000C25038BF70471CF07F0F18BF7047C3F192
:1022B0002003994014BF401E20F0010070478008A1
:1022C0004FEA122308BF7047B0FA80FCA2EB0C0261
:1022D000CCF1280C60FA0CF093EA122F04BF00EB4B
:1022E000C25070474FEAC3707047130A5FEADC10B0
:1022F00008BF7047F6E79CEA026F04D010EA5C0F53
:1023000008BF0020704710B5FFF709FF40DFF63E19
:1023100081F0004070470000000000000000000055
:10232000000000000000000000F8000000000000B5
:1023300000333000000000100C06100C06000000F6
:1023400000000000000040C07840C0784000043F1A
:1023500004043F040400007088FC083000000018EA
:1023600020FF211E0000F008F000E018000000210E
:102370001C031E211E0000F00888700000001E21B2
:1023800023241927211010160E0000000000000061
:10239000000000000000000000E01804020000003F
:1023A00000071820400000020418E0000000004070
:1023B000201807000000404080F0804040000202EA
:1023C000010F01020200000000F000000000010106
:1023D000011F01010100000000000000000080B0AA
:1023E000700000000000000000000000000000017C
:1023F00001010101010100000000000000000030A7
:102400003000000000000000000080601804006040
:1024100018060100000000E010080810E000000F9E
:10242000102020100F00001010F800000000002005
:10243000203F20200000007008080888700000304D
:1024400028242221300000300888884830000018F5
:10245000202020110E000000C02010F8000000070E
:102460000424243F240000F8088888080800001984
:10247000212020110E0000E0108888180000000FB5
:10248000112020110E0000380808C838080000008C
:10249000003F000000000070880808887000001CE1
:1024A000222121221C0000E010080810E00000009A
:1024B000312222110F00000000C0C0000000000007
:1024C000003030000000000000800000000000002C
:1024D0008060000000000000804020100800000123
:1024E00002040810200040404040404040000404E6
:1024F00004040404040000081020408000000020B0
:10250000100804020100007048080808F0000000EC
:10251000003036010000C030C828E810E00007187D
:10252000272423140B000000C038E0000000203CEA
:1025300023020227382008F8888888700000203F8E
:10254000202020110E00C0300808080838000718A5
:1025500020202010080008F808080810E000203F9C
:10256000202020100F0008F88888E8081000203F7D
:1025700020202320180008F88888E8081000203F51
:10258000200003000000C0300808083800000718C9
:102590002020221E020008F808000008F808203F4A
:1025A000210101213F20000808F808080000002050
:1025B000203F2020000000000808F8080800C08024
:1025C00080807F00000008F888C028180800203F9D
:1025D00020012638200008F8080000000000203FF5
:1025E00020202020300008F8F800F8F80800203FEC
:1025F000003F003F200008F830C00008F808203FE6
:10260000200007183F00E01008080810E0000F1035
:10261000202020100F0008F808080808F000203FCC
:10262000210101010000E01008080810E0000F1867
:10263000242438504F0008F8888888887000203F8C
:102640002000030C3020007088080808380000388B
:10265000202121221C00180808F808081800000092
:10266000203F2000000008F808000008F808001FBC
:10267000202020201F000878880000C838080000AB
:1026800007380E010000F80800F80008F800033CC5
:102690000700073C0300081868808068180820308D
:1026A0002C03032C30200838C800C838080000006C
:1026B000203F2000000010080808C8380800203813
:1026C000262120201800000000FE02020200000067
:1026D000007F40404000000C30C0000000000000BF
:1026E00000010638C00000020202FE0000000040A7
:1026F00040407F00000000000402020204000000CD
:1027000000000000000000000000000000008080C9
:1027100080808080808000020204000000000000B1
:102720000000000000000000808080800000001990
:10273000242222223F2008F8008080000000003F71
:10274000112020110E000000008080800000000E8B
:10275000112020201100000000808088F800000E69
:10276000112020103F200000808080800000001F8A
:10277000222222221300008080F0888888180020FE
:10278000203F202000000000808080808000006BBF
:1027900094949493600008F8008080800000203FAB
:1027A000210000203F2000809898000000000020B9
:1027B000203F20200000000000809898000000C00A
:1027C0008080807F000008F8000080808000203F2B
:1027D00024022D302000000808F80000000000202E
:1027E000203F202000008080808080808000203F6B
:1027F00020003F20003F8080008080800000203F3C
:10280000210000203F200000808080800000001F09
:10281000202020201F00808000808000000080FF9A
:10282000A12020110E000000008080808000000E9A
:10283000112020A0FF8080808000808080002020E8
:102840003F21200001000000808080808000003354
:10285000242424241900008080E0808000000000EF
:10286000001F202000008080000000808000001FEA
:10287000202020103F208080800000808080000188
:102880000E300806010080800080008080800F30BC
:102890000C030C300F00008080008080800000203E
:1028A000312E0E3120008080800000808080808169
:1028B0008E701806010000808080808080000021DA
:1028C000302C2221300000000000807C0202000039
:1028D0000000003F404000000000FF00000000003A
:1028E0000000FF0000000002027C800000000040A9
:1028F000403F000000000006010102020404000045
:10290000000000000000000028290008000000204E
:102910000C00000028010008342900080C000020E9
:10292000AC060000440100080000000000000000A8
:0429300000000000A3
:040000050800018965
:00000001FF
