:06000300D2837F0A7E009B
:10000900D3EF9400EE94004015E4FDFC0DBD000112
:0E0019000CED64D24C70F5EF1F70E51E80E216
:0100270022B6
:10002800D280C282C281120003D282C2831200052A
:10003800D281C280120005D283C2827F0A7E00026A
:020048000009AD
:10004A00D280D282C281C283120005C28212000308
:10005A00C280D281120005C283D2827F0A7E000248
:02006A0000098B
:10006C00D280D282D281D2832084051200288003D0
:0C007C0012004A7F2C7E0112000980EC6B
:0300000002008873
:0C008800787FE4F6D8FD75810702006C5B
:00000001FF
