:020000040800F2
:10000000A80B002055020008251E0008291D000825
:10001000211E00084D0400082D29000800000000E2
:10002000000000000000000000000000BD230008E8
:100030006904000800000000B9230008C12300087B
:100040006F0200086F0200086F0200086F020008CC
:100050006F0200086F0200086F0200086F020008BC
:100060006F0200086F0200086F0200086F020008AC
:100070006F0200086F0200086F0200086F0200089C
:10008000510400085D0400086F0200086F020008B8
:100090006F0200086F0200086F0200086F0200087C
:1000A0006F0200086F0200086F0200086F0200086C
:1000B0006F0200086F0200086F0200086F0200085C
:1000C0006F0200086F0200086F0200086F0200084C
:1000D0006F0200086F020008B92800086F020008CC
:1000E0006F0200086F0200086F0200086F0200082C
:1000F0006F0200086F0200086F0200086F0200081C
:100100006F0200086F0200086F0200086F0200080B
:100110006F0200086F0200086F0200086F020008FB
:100120006F0200086F0200086F0200086F020008EB
:100130006F0200086F0200086F0200086F020008DB
:100140006F0200086F0200086F0200086F020008CB
:100150006F0200086F0200086F0200086F020008BB
:100160006F0200086F0200086F0200086F020008AB
:100170006F0200086F0200086F0200080000000014
:100180006F0200086F02000800F002F800F052F859
:1001900014A696E8000CB244B344DA4501D100F04D
:1001A00049F8BAE80F000FA696E83000A5EB040561
:1001B00004EB0607AAEB0704A7F101074FEA1515A0
:1001C0004FEA3414A4F10104AC4201D300F032F838
:1001D00013F0010F18BFFB1A43F0010300F001F800
:1001E000DBE71847282F0000482F0000103A24BFF3
:1001F00078C878C1FAD8520724BF30C830C144BF8C
:1002000004680C6070470000704700000023002461
:1002100000250026103A28BF78C1FBD8520728BF16
:1002200030C148BF0B6070471FB502F05AFC1FBDBC
:1002300010B510BD00F0D0F81146FFF7F5FF02F041
:1002400077FB00F0EEF803B4FFF7F2FF03BC00F019
:10025000F5F800000948804709480047FEE7FEE737
:10026000FEE7FEE7FEE7FEE7FEE7FEE7FEE7FEE766
:1002700004480549054A064B70470000C52300089D
:1002800089010008A8050020A80B0020A80700206D
:10029000A807002053EA020C00F069802DE9F04B1A
:1002A0004FF00006002B1FBFB3FA83F503FA05F4E5
:1002B00024FA05F65E4012BF1643B2FA82F502FA3E
:1002C00005F4C5F120051EBF22FA05FC44EA0C0422
:1002D000203556EA044C4FEA144418BF641C4FF012
:1002E00000084FF00009904271EB030C39D300294C
:1002F00019BFB1FA81F701FA07F6B0FA80F700FAF0
:1003000007F6C7F120071EBF20FA07FC46EA0C06D5
:100310002037B6FBF4FCA7EB0507103F07F01F0BD7
:10032000CBF120062CFA06F60CFA0BFB44BFB346C1
:100330000026202FA4BF5E464FF0000B5BEA060CA0
:1003400008BF4FF0010B19EB0B0948EB0608ABFB9C
:10035000027C06FB02CC0BFB03CCC01B71EB0C0137
:10036000C1E70B46024641464846BDE8F08B13B54F
:10037000084318BF4FF0FF300146AFF30080BDE8DF
:100380001C4070474FF0000200B513469446964655
:10039000203922BFA0E80C50A0E80C50B1F1200198
:1003A000BFF4F7AF090728BFA0E80C5048BF0CC046
:1003B0005DF804EB890028BF40F8042B08BF7047A4
:1003C00048BF20F8022B11F0804F18BF00F8012B16
:1003D0007047704770477047754600F02BF8AE467F
:1003E00005006946534620F00700854618B020B541
:1003F000FFF73EFFBDE820404FF000064FF000073A
:100400004FF000084FF0000BAC46ACE8C009ACE878
:10041000C009ACE8C009ACE8C00921F007018D466D
:10042000704710B50446AFF300802046BDE8104089
:10043000FFF709BF0048704710000020014918204D
:10044000ABBEFEE72600020070470000FEE700009A
:1004500040F29C40C2F2000000F0B4B840F2FC4010
:10046000C2F2000000F0AEB870470000EFF3108059
:1004700072B600BFFEE70000B0B540F27004C2F2F1
:1004800000046268042001210123012501F0AAFE75
:10049000A26804200321012301F0A4FE2278042095
:1004A0000521012301F09EFE62780320012101F065
:1004B0002DFE6068022809D0012811D16078282813
:1004C00018D029281AD102206060B0BDA16840F27E
:1004D0009C020020C2F20002606050542570B0BD42
:1004E0006078282818BFB0BD01200021C4E90101AF
:1004F000B0BD00BF00206060B0BD00BFA16840F289
:100500009C02C2F200025054481CA060B0BD000022
:1005100070B5866D044600F011FB94F83510022981
:1005200028D105462068216C026822F0160202607C
:10053000426922F08002426109B9A16C19B10168D7
:1005400021F008010160016821F00101016000BF94
:1005500020680068C00715D000F0F0FA401B06289C
:10056000F6D320206065032084F83500002184F84C
:10057000341070BD802060650120002184F83410A3
:1005800070BD00BFE06D3F2101FA00F0B0600120B6
:1005900084F835000020002184F8341070BD00007C
:1005A00090F83510022909D1052180F8351000682E
:1005B000016821F001010160002070478021416540
:1005C00001207047F0B581B00021009140F2080190
:1005D000C2F200010B68D0E9166148F2B515376820
:1005E0000822C1F64E358A403A42A3FB05350CD0AD
:1005F00003681C68640708D51C6824F004041C60A8
:10060000B260426D42F00102426501228A403A42E4
:1006100008D003685B691B0604D5B260426D42F0E6
:100620000202426504228A403A4208D003681B68ED
:100630009B0704D5B260426D42F00402426510226D
:100640008A403A4219D001680B681B0715D5B26081
:100650000B680A685B0309D4D20509D40A6822F042
:1006600008020A60016C29B907E000BF110341D4F8
:10067000016C11B1044688472046C26D202101FA61
:1006800002F33B4243D001680F68FF063FD5B360D9
:1006900090F835700B68052F1CD123F016030B6002
:1006A0004B6923F080034B61036C0BB9836C1BB166
:1006B0000B6823F008030B603F219140B1600121DA
:1006C00080F83510016D0022002980F8342054D1C3
:1006D00058E000BF0A685B0310D4D20512D40A6840
:1006E00022F010020A60012180F83510002180F804
:1006F000341007E0816C0029BCD1BEE7110301D49E
:10070000416C00E0C16B11B1044688472046416D41
:10071000C1B3416DC9072ED0052180F8351001689D
:10072000AA0A0B6823F001030B60009B013393427C
:1007300000931AD80B68DB0717D0009B0133934254
:10074000009312D80B68DB070FD0009B0133934254
:1007500000930AD80B68DB0707D0009B0133934254
:10076000009302D80B68DB07DFD1012180F8351038
:10077000002180F83410C16C21B101B0BDE8F04017
:10078000084700BF01B0F0BD2DE9F041044600F07C
:10079000D5F9ECB10546022084F835000020216827
:1007A00084F83400086820F00100086021680868B7
:1007B000C00711D000F0C2F9401B0528F6D9032567
:1007C00020230320636584F83550BDE8F08100BF25
:1007D0000120BDE8F08100BF086848F23F02CFF277
:1007E0001002D4E9013500EA020C04F10C0898E883
:1007F000C10143EA0C032B431843D4E9072E3043CD
:1008000038431043626A40EA0E00042A40EA0803B3
:100810001CD1206BD4E90A2E40EA0E001843086070
:100820004869BEF1000F20F0030040EA020040F0EA
:10083000040C11D0B8F5005F36D0B8F1000F45D1E7
:10084000022A46D0012A3BD032B942E00B60486907
:1008500020F0070040EA020C01F0F8004AF6AB2253
:100860001038CAF6AA22A0FB02231A0943F2041385
:10087000C1F814C0C0F600039A5C40F2FF335F2851
:100880004FF03F0021EA030100FA02F088BF043173
:10089000C4E916128860002301250020636584F8EE
:1008A0003550BDE8F08100BF032AD5D8012540238B
:1008B0000120DFE802F0030E030500BF82E700BF5E
:1008C000AEF1C070B0FA80F0400904E0032A04D30E
:1008D000C2D1CEF300600028BED001254023012004
:1008E000636584F83550BDE8F081000090F834C0AD
:1008F000BCF1010F04BF0220704770B54FF0010C2E
:1009000080F834C0D0F858E090F835C0BCF1010F41
:1009100038D14FF0020C80F835C04FF0000CC0F811
:1009200054C0D0F800C08468056CC06DDCF800606D
:10093000402C26F48026CCF80060CCF804300B461E
:1009400004BF13460A463F2101FA00F0CCF80830F4
:10095000CCF80C20CEF80800DCF8000040F01600BF
:10096000CCF800002DB1DCF8000040F00800CCF815
:100970000000DCF8000040F00100CCF8000000208E
:1009800070BD00BF002180F83410022070BD00004F
:100990002DE9F04F83B000F1200200F13E4741F60F
:1009A0000045009207F1FF77C4F2020508224FEAE2
:1009B000B726A84208BF072200254FF000084FF0D5
:1009C0000009072E38BF4FEAB72201920AE000BFA4
:1009D00009F1010908F10208B9F1100F05F1040548
:1009E00000F0A2800F68012202FA09FE17EA0E0A3F
:1009F000EED0D1F804C003220CF003077E1E02FAE9
:100A000008F4012E6FEA040B12D88468CE6804EA59
:100A10000B0406FA08F634438460446824EA0E06A0
:100A2000CCF3001404FA09F42643466004E000BF46
:100A3000032F01D103271EE0C6688C6806EA0B0667
:100A400004FA08F42643022FC66014D16FF00302A3
:100A5000009E02EA590756F807C005F01C040F2251
:100A60000B69A2402CEA0202A3401A43F251D1F8CA
:100A700004C00CF00307026807FA08F302EA0B024D
:100A80001A431CF4403F0260A2D0002243F6440304
:100A90000292C4F202031A6843F6004442F4804210
:100AA0001A601A68C4F2010402F480420292029AA7
:100AB00029F003024FF6084C2244CFF6FF7C52F88F
:100AC0000C3005F00C070F26BE40B343019E06FA1A
:100AD00007F73B4342F80C30A2684B6842EA0A072A
:100AE00043F60C4CDE0258BF22EA0A07A760C4F2A4
:100AF000010CDCF800209E0242EA0A0758BF22EAF5
:100B00000A07CCF8007062689E0342EA0A0758BFE1
:100B100022EA0A0767602268DB0342EA0A0758BF35
:100B200022EA0A07276053E703B0BDE8F08F000010
:100B3000002A08BF090481617047000040F2A050FC
:100B4000C2F200000068704740F2000040F2A0517D
:100B5000C2F20000C2F2000100780A681044086086
:100B60007047000080B543F60040C4F202000168FF
:100B700041F400710160016841F480610160016825
:100B800041F480710160032000F086F80F2000F02E
:100B900005F800F027F8002080BD000070B540F295
:100BA0000006C2F2000640F208013278C2F20001EB
:100BB0004FF47A730968B3FBF2F20446B1FBF2F129
:100BC000084600F05FFB0F2C4FF0010508D838B93C
:100BD0004FF0FF3021460022002500F031F874600C
:100BE000284670BD82B0002043F640010190C4F257
:100BF00002014A6842F480424A604A6802F4804234
:100C00000192019A0090086840F0805008600868DE
:100C100000F080500090009802B07047002848BF54
:100C2000704700F01F01012202FA01F11C2202EAC2
:100C3000D0004EF20012CEF2000281507047000048
:100C400010B54EF60C5CCEF2000CDCF80030C3F3AD
:100C5000022E8EF00704042C28BF0424BEF10303E7
:100C60004FF0FF3E0EFA04F438BF0023A143994031
:100C70000EFA03F39A43114300F00F0200F16043B0
:100C80000901043A03F564436244002848BF02F1B5
:100C90000C03197010BD00004EF60C51CEF200018D
:100CA0000A684FF6FF031A4060F30A2242F08060A0
:100CB00040F0FD7008607047002804BF01207047B5
:100CC0002DE9F04143F60808C4F202080446D8F8BA
:100CD000F8030D4600F00700884207D288F8F85361
:100CE000D8F8F80300F00700A84277D12068810700
:100CF00017D5410705D5D8F8001041F4E051C8F8E0
:100D00000010010705D5D8F8001041F46041C8F87B
:100D10000010D8F80010A26821F0F0011143C8F8C3
:100D20000010C00740D1D8F8F80300F00700A8422F
:100D300007D988F8F853D8F8F80300F00700A8425C
:100D40004CD12068410707D5D8F80010E26821F49B
:100D5000E0511143C8F80010000708D5D8F800008A
:100D6000216920F4604040EAC100C8F8000000F0AA
:100D70007DF8D8F8001042F6FC22C1F30311C0F64A
:100D80000002515C40F2080220FA01F140F2040036
:100D9000C2F200000068C2F200021160FFF7FEFE1E
:100DA0000020BDE8F08100BF6068811E022907D2E3
:100DB00058F8081C89015CBF0120BDE8F08111E0F2
:100DC000012807D158F8081C89035CBF0120BDE841
:100DD000F08107E058F8081C890703D40120BDE81A
:100DE000F08100BFD8F8001021F003010843C8F8D3
:100DF0000000FFF7A3FE064641F28837D8F800004E
:100E0000616800F00C00B0EB810F8CD0FFF796FE0C
:100E1000801BB842F2D90320BDE8F08140F20800FF
:100E200043F60801C2F20000C4F20201006809683A
:100E300042F60C32C1F38221C0F60002515CC84078
:100E40007047000040F2080043F60801C2F20000BB
:100E5000C4F202010068096842F60C32C1F3423163
:100E6000C0F60002515CC8407047000010B543F660
:100E70000404C4F20204606800F00C0008280BD0DF
:100E8000042819BF42F20040C0F2F40047F64000C7
:100E9000C0F27D1010BD00BF2068216823684902A0
:100EA00047F64001C0F27D1100F03F02C3F3881005
:100EB0005CBF42F20041C0F2F401A1FB000100233B
:100EC000FFF7E8F921680222C1F3014102EB410179
:100ED000B0FBF1F010BD0000002804BF01207047F6
:100EE0002DE9F04182B00446007843F60006C007C1
:100EF000C4F202060CD0B06800F00C00042840F0E8
:100F000081803068800303D56068002800F0688124
:100F1000207880071BD5B06810F00C0F09D0B0689E
:100F200000F00C00082840F087807068400200F153
:100F300083803068800703D5E068012840F0508145
:100F40003068216920F0F80040EAC1003060207864
:100F5000000713D4207840072AD4A569002D00F09B
:100F60003A81B06800F00C00082840F0A580012DFF
:100F700040F00E81012002B0BDE8F08160690028D8
:100F800000F082800020C4F247200121C0F8801EBA
:100F9000FFF7D4FD054600BF706F8007DAD4FFF776
:100FA000CDFD401B0228F7D9032002B0BDE8F08137
:100FB000306C5FEAC0080AD400200190306C40F029
:100FC00080503064306C00F080500190019847F2FE
:100FD0000007C4F200073868C00547D4386840F4F9
:100FE00080703860FFF7AAFD054600BF3868C0056D
:100FF0003CD4FFF7A3FD401B0228F7D9032002B021
:10100000BDE8F081B06800F00C00082803D17068DA
:1010100040023FF576AF61683068B1F5803F07D098
:10102000B1F5A02F40F09A8040F480203060306805
:1010300040F4803030609AE0E068002840F2000020
:10104000C4F247205CD001210160FFF777FD05461F
:10105000306880073FF574AFFFF770FD401B022832
:10106000F6D9032002B0BDE8F08100BFA168306F5F
:10107000012905D0052955D140F004003067306FB3
:1010800040F00100306756E00020C4F24720002104
:10109000C0F8801EFFF752FD054600BF706F800745
:1010A0007FF558AFFFF74AFD401B0228F6D9032011
:1010B00002B0BDE8F08100BF0027C4F2472700203E
:1010C0003866FFF73BFD022D05460DD130688001E3
:1010D00040F18A80FFF732FD401B02284FF00300E9
:1010E000F4D902B0BDE8F0813068800173D5FFF714
:1010F00025FD401B02284FF00300F5D9F1E700BFA2
:1011000000210160FFF71AFD054600BF3068800727
:101110007FF51DAFFFF712FD401B02284FF00300C3
:10112000F4D9DEE720F001003067306F002920F0AD
:10113000040030677AD0FFF701FD054641F2883799
:10114000306F800700F18480FFF7F8FC401BB84245
:10115000F6D9032002B0BDE8F08100BF20F4803052
:1011600030603068002920F4802030607AD0FFF7AA
:10117000E5FC0546306880033FF5CAAEFFF7DEFCAC
:10118000401B6428F6D9032002B0BDE8F08100BFFF
:101190007068E16900F480028A4221D1216A00F07E
:1011A0003F028A421CD147F6C071626A0140B1EB2E
:1011B000821F15D1A16A4FF6FF73C903994300F44A
:1011C0004032A1F580318A420AD1E16A00F07060B4
:1011D000B0EB016F04D1002002B0BDE8F08100BF88
:1011E000012002B0BDE8F08104F11C052FCD0843B9
:1011F00040EA8210D9034FF6FF729143A1F5803186
:1012000040EA05600843706001203866FFF796FCED
:10121000044600BF30688001DDD4FFF78FFC001B5F
:1012200002284FF00300F5D95BE700BFFFF786FC0B
:10123000054641F2883700BF306F800708D5FFF7B9
:101240007DFC401BB8424FF00300F5D949E700BFD1
:10125000B8F1000F3FF581AE306C20F08050306463
:101260007BE600BFFFF76AFC054600BF30688003DD
:101270007FF54EAEFFF762FC401B64284FF0030081
:10128000F4D92EE7411E0020B0EB116F1CBF0120E6
:1012900070474EF21002CEF2000251604EF623511A
:1012A000CEF20001F0230B700721906011607047AF
:1012B0007047000010B504460068416994F83D206D
:1012C000212A56D111F0800153D000BF206850E888
:1012D000050F216820F0800041E80502DAB120689E
:1012E00050E8050F216820F0800041E8050292B126
:1012F000206850E8050F216820F0800041E80502D1
:101300004AB1206850E8050F216820F0800041E8CC
:101310000502002ADAD1606B002818BFFFF7F8F841
:10132000206850E8030F216820F0C00041E8030264
:10133000DAB1206850E8030F216820F0C00041E8CE
:10134000030292B1206850E8030F216820F0C0002A
:1013500041E803024AB1206850E8030F216820F0F9
:10136000C00041E80302002ADAD1202084F83D00C1
:101370002068406994F83E10222940F0A78010F0C0
:10138000400000F0A38000BF206850E8050F2168EE
:1013900020F0400041E80502DAB1206850E8050F6E
:1013A000216820F0400041E8050292B1206850E831
:1013B000050F216820F0400041E805024AB120688D
:1013C00050E8050F216820F0400041E80502002A9E
:1013D000DAD1A06B002818BFFFF79AF8206850E810
:1013E000030F216820F4907041E80302BAB320682B
:1013F00050E8030F216820F4907041E8030272B3B3
:10140000206850E8030F216820F4907041E803023F
:101410002AB3206850E8030F216820F4907041E857
:101420000302002ADAD11AE0206850E8050F21688B
:1014300020F0010041E80502DAB1206850E8050F0C
:10144000216820F0010041E8050292B1206850E8CF
:10145000050F216820F0010041E805024AB120682B
:1014600050E8050F216820F0010041E80502002A3C
:10147000DAD1206B012824D1206850E8030F2168BD
:1014800020F0100041E80302DAB1206850E8030FB1
:10149000216820F0100041E8030292B1206850E872
:1014A000030F216820F0100041E803024AB12068D0
:1014B00050E8030F216820F0100041E80302002AE1
:1014C000DAD1202084F83E0000202063002010BDE7
:1014D00070470000B0B582B001680A68CC684B69FB
:1014E00002F02F05202D04F0200505D125B102B012
:1014F000BDE8B04001F0ECB85FEA027C1EBF03F02B
:10150000010E04F4907313EB0E0341D1036BD50667
:1015100018D5012B16D114F0100313D0002201921C
:101520000A6801924A680192019A496949064BD4B6
:10153000818DC28DC38D002B18BF914240F0F28186
:1015400002B0B0BD13062DD514F080032AD090F858
:101550003D20212AF4D18268B2F5805F03D102696F
:10156000002A00F06382026A531C036212784A6008
:10157000C28C013A1304C284E2D1C86820F0800012
:10158000C860C86840F04000C86002B0B0BD00BF8D
:10159000D30718BF14F4807340F0CE80530700F1D6
:1015A000D180D6E05206CBD514F04002C8D0CA682C
:1015B00022F04002CA60202180F83D1002B0BDE850
:1015C000B04000F0AFBB00BF826B11684B689DB2AA
:1015D000002DB5D0818D8D42B2D2C385D269B2F5CE
:1015E000807F00F0A180016851E8031F026821F4A8
:1015F000807142E80313DBB1016851E8031F026800
:1016000021F4807142E8031393B1016851E8031F8C
:10161000026821F4807142E803134BB1016851E87C
:10162000031F026821F4807142E80313002BDAD112
:10163000016851E8051F026821F0010142E8051325
:10164000BBB3016851E8051F026821F0010142E8BF
:10165000051373B3016851E8051F026821F0010109
:1016600042E805132BB3016851E8051F026821F019
:10167000010142E80513002BDAD11AE0016851E8B4
:10168000051F026821F0400142E80513DBB1016843
:1016900051E8051F026821F0400142E8051393B1AB
:1016A000016851E8051F026821F0400142E8051376
:1016B0004BB1016851E8051F026821F0400142E882
:1016C0000513002BDAD1202180F83E1000210163A0
:1016D000016851E8031F026821F0100142E803137A
:1016E000DBB1016851E8031F026821F0100142E8F4
:1016F000031393B1016851E8031F026821F0100140
:1017000042E803134BB1016851E8031F026821F05E
:10171000100142E80313002BDAD1816B044608461E
:10172000FEF7F6FEA18D2046C28D891A89B202B05D
:10173000BDE8B040FFF7BCBD036C43F00103036498
:10174000530706D5BEF1000F03D0036C43F002032C
:101750000364930706D5BEF1000F03D0036C43F07A
:1017600004030364BCF1000F06D55EEA050303D051
:10177000036C43F008030364036C002B3FF4E0AEFA
:10178000920605D525B1044600F0A2FF2168204647
:101790004969026C01F0400102F00802891800F06A
:1017A000B98000BF016851E8031F026821F49071FD
:1017B00042E80313BBB3016851E8031F026821F438
:1017C000907142E8031373B3016851E8031F026884
:1017D00021F4907142E803132BB3016851E8031F11
:1017E000026821F4907142E80313002BDAD11AE069
:1017F000016851E8051F026821F0010142E8051364
:10180000DBB1016851E8051F026821F0010142E8DF
:10181000051393B1016851E8051F026821F0010129
:1018200042E805134BB1016851E8051F026821F039
:10183000010142E80513002BDAD1016B012924D103
:10184000016851E8031F026821F0100142E8031308
:10185000DBB1016851E8031F026821F0100142E882
:10186000031393B1016851E8031F026821F01001CE
:1018700042E803134BB1016851E8031F026821F0ED
:10188000100142E80313002BDAD1202180F83E102A
:101890000021016301684969490640F1C18001687E
:1018A00051E8051F026821F0400142E80513DBB151
:1018B000016851E8051F026821F0400142E8051364
:1018C00093B1016851E8051F026821F0400142E828
:1018D00005134BB1016851E8051F026821F0400172
:1018E00042E80513002BDAD1816B002900F09880C3
:1018F00042F2D932C0F60002044608460A65FEF7F5
:101900004FFE00283FF41CAEA06B016D02B0BDE895
:10191000B04008470446FFF7DBFD0020206402B01A
:10192000B0BD00BF891A00BF026852E8032F0368E8
:1019300022F4907243E80325BDB3026852E8032FF6
:10194000036822F4907243E8032575B3026852E8F5
:10195000032F036822F4907243E803252DB3026835
:1019600052E8032F036822F4907243E80325002D08
:10197000DAD11AE0026852E8052F036822F001026A
:1019800043E80525DDB1026852E8052F036822F01F
:10199000010243E8052595B1026852E8052F036866
:1019A00022F0010243E805254DB1026852E8052FF7
:1019B000036822F0010243E80525002DDAD1202238
:1019C00080F83E2000220263026852E8032F036879
:1019D00022F0100243E80325DDB1026852E8032F2C
:1019E000036822F0100243E8032595B1026852E82B
:1019F000032F036822F0100243E803254DB102686B
:101A000052E8032F036822F0100243E80325002D5B
:101A1000DAD189B202B0BDE8B040FFF749BC00BFDF
:101A200002B0BDE8B040FFF753BD00BF026A32F814
:101A3000023B6FF35F234B60026299E5002804BF0D
:101A40000120704710B5044690F83D0028B90020E9
:101A500084F83C00204600F021F8242084F83D0062
:101A60002068C16821F40051C160204600F0B0FE3A
:101A70002068016921F490410161416921F02A0146
:101A80004161C16841F40051C160002020212064FF
:101A900084F83D1084F83E1010BD00002DE9F0439D
:101AA00087B0044644F200402168C4F200000026DA
:101AB00081420696CDE904660396029602D007B0ED
:101AC000BDE8F08343F630010196C4F202010A69D1
:101AD00046F2880842F400320A610A6900F5E430EF
:101AE00002F400320192019A01960A68C4F20208D7
:101AF00042F008020A60096801F0080101910199A9
:101B0000602102910221CDE90316032105910721ED
:101B1000069102A9FEF73CFF40F29C45C2F2000587
:101B20004FF000674FF480692846C5E90087C5E992
:101B30000266C5E90496C5E90666C5E90866FEF7CA
:101B400023FE002818BFFEF791FCA563AC6340F2AA
:101B5000FC4508F11800C2F200054021C5E9000764
:101B600005F10800002280E806022846C5E90522A2
:101B7000C5E907226A62FEF707FE002818BFFEF7D4
:101B800075FC2620012100226563AC63FFF758F83D
:101B90002620FFF743F807B0BDE8F083B0B582B068
:101BA00090F83E50202D0FD113460A4600294FF0E1
:101BB000010118BF002B03D1084602B0B0BD00BF21
:101BC00090F83C10012903D10221084602B0B0BDB3
:101BD000012180F83C100024222104638262838565
:101BE000046480F83E10D0F838C042F2615E42F2E0
:101BF000BD65C0F6000EC0F600050168CCE90FE532
:101C000042F2E535C0F60005CCE91354043105462F
:101C10006046FEF76BFE0194296828460A68019227
:101C2000496801910199296985F83C4031B300BFA9
:101C3000016851E8031F026841F4807142E8031310
:101C4000E3B1016851E8031F026841F4807142E882
:101C500003139BB1016851E8031F026841F48071CE
:101C600042E8031353B1016851E8031F026841F4CD
:101C7000807142E80313002BDAD100BF016851E8FC
:101C8000051F026841F0010142E80513BBB301687A
:101C900051E8051F026841F0010142E8051373B3E2
:101CA000016851E8051F026841F0010142E805138F
:101CB0002BB3016851E8051F026841F0010142E8B9
:101CC0000513002BDAD11AE0016851E8051F0268FC
:101CD00041F0400142E80513DBB1016851E8051FFE
:101CE000026841F0400142E8051393B1016851E8F0
:101CF000051F026841F0400142E805134BB101683D
:101D000051E8051F026841F0400142E80513002B2D
:101D1000DAD10021084602B0B0BD000070470000D3
:101D20007047000070470000FEE7000080B582B0F9
:101D30000020019043F63000C4F202000168002246
:101D400041F4001101600068002100F400100190CE
:101D500001981020FEF774FF1020FEF75FFF11209E
:101D600000210022FEF76CFF112002B0BDE8804088
:101D7000FEF754BF70B586B0002543F630000595D8
:101D8000CDE90355CDE901550095C4F20200016883
:101D900040F2004441F0020101600168C4F2020413
:101DA00001F002010091009900950168002241F0C4
:101DB0000801016000684FF4406100F008000090E5
:101DC000009820464FF44066FEF7B2FE0120CDE9B0
:101DD000020501A9204601960495FEF7D9FD06B03B
:101DE00070BD000080B540F25C5044F20041C2F288
:101DF0000000C4F2000100234FF00C0C4FF4E1325C
:101E000080E80E00C0E90333C0E905C3C361FFF7F2
:101E100015FE002808BF80BDBDE88040FEF726BB48
:101E2000FEE70000FEE7000070B540F20044002528
:101E3000C4F2020445F0B000C0B200F045FA102030
:101E400000F042FA0020002600F03EFA20464FF44F
:101E500000610122FEF76CFE20464FF480610122F2
:101E6000FEF766FE20464FF400610022FEF760FE9A
:101E700020464FF480610022FEF75AFE782000F0E1
:101E800023F8402000F020F8002000F01DF8204644
:101E90004FF400610022FEF74BFE20464FF48061B4
:101EA0000122FEF745FE20464FF400610122FEF7B5
:101EB0003FFE701C46B2B6F1FF3FC7DCE8B2013509
:101EC000072828BF70BDB5E7B0B540F20044C4F2A2
:101ED0000204054600F0800220464FF40061FEF740
:101EE00027FE20464FF480610122FEF721FE2046A6
:101EF0004FF480610022FEF71BFE05F040022046F1
:101F00004FF40061FEF714FE20464FF48061012279
:101F1000FEF70EFE20464FF480610022FEF708FE19
:101F200005F0200220464FF40061FEF701FE204636
:101F30004FF480610122FEF7FBFD20464FF48061E3
:101F40000022FEF7F5FD05F0100220464FF4006177
:101F5000FEF7EEFD20464FF480610122FEF7E8FD1A
:101F600020464FF480610022FEF7E2FD05F00802F2
:101F700020464FF40061FEF7DBFD20464FF4806100
:101F80000122FEF7D5FD20464FF480610022FEF7C6
:101F9000CFFD05F0040220464FF40061FEF7C8FDB6
:101FA00020464FF480610122FEF7C2FD20464FF427
:101FB00080610022FEF7BCFD05F0020220464FF4CE
:101FC0000061FEF7B5FD20464FF480610122FEF767
:101FD000AFFD20464FF480610022FEF7A9FD05F019
:101FE000010220464FF40061FEF7A2FD20464FF4A7
:101FF00080610122FEF79CFD20464FF480610022A3
:10200000FEF796FD20464FF480610122FEF790FD19
:1020100020464FF480610022BDE8B040FEF788BD45
:1020200010B586B00020019043F63000C4F20200E3
:10203000016840F2004441F0020101600068C4F20E
:10204000020400F0020001900198112002904FF468
:10205000406001900320049001A92046FEF798FCFF
:1020600020464FF480610122FEF762FD20464FF4C6
:1020700000610122FEF75CFDAE2000F025F9D520BD
:1020800000F022F9802000F01FF9A82000F01CF9D0
:102090003F2000F019F9D32000F016F9002000F0DD
:1020A00013F9402000F010F9A12000F00DF9C8202C
:1020B00000F00AF9DA2000F007F9122000F004F924
:1020C000812000F001F9CF2000F0FEF8D92000F0C7
:1020D000FBF8F12000F0F8F8DB2000F0F5F83020F4
:1020E00000F0F2F8A42000F0EFF8A62000F0ECF8E1
:1020F0008D2000F0E9F8142000F0E6F8AF2000F0A1
:10210000E3F8FFF791FE06B010BD00002DE9F0479F
:1021100080467E2000EB480017466FF0070240F033
:10212000B00002EBC104C0B2E5B200F0CDF828095E
:1021300000F11009484600F0C7F804F0080A5046BC
:1021400000F0C2F842F61430C0F6000000EB0711B0
:102150004FF60060CFF6FF70085CA1F5007600F046
:10216000EFF87078B778F478357900F0E9F8384608
:1021700000F0E6F8204600F0E3F8284600F0E0F82A
:10218000707900F0DDF8B07900F0DAF8F07900F05D
:10219000D7F84FF0FF3000EB480040F0B000C0B27D
:1021A00000F092F8484600F08FF8504600F08CF8A6
:1021B000307A00F0C5F8707A00F0C2F8B07A00F01A
:1021C000BFF8F07A00F0BCF8307B00F0B9F8707B13
:1021D00000F0B6F8B07B00F0B3F8F07BBDE8F04754
:1021E00000F0AEB8002B08BF70472DE9F04F81B06A
:1021F000A3F1010B1C4691468A460746981E00260D
:1022000042F210785D4600901CE000BF0120B9FB4F
:10221000F0F04CF6CD41CCF6CC41A0FB0112D20837
:1022200002EB8202A0EB420006EB0A0140F0300014
:10223000C2B2C9B23846FFF769FF0136A642A5F11E
:10224000010527D05E45E1D00098801B032801D20C
:10225000012007E025F00301012000BF043900FB45
:1022600008F0FBD1F143214411F00301CFD0012943
:1022700004D100EB80004000C9E700BF4FF47A7240
:10228000424302294FF0640108BF00FB01F21046EF
:10229000BDE700BF01B0BDE8F04F7047F0B581B0B9
:1022A000144612786AB10D46064600277819C1B265
:1022B000D2B23046FFF72AFF0137F8B2225C002A7B
:1022C000F4D101B0F0BD0000B0B540F20044C4F25A
:1022D0000204054620464FF400610122FEF728FC67
:1022E00020464FF480610122FEF722FC20464FF485
:1022F00000610022FEF71CFC20464FF480610022A2
:10230000FEF716FC7820FFF7DFFD0020FFF7DCFD6D
:102310002846FFF7D9FD20464FF400610022FEF762
:1023200007FC20464FF480610122FEF701FC2046A5
:102330004FF400610122BDE8B040FEF7F9BB000098
:10234000B0B540F20044C4F20204054620464FF402
:1023500000610122FEF7ECFB20464FF48061012270
:10236000FEF7E6FB20464FF400610022FEF7E0FB9B
:1023700020464FF480610022FEF7DAFB7820FFF759
:10238000A3FD4020FFF7A0FD2846FFF79DFD204656
:102390004FF400610022FEF7CBFB20464FF4806132
:1023A0000122FEF7C5FB20464FF400610122BDE883
:1023B000B040FEF7BDBB0000704700007047000052
:1023C000FEF7C2BB4EF68850CEF20000016841F421
:1023D0007001016070470000806B0021C185C184DD
:1023E000FFF776B8806B01684A6990F83D30212B81
:1023F0002DD112F080022AD00021C184016851E859
:10240000031F026821F0C00142E80313DBB1016839
:1024100051E8031F026821F0C00142E8031393B1A1
:10242000016851E8031F026821F0C00142E803136C
:102430004BB1016851E8031F026821F0C00142E876
:102440000313002BDAD1202180F83D10016849697F
:1024500090F83E20222A40F07D8011F0400179D092
:102460000021C185016851E8031F026821F49071C1
:1024700042E80313BBB3016851E8031F026821F46B
:10248000907142E8031373B3016851E8031F0268B7
:1024900021F4907142E803132BB3016851E8031F44
:1024A000026821F4907142E80313002BDAD11AE09C
:1024B000016851E8051F026821F0010142E8051397
:1024C000DBB1016851E8051F026821F0010142E813
:1024D000051393B1016851E8051F026821F001015D
:1024E00042E805134BB1016851E8051F026821F06D
:1024F000010142E80513002BDAD1016B012924D137
:10250000016851E8031F026821F0100142E803133B
:10251000DBB1016851E8031F026821F0100142E8B5
:10252000031393B1016851E8031F026821F0100101
:1025300042E803134BB1016851E8031F026821F020
:10254000100142E80313002BDAD1202180F83E105D
:1025500000210163016C41F010010164FEF7B8BF76
:102560000168806B0968C90500F19F800021C18561
:10257000016851E8031F026821F4807142E80313E7
:10258000E3B1016851E8031F026821F4807142E859
:1025900003139BB1016851E8031F026821F48071A5
:1025A00042E8031353B1016851E8031F026821F4A4
:1025B000807142E80313002BDAD100BF016851E8B3
:1025C000051F026821F0010142E80513BBB3016851
:1025D00051E8051F026821F0010142E8051373B3B9
:1025E000016851E8051F026821F0010142E8051366
:1025F0002BB3016851E8051F026821F0010142E890
:102600000513002BDAD11AE0016851E8051F0268B2
:1026100021F0400142E80513DBB1016851E8051FD4
:10262000026821F0400142E8051393B1016851E8C6
:10263000051F026821F0400142E805134BB1016813
:1026400051E8051F026821F0400142E80513002B04
:10265000DAD1202180F83E10016B012925D100BF7D
:10266000016851E8031F026821F0100142E80313DA
:10267000DBB1016851E8031F026821F0100142E854
:10268000031393B1016851E8031F026821F01001A0
:1026900042E803134BB1016851E8031F026821F0BF
:1026A000100142E80313002BDAD1016B012918BF96
:1026B000FFF734BB818DFEF7FBBD0000806B016B23
:1026C000012918BFFFF72CBB818D4908FEF7F0BD2B
:1026D00081B090F83E10222921D183680246B3F5DB
:1026E000805F09D152F8281F52F8183C002B63D0A4
:1026F00003685B680AE000BF52F8281F13B903693A
:10270000002BF5D003685B6803F07F030B70116842
:1027100001311160C18D01390A04C18502D001B0B7
:10272000704700BF0168CA6822F02002CA60CA6808
:1027300022F48072CA604A6922F001024A612021B3
:1027400080F83E10016B01293ED10021016300BFDA
:10275000016851E8031F026821F0100142E80313E9
:10276000DBB1016851E8031F026821F0100142E863
:10277000031393B1016851E8031F026821F01001AF
:1027800042E803134BB1016851E8031F026821F0CE
:10279000100142E80313002BDAD101680A68D2065F
:1027A00006D5002200920A680092496800910099BB
:1027B000818D01B0FEF77CBD026852686FF35F2225
:1027C00021F8022B8162A5E701B0FFF7A7BA00004C
:1027D000B0B50446006804F108030ECB056919433F
:1027E00025F440552A4302616269E3691143C268D6
:1027F000194349F20C639A431143C1604169A269CC
:1028000021F4407141F20043114340F48062C4F26C
:1028100001039A42416103D1FEF714FB02E000BFBD
:10282000FEF7FCFAE1694FF69C7563681922C0F661
:10283000FF75B1F5004FA0FB02011FD15A00DB0F5D
:10284000FDF728FD48F21F51C5F2EB11A0FB012353
:102850005A0905F1805302FB0300322303EBC00049
:10286000A0FB01014FF4F87000EA111000EB021018
:10287000C1F34211084421688860B0BD9A009B0FE3
:10288000FDF708FD48F21F51C5F2EB11A0FB012333
:102890005A0902FB0500322303EB0010A0FB0101E3
:1028A000F02000EA511000EB0210C1F3431108447C
:1028B00021688860B0BD0000B0B582B040F25C54C1
:1028C000C2F2000420680168C90624D540F27005F0
:1028D000C2F200052978F1B9002101910168019146
:1028E0004068019001982046FEF7E4FCFDF7C4FD26
:1028F000A06B40F29C020068C2F200024068052111
:10290000C0F10500A8700320FFF7C8FC691C204631
:102910000122FFF743F900F079F840F25C50C2F26F
:10292000000002B0BDE8B040FEF7D4BDFEE70000F5
:1029300092B0FEF717F906AC20463021FDF722FDD4
:10294000002543F640000595CDE90355CDE9015535
:102950000095C4F20200016841F0805101600068F6
:1029600000F080500090009847F200000095C4F2FB
:102970000000016841F480410160006800F480407B
:1029800000900098022006900120099010200A90E3
:1029900020460C95FEF7A0FA20B1EFF3108072B636
:1029A000FEE700BF0F20CDE9010501A80021CDE918
:1029B00003550595FEF780F920B1EFF3108072B64C
:1029C000FEE700BFFFF7D6F9FFF7B0F9FFF70AFA05
:1029D000FFF726FB40F25C54C2F2000440F27101A2
:1029E000C2F2000120460122FFF7D8F8206805A4B2
:1029F000C16841F01001C160012001212246FFF7AA
:102A00004DFCF9E748454C4C4F000000B0B540F292
:102A10007005C2F200052878002808BFB0BD40F25A
:102A20009C04C2F20004022001212246FFF736FC7A
:102A30002078313807280BD8DFE800F00436182258
:102A40000E404A2CA0786C2814BF02200120E860B8
:102A500000202870B0BD00BFA0786C2814BF0220F1
:102A60000120E86100202870B0BD00BFA0786C286C
:102A700014BF02200120686100202870B0BD00BF93
:102A8000A0786C2814BF02200120A86100202870C3
:102A9000B0BD00BFA0786C2814BF02200120A8623E
:102AA00000202870B0BD00BFA0786C2814BF0220A1
:102AB0000120286100202870B0BD00BFA0786C28DC
:102AC00014BF02200120286200202870B0BD00BF82
:102AD000A0786C2814BF02200120686200202870B2
:102AE000B0BDF1EE100A4FF6FF71C0F2C03120EA1E
:102AF000010040F04070E1EE100A70470000000055
:102B0000000000000102030406070809000000009D
:102B100001020304000000000000000000000000AB
:102B200000000000000000F800000000000000337A
:102B30003000000000100C06100C06000000000021
:102B40000000000040C07840C0784000043F04040A
:102B50003F040400007088FC08300000001820FFCB
:102B6000211E0000F008F000E018000000211C0306
:102B70001E211E0000F00888700000001E21232482
:102B80001927211010160E000000000000000000A0
:102B900000000000000000E0180402000000000730
:102BA0001820400000020418E00000000040201837
:102BB00007000000404080F0804040000202010F0A
:102BC00001020200000000F0000000000101011FEE
:102BD00001010100000000000000000080B0700052
:102BE00000000000000000000000000000010101E2
:102BF0000101010100000000000000000030300071
:102C0000000000000000000080601804006018064A
:102C10000100000000E010080810E000000F102084
:102C200020100F00001010F8000000000020203FCE
:102C30002020000000700808088870000030282458
:102C400022213000003008888848300000182020F9
:102C500020110E000000C02010F80000000704241E
:102C6000243F240000F80888880808000019212063
:102C700020110E0000E0108888180000000F1120BD
:102C800020110E0000380808C83808000000003F76
:102C9000000000000070880808887000001C2221D5
:102CA00021221C0000E010080810E0000000312282
:102CB00022110F00000000C0C00000000000003022
:102CC0003000000000000080000000000000806074
:102CD00000000000000080402010080000010204F5
:102CE00008102000404040404040400004040404DC
:102CF0000404040000081020408000000020100898
:102D000004020100007048080808F00000000030CC
:102D100036010000C030C828E810E000071827245A
:102D200023140B000000C038E0000000203C230208
:102D30000227382008F8888888700000203F20206B
:102D400020110E00C030080808083800071820209D
:102D50002010080008F808080810E000203F202094
:102D600020100F0008F88888E8081000203F202075
:102D70002320180008F88888E8081000203F200069
:102D800003000000C03008080838000007182020A1
:102D9000221E020008F808000008F808203F210160
:102DA00001213F20000808F8080800000020203F0B
:102DB0002020000000000808F8080800C08080807B
:102DC0007F00000008F888C028180800203F200174
:102DD0002638200008F8080000000000203F2020CE
:102DE0002020300008F8F800F8F80800203F003FE5
:102DF000003F200008F830C00008F808203F2000FD
:102E000007183F00E01008080810E0000F1020200D
:102E100020100F0008F808080808F000203F2101E2
:102E200001010000E01008080810E0000F18242439
:102E300038504F0008F8888888887000203F2000AC
:102E4000030C302000708808080838000038202162
:102E500021221C00180808F8080818000000203F6C
:102E60002000000008F808000008F808001F2020D3
:102E700020201F000878880000C8380800000738A4
:102E80000E010000F80800F80008F800033C0700F5
:102E9000073C0300081868808068180820302C035D
:102EA000032C30200838C800C83808000000203F34
:102EB0002000000010080808C83808002038262123
:102EC00020201800000000FE020202000000007F27
:102ED00040404000000C30C0000000000000000135
:102EE0000638C00000020202FE0000000040404020
:102EF0007F00000000000402020204000000000045
:102F000000000000000000000000000080808080C1
:102F100080808080000202040000000000000000A9
:102F20000000000000008080808000000019242242
:102F300022223F2008F8008080000000003F11207E
:102F400020110E000000008080800000000E112083
:102F500020201100000000808088F800000E112061
:102F600020103F200000808080800000001F22226F
:102F700022221300008080F0888888180020203FDB
:102F8000202000000000808080808000006B9494EE
:102F90009493600008F8008080800000203F2100AA
:102FA00000203F2000809898000000000020203F73
:102FB00020200000000000809898000000C0808061
:102FC000807F000008F8000080808000203F2402FD
:102FD0002D302000000808F8000000000020203FED
:102FE000202000008080808080808000203F2000A2
:102FF0003F20003F8080008080800000203F210033
:1030000000203F200000808080800000001F2020E2
:1030100020201F00808000808000000080FFA12011
:1030200020110E000000008080808000000E112022
:1030300020A0FF80808080008080800020203F21B1
:103040002000010000008080808080000033242464
:1030500024241900008080E0808000000000001F10
:10306000202000008080000000808000001F2020C1
:1030700020103F20808080000080808000010E3082
:103080000806010080800080008080800F300C03E3
:103090000C300F0000808000808080000020312EE6
:1030A0000E312000808080000080808080818E70C2
:1030B0001806010000808080808080000021302C74
:1030C0002221300000000000807C0202000000008D
:1030D000003F404000000000FF0000000000000032
:1030E000FF0000000002027C800000000040403F22
:1030F00000000000000601010202040400000000BC
:1031000000000000000610160006101630310008FE
:103110000000002010000000EC0100084031000811
:1031200010000020980B00000C02000800000000B6
:1031300001000000100000000024F4000000000066
:040000050800018965
:00000001FF
