:03000000020003F8
:0C000300787FE4F6D8FD75811A02004AEF
:10018F004B4559204E554D4245523A20202048208C
:10019F000020204B45592D434F44453A20202048FD
:0201AF0020002E
:1001FD00010900100B31323341343536423738396D
:05020D00432A302344E8
:100213007580FFC2A0D2A1C2A2C2A2D2A2E5802051
:05022300E7FBAF8022A3
:0701E700E4FC7F381201CF98
:0E01EE007FB07E15EF1FAC0670011E4C70F640
:0101FC0022E0
:10022800AE071202138E80D2A0C2A1C2A2C2A2D26D
:04023800A2C2A2229A
:1001CF00AE07ED4C60031202138E80C2A0C2A1C213
:0801DF00A2C2A2D2A2C2A22218
:0D024C00D2A0D2A1C2A2C2A2D2A2AF802233
:10016600E4F580FD1201E81201E71201E70D7C00BB
:100176007F381201CF7F081201CF7F011201CF7F96
:09018600061201CF7F0C0201CF2B
:1001B100AE0753050153060FED60034306404306A6
:0E01C10080AF06E4FDFC1201CFAF030202285E
:10008F007590F08590085308F0E508C4540F44F0BC
:10009F00F4F508B40105E4F509801CE508B4020580
:1000AF007509018012E508B404057509028008E599
:1000BF0008B4080375090375900F85900853080F4E
:1000CF00E50844F0F4F508B40105850909801DE53C
:1000DF0008B4020474048010E508B40404740880A2
:1000EF0007E508B40806740C2509F50985090A53B4
:1000FF000A0FE50AD394094004743780027430253F
:04010F000AF50A22C1
:10023C007590F01201EEE59064F0600312008F22CD
:100113007580FF75A0FF1201EE120166E4FAEA9002
:10012300018F93FB600AAF02E4FD1201B10A80EE76
:10013300E4FAEA9001A093FB600AAF027D01120189
:10014300B10A80EE750A2D12023CAB0AE4FD7F0C66
:100153001201B1740B2509F8E6FB7D017F0C120136
:03016300B180E484
:10000F00020113E493A3F8E493A34003F68001F2F3
:10001F0008DFF48029E493A3F85407240CC8C333F2
:10002F00C4540F4420C8834004F456800146F6DFC1
:10003F00E4800B01020408102040809001FDE47E53
:10004F00019360BCA3FF543F30E509541FFEE493B6
:10005F00A360010ECF54C025E060A840B8E493A37D
:10006F00FAE493A3F8E493A3C8C582C8CAC583CAA8
:10007F00F0A3C8C582C8CAC583CADFE9DEE780BE60
:0102120000EB
:00000001FF
