:10086000D3EF9400EE940040147D727C00ED1D7077
:0D087000011CED4C70F7EF1F70E61E80E3D9
:01087D002258
:09088A00C292D293D296C29722C9
:03000B00020840A8
:10084000C0E0C0D00509E509B4FF07C295C29475A0
:100850000900E508B50904D294D295D0D0D0E03291
:10080000438902758CDC758ADCD28CD2A9D2AF12F6
:10081000088A20B0137F057E0012086020B009E529
:1008200008C394AA5002050820B1E47F057E001297
:10083000086020B1DAE508D3940040D3150880CFD2
:0300000002087E75
:0C087E00787FE4F6D8FD758109020800BF
:00000001FF
