:0304390025640037
:0F0417007BFF7A047939750B00750C0A020068B7
:01043C00229D
:03000300020432C2
:070432005388F043880132FA
:03000000020426D1
:0C042600787FE4F6D8FD758121020417F0
:10000600E517240BF8E60517227808300702780B67
:10001600E475F0011203BA0203622000EB7F2ED2D0
:10002600008018EF540F2490D43440D4FF30040BD2
:10003600EF24BFB41A0050032461FFE518600215CF
:1000460018051BE51B7002051A30070D7808E475C4
:10005600F0011203BAEF0203A80203F07403D207F9
:100066008003E4C207F5178B088A09890AE4F518A4
:10007600F51AF51BE51860077F2012004180F5751B
:1000860019FFC201C200C202C203C205C206C208EB
:1000960012000FFF700D3007057F00120052AF1BD4
:1000A600AE1A22B4255FC2D5C20412000FFF24D0B7
:1000B600B40A00501A75F00A781830D50508B6FF4C
:1000C6000106C6A426F620D5047002D20380D924E0
:1000D600CFB41A00EF5004C2E5D204020252D20194
:1000E60080C6D20080C0D20280BCD2D580BAD205EA
:1000F60080B47F201200412002077401B518004029
:10010600F1120006FF12004102007AD208D20680E0
:1001160095120006FB120006FA120006F94A4B7009
:100126000679237A037BFF20022EE518602A7E00DB
:100136008E8275830012037B60060EEE651970F0E1
:10014600C2D5EBC0E0EAC0E0E9C0E0EE120299D009
:10015600E0F9D0E0FAD0E0FB120362FF60AAEBC040
:10016600E0EAC0E0E9C0E0120041D0E02401F9D0A5
:10017600E03400FAD0E0FBE5190460DCD519D9803B
:10018600877BFF7A027995D202809C79108002796A
:1001960008C206C2088008D2D5790A8004790AC244
:1001A600D5E519047002F519E4FAFDFEFF12000602
:1001B600FC7B08200113120006FD7B1030000A129A
:1001C6000006FE120006FF7B20EC3382D592D55046
:1001D60013C3E43000069FFFE49EFEE42001039D66
:1001E600FDE49CFCE4CBF8C201EC700CCFCECDCC88
:1001F600E824F8F870F38017C3EF33FFEE33FEED13
:1002060033FDEC33FCEB33FB994002FB0FD8E9EBF3
:10021600300105F8D0E0C448B201C0E00AEC4D4E0A
:100226004F78207B0070C2EAB5190040BCC0E012CE
:10023600029BD0F0D0E0200104C4C0E0C4B201C0EB
:10024600F012002AD0F0D5F0EB02007A1203CA01B0
:10025600175301915800E84C00E44201954F019D67
:0F02660044019D4900FD4301A3550187460187CF
:100275004501874703435000EC2D00F02E01132B59
:1002850000F423011120032C2A00AC480000010BC7
:100295003F3F3F00790AA2D5200314300509B91064
:1002A500020404B9080104A2D52006025001042065
:1002B50002689202B518005034C0E07F203003195F
:1002C5007F30A20272067205500F1202F2C202C2FC
:1002D50006C205C2087F30800F300503E9C0E01271
:1002E5000041300503D0E0F9D0E0B518CC30051752
:1002F5007F30B9100C1200417F583004077F788099
:1003050003B908031200413002057F2D0200417F29
:10031500202008F87F2B2006F322920280CF286E3A
:10032500756C6C2900D2011200063001F8C2017803
:100335001830D50108F60200AC2D5043495812007B
:10034500062403B405004001E490033E93120032F5
:0D035500743A120032D203751804020191AF
:10036200BB010689828A83E0225002E722BBFE0299
:09037200E32289828A83E49322CC
:10037B00BB010CE58229F582E5833AF583E0225037
:10038B0006E92582F8E622BBFE06E92582F8E22281
:0D039B00E58229F582E5833AF583E493229B
:1003A800BB010689828A83F0225002F722BBFE0134
:0203B800F3222E
:1003BA00FAE6FB0808E6F925F0F618E6CA3AF62244
:1003CA00D083D082F8E4937012740193700DA3A3C2
:1003DA0093F8740193F5828883E4737402936860D6
:0603EA00EFA3A3A380DFD6
:1003F000EFB40A07740D1203FB740A309811A89920
:10040000B8130CC2983098FDA899C298B811F6306C
:0704100099FDC299F5992244
:00000001FF
