:030000000200B942
:0C00B900787FE4F6D8FD75813902010063
:100233000134010137010138000139001123202065
:1002430053706565643A303030722F73202000C1DB
:0102530000AA
:1002DC007580FFC2A0D2A1C2A2C2A2D2A2E5802088
:0502EC00E7FBAF8022DA
:0702C600E4FC7F381202AED8
:0E02CD007FB07E15EF1FAC0670011E4C70F660
:0102DB002200
:1002F100AE071202DC8E80D2A0C2A1C2A2C2A2D2DB
:04030100A2C2A222D0
:1002AE00AE07ED4C60031202DC8E80C2A0C2A1C26A
:0802BE00A2C2A2D2A2C2A22238
:0D000E00D2A0D2A1C2A2C2A2D2A2AF802273
:07033800EF4480FF0202AE5A
:1001E200E4F580FD1202C71202C61202C60D7C009F
:1001F2007F381202AE7F081202AE7F011202AE7F7A
:09020200061202AE7F0C0202AEEE
:10025500AE0753050153060FED6003430640430601
:0E02650080AF06E4FDFC1202AEAF030202F110
:0E032900EF1F70011ED3EF9401EE940050F20E
:0103370022A3
:100291002090197FC87E001203292090020537E5BE
:0D02A10037D3940F40037537013090FD22D4
:1003050020910F7FC87E00120329209102B2003090
:0303150090FD2236
:03000B0002020BE3
:10020B00C0E0C0D00534E534D3940F4003753401FE
:10021B00E534D395375004C2018002D201758CFCB2
:08022B00758A66D0D0D0E032E4
:03000300020318DD
:10031800C0E0C2A80536E53670020535D2A8D0E09F
:0103280032A2
:03001B0002001EC2
:10001E00C0E0C0F0C0D075D000C000C004C005C0A4
:10002E0006C007758D4C758B00AE35AF367C017DE5
:10003E002C1201458E358F361C7D031201577C0024
:10004E007D141201458E218F220C7D2C1201578EAC
:10005E00218F227C007D64120157EF2430F52BB4E2
:10006E003003752B20AE21AF227C007D6412015728
:10007E008C218D22AE21AF227C007D0A120157EF1A
:10008E002430F52CAE21AF227C007D0A120157EDF3
:10009E002430F52D753500753600D007D006D00505
:0B00AE00D004D000D0D0D0F0D0E03261
:10027300758910758D4CE4F58BD2ABD28ED2A975EE
:0E0283008CFC758A66D28CD288D2A8D2AF22AB
:1001AC001202731201E2120291120305300006A230
:1001BC000192A6C2A7200006A20192A7C2A6E4FA49
:1001CC00EAC3941050E0AF0274232AF8E6FBE4FD76
:0601DC001202550A80EA40
:1000C5000201ACE493A3F8E493A34003F68001F2A4
:1000D50008DFF48029E493A3F85407240CC8C3333C
:1000E500C4540F4420C8834004F456800146F6DF0B
:1000F500E4800B0102040810204080900233E47E66
:10010500019360BCA3FF543F30E509541FFEE493FF
:10011500A360010ECF54C025E060A840B8E493A3C6
:10012500FAE493A3F8E493A3C8C582C8CAC583CAF1
:10013500F0A3C8C582C8CAC583CADFE9DEE780BEA9
:0102540000A9
:10014500EF8DF0A4A8F0CF8CF0A428CE8DF0A42ECE
:02015500FE2288
:10015700BC000BBE0029EF8DF084FFADF022E4CC8C
:10016700F875F008EF2FFFEE33FEEC33FCEE9DEC55
:10017700984005FCEE9DFE0FD5F0E9E4CEFD22ED9B
:10018700F8F5F0EE8420D21CFEADF075F008EF2FE5
:10019700FFED33FD4007985006D5F0F222C398FDD6
:0501A7000FD5F0EA2273
:00000001FF
