:03000000020115E5
:0C011500787FE4F6D8FD75813102015CB2
:1002FB00012C000B213F065B4F666D7D077F6F80E6
:10030B0008090102040810204080081102000204B1
:10031B0000050300012E00010800012D00012F0034
:09032C002DF8E62421F8E6F58025
:080335007FC8AE071FEE70FA4D
:01033D00229D
:10033E005389F0438901758A18758CFCD28DD28C45
:01034E00228C
:0A034F0075A885D2BAD288D28A229E
:1001A100E4FD12033E12034FD2AFE52C6401701936
:1001B100FDEDC3940850F374092DF8E6F5A07580A0
:1001C10090741112032C0D80E8D2A9E52D75F00A67
:1001D10084F519E52D75F00A8485F01A751B0AE579
:1001E1000875F00A84F51CE50875F00A8485F01D90
:1001F100751E0AE52E75F00A84F51FE52E75F00AC5
:100201008485F020E4FDEDC39408509E74092DF817
:0E021100E6F5A0758090741912032C0D80E89C
:03000B000202BF2F
:1002BF00C0E0C0D0052FE52FC3940A4024052EE5DA
:1002CF002EB46405752E000508E508B43C057508C5
:1002DF0000052DE52DB43C06752D00750800752F12
:0C02EF0000758A18758CFCD0D0D0E0326D
:0300030002027482
:0D027400C0E0C0D075D000C000C006C007BB
:100281007531008509A07580907421252C120331E8
:1002910020B40B12033520B40520B41780FB20B520
:1002A100E212033520B5DCE52C045401F52C20B510
:0302B100D280FBFD
:0B02B400D007D006D000D0D0D0E03240
:03001300020016D2
:10001600C0E0C0F0C0D075D000C000C003C004C0AE
:0500260005C006C00743
:10002B00E4E52D75F00A84F519E52D75F00A848544
:10003B00F01A751B0AE50875F00A84F51CE50875BE
:10004B00F00A8485F01D751E0AE52E75F00A84F5FD
:10005B001FE52E75F00A8485F0207B0074092BF8C0
:10006B00E6F5A075809074192B12032D0BBB08ECD1
:10007B0020B60B12033520B60520B67B80FB20B7CC
:10008B002712033520B721E5302401FFE433FE7C32
:10009B00007D0312021F8D308509A075809074219D
:1000AB00253012033130B7FD20B01F12033520B0BD
:1000BB0019E53014600B14600C2402700A052E80B5
:1000CB000605088002052D30B0FD30B10302002C6F
:1000DB0012033530B10302002CE53014600B1460B1
:1000EB000C2402700A152E800615088002152D307F
:0700FB00B10302002C80F8A4
:10010200D007D006D005D004D003D000D0D0D0F094
:03011200D0E03208
:100121000201A1E493A3F8E493A34003F68001F252
:1001310008DFF48029E493A3F85407240CC8C333DF
:10014100C4540F4420C8834004F456800146F6DFAE
:10015100E4800B01020408102040809002FBE47E41
:10016100019360BCA3FF543F30E509541FFEE493A3
:10017100A360010ECF54C025E060A840B8E493A36A
:10018100FAE493A3F8E493A3C8C582C8CAC583CA95
:10019100F0A3C8C582C8CAC583CADFE9DEE780BE4D
:01032B0000D1
:10021F00BC000BBE0029EF8DF084FFADF022E4CCC3
:10022F00F875F008EF2FFFEE33FEEC33FCEE9DEC8C
:10023F00984005FCEE9DFE0FD5F0E9E4CEFD22EDD2
:10024F00F8F5F0EE8420D21CFEADF075F008EF2F1C
:10025F00FFED33FD4007985006D5F0F222C398FD0D
:05026F000FD5F0EA22AA
:00000001FF
