:0300000002000EED
:0C000E00787FE4F6D8FD758127020055CC
:1000D60008183F065B4F666D7D0708080102040895
:1000E60010204080082002020304000202050810C6
:0800F6000200020400050201F2
:0E0111005389F0758A70758CDDC28DD28C22F8
:0900FF002DF8E62418F8E6F5805E
:080108007FC8AE071FEE70FA7C
:0101100022CC
:10009A00E4FD20901AE4FDEDC3940850F574082D90
:1000AA00F8E6F5A075809074201200FF0D80E83004
:1000BA0090E0E4FDEDC3940850D874082DF8E6F5F5
:0C00CA00A075809074101200FF0D80E8FB
:03000B00020003ED
:07000300758A70758CDD3277
:10001A0002009AE493A3F8E493A34003F68001F262
:10002A0008DFF48029E493A3F85407240CC8C333E7
:10003A00C4540F4420C8834004F456800146F6DFB6
:10004A00E4800B01020408102040809000D6E47E70
:10005A00019360BCA3FF543F30E509541FFEE493AB
:10006A00A360010ECF54C025E060A840B8E493A372
:10007A00FAE493A3F8E493A3C8C582C8CAC583CA9D
:10008A00F0A3C8C582C8CAC583CADFE9DEE780BE55
:0100FE000001
:00000001FF
