:0C016D000A083F065B4F666D7D07FF6FC0
:04015500EF4E6013F6
:100159007517027518EFD518FDD517FAEF1F70EC52
:010169001E77
:03016A0080E92207
:06010A008B178A18891909
:10011000E4FDFCEF5401AB17AA18A9198D828C835A
:10012000120133EFC313FF0DBD00010CED64034C4E
:0201300070E17C
:0101320022AA
:0400D8008C128D13E6
:1000DC007B007A00791412010AE51624FF92A4E53C
:1000EC001524FF92A3E51424FF92A274082513F89B
:0D00FC00E6F5807F017E00120155E4F580DD
:0101090022D3
:10008F007D077C007F011200D87D067C007F021265
:10009F0000D87D057C007F031200D87D047C007F93
:1000AF00041200D87D037C007F051200D87D027CEE
:1000BF00007F061200D87D017C007F071200D8E474
:0900CF00FDFC7F081200D880B787
:03017A0002008FF1
:03000000020003F8
:0C000300787FE4F6D8FD75811902004AF0
:10013300F8BB010DE58229F582E5833AF583E8F002
:10014300225006E92582C8F622BBFE05E92582C8AE
:02015300F22296
:10000F0002017AE493A3F8E493A34003F68001F28C
:10001F0008DFF48029E493A3F85407240CC8C333F2
:10002F00C4540F4420C8834004F456800146F6DFC1
:10003F00E4800B010204081020408090016DE47EE3
:10004F00019360BCA3FF543F30E509541FFEE493B6
:10005F00A360010ECF54C025E060A840B8E493A37D
:10006F00FAE493A3F8E493A3C8C582C8CAC583CAA8
:10007F00F0A3C8C582C8CAC583CADFE9DEE780BE60
:010179000085
:00000001FF
